{
  "_format": "hh-sol-artifact-1",
  "contractName": "LLMOracleRegistry",
  "sourceName": "contracts/llm/LLMOracleRegistry.sol",
  "abi": [
    {
      "inputs": [
        {
          "internalType": "uint256",
          "name": "_generatorStakeAmount",
          "type": "uint256"
        },
        {
          "internalType": "uint256",
          "name": "_validatorStakeAmount",
          "type": "uint256"
        },
        {
          "internalType": "address",
          "name": "_token",
          "type": "address"
        }
      ],
      "stateMutability": "nonpayable",
      "type": "constructor"
    },
    {
      "inputs": [
        {
          "internalType": "address",
          "name": "",
          "type": "address"
        }
      ],
      "name": "AlreadyRegistered",
      "type": "error"
    },
    {
      "inputs": [],
      "name": "InsufficientFunds",
      "type": "error"
    },
    {
      "inputs": [
        {
          "internalType": "address",
          "name": "",
          "type": "address"
        }
      ],
      "name": "NotRegistered",
      "type": "error"
    },
    {
      "inputs": [
        {
          "internalType": "address",
          "name": "owner",
          "type": "address"
        }
      ],
      "name": "OwnableInvalidOwner",
      "type": "error"
    },
    {
      "inputs": [
        {
          "internalType": "address",
          "name": "account",
          "type": "address"
        }
      ],
      "name": "OwnableUnauthorizedAccount",
      "type": "error"
    },
    {
      "anonymous": false,
      "inputs": [
        {
          "indexed": true,
          "internalType": "address",
          "name": "previousOwner",
          "type": "address"
        },
        {
          "indexed": true,
          "internalType": "address",
          "name": "newOwner",
          "type": "address"
        }
      ],
      "name": "OwnershipTransferred",
      "type": "event"
    },
    {
      "anonymous": false,
      "inputs": [
        {
          "indexed": true,
          "internalType": "address",
          "name": "",
          "type": "address"
        },
        {
          "indexed": false,
          "internalType": "enum LLMOracleKind",
          "name": "kind",
          "type": "uint8"
        }
      ],
      "name": "Registered",
      "type": "event"
    },
    {
      "anonymous": false,
      "inputs": [
        {
          "indexed": true,
          "internalType": "address",
          "name": "",
          "type": "address"
        },
        {
          "indexed": false,
          "internalType": "enum LLMOracleKind",
          "name": "kind",
          "type": "uint8"
        }
      ],
      "name": "Unregistered",
      "type": "event"
    },
    {
      "inputs": [],
      "name": "generatorStakeAmount",
      "outputs": [
        {
          "internalType": "uint256",
          "name": "",
          "type": "uint256"
        }
      ],
      "stateMutability": "view",
      "type": "function"
    },
    {
      "inputs": [
        {
          "internalType": "enum LLMOracleKind",
          "name": "kind",
          "type": "uint8"
        }
      ],
      "name": "getStakeAmount",
      "outputs": [
        {
          "internalType": "uint256",
          "name": "",
          "type": "uint256"
        }
      ],
      "stateMutability": "view",
      "type": "function"
    },
    {
      "inputs": [
        {
          "internalType": "address",
          "name": "user",
          "type": "address"
        },
        {
          "internalType": "enum LLMOracleKind",
          "name": "kind",
          "type": "uint8"
        }
      ],
      "name": "isRegistered",
      "outputs": [
        {
          "internalType": "bool",
          "name": "",
          "type": "bool"
        }
      ],
      "stateMutability": "view",
      "type": "function"
    },
    {
      "inputs": [],
      "name": "owner",
      "outputs": [
        {
          "internalType": "address",
          "name": "",
          "type": "address"
        }
      ],
      "stateMutability": "view",
      "type": "function"
    },
    {
      "inputs": [
        {
          "internalType": "enum LLMOracleKind",
          "name": "kind",
          "type": "uint8"
        }
      ],
      "name": "register",
      "outputs": [],
      "stateMutability": "nonpayable",
      "type": "function"
    },
    {
      "inputs": [
        {
          "internalType": "address",
          "name": "oracle",
          "type": "address"
        },
        {
          "internalType": "enum LLMOracleKind",
          "name": "",
          "type": "uint8"
        }
      ],
      "name": "registrations",
      "outputs": [
        {
          "internalType": "uint256",
          "name": "amount",
          "type": "uint256"
        }
      ],
      "stateMutability": "view",
      "type": "function"
    },
    {
      "inputs": [],
      "name": "renounceOwnership",
      "outputs": [],
      "stateMutability": "nonpayable",
      "type": "function"
    },
    {
      "inputs": [
        {
          "internalType": "uint256",
          "name": "_generatorStakeAmount",
          "type": "uint256"
        },
        {
          "internalType": "uint256",
          "name": "_validatorStakeAmount",
          "type": "uint256"
        }
      ],
      "name": "setStakeAmounts",
      "outputs": [],
      "stateMutability": "nonpayable",
      "type": "function"
    },
    {
      "inputs": [],
      "name": "token",
      "outputs": [
        {
          "internalType": "contract ERC20",
          "name": "",
          "type": "address"
        }
      ],
      "stateMutability": "view",
      "type": "function"
    },
    {
      "inputs": [
        {
          "internalType": "address",
          "name": "newOwner",
          "type": "address"
        }
      ],
      "name": "transferOwnership",
      "outputs": [],
      "stateMutability": "nonpayable",
      "type": "function"
    },
    {
      "inputs": [
        {
          "internalType": "enum LLMOracleKind",
          "name": "kind",
          "type": "uint8"
        }
      ],
      "name": "unregister",
      "outputs": [
        {
          "internalType": "uint256",
          "name": "amount",
          "type": "uint256"
        }
      ],
      "stateMutability": "nonpayable",
      "type": "function"
    },
    {
      "inputs": [],
      "name": "validatorStakeAmount",
      "outputs": [
        {
          "internalType": "uint256",
          "name": "",
          "type": "uint256"
        }
      ],
      "stateMutability": "view",
      "type": "function"
    }
  ],
  "bytecode": "0x60a06040523480156200001157600080fd5b506040516200131e3803806200131e833981810160405281019062000037919062000273565b33600073ffffffffffffffffffffffffffffffffffffffff168173ffffffffffffffffffffffffffffffffffffffff1603620000ad5760006040517f1e4fbdf7000000000000000000000000000000000000000000000000000000008152600401620000a49190620002e0565b60405180910390fd5b620000be816200010a60201b60201c565b5082600181905550816002819055508073ffffffffffffffffffffffffffffffffffffffff1660808173ffffffffffffffffffffffffffffffffffffffff1681525050505050620002fd565b60008060009054906101000a900473ffffffffffffffffffffffffffffffffffffffff169050816000806101000a81548173ffffffffffffffffffffffffffffffffffffffff021916908373ffffffffffffffffffffffffffffffffffffffff1602179055508173ffffffffffffffffffffffffffffffffffffffff168173ffffffffffffffffffffffffffffffffffffffff167f8be0079c531659141344cd1fd0a4f28419497f9722a3daafe3b4186f6b6457e060405160405180910390a35050565b600080fd5b6000819050919050565b620001e881620001d3565b8114620001f457600080fd5b50565b6000815190506200020881620001dd565b92915050565b600073ffffffffffffffffffffffffffffffffffffffff82169050919050565b60006200023b826200020e565b9050919050565b6200024d816200022e565b81146200025957600080fd5b50565b6000815190506200026d8162000242565b92915050565b6000806000606084860312156200028f576200028e620001ce565b5b60006200029f86828701620001f7565b9350506020620002b286828701620001f7565b9250506040620002c5868287016200025c565b9150509250925092565b620002da816200022e565b82525050565b6000602082019050620002f76000830184620002cf565b92915050565b608051610fe962000335600039600081816103d501528181610413015281816105fb015281816106cf01526109890152610fe96000f3fe608060405234801561001057600080fd5b50600436106100b45760003560e01c80638da5cb5b116100715780638da5cb5b1461019f578063ee12a7a0146101bd578063eea5353d146101db578063f149444b146101f9578063f2fde38b14610215578063fc0c546a14610231576100b4565b806323d2f5f6146100b95780635f5b248b146100e957806361d689fa14610119578063715018a614610135578063771007a91461013f57806381e1c6ca1461016f575b600080fd5b6100d360048036038101906100ce9190610b28565b61024f565b6040516100e09190610b6e565b60405180910390f35b61010360048036038101906100fe9190610be7565b61051d565b6040516101109190610c42565b60405180910390f35b610133600480360381019061012e9190610b28565b61059f565b005b61013d610839565b005b61015960048036038101906101549190610b28565b61084d565b6040516101669190610b6e565b60405180910390f35b61018960048036038101906101849190610be7565b61088d565b6040516101969190610b6e565b60405180910390f35b6101a76108b2565b6040516101b49190610c6c565b60405180910390f35b6101c56108db565b6040516101d29190610b6e565b60405180910390f35b6101e36108e1565b6040516101f09190610b6e565b60405180910390f35b610213600480360381019061020e9190610cb3565b6108e7565b005b61022f600480360381019061022a9190610cf3565b610901565b005b610239610987565b6040516102469190610d7f565b60405180910390f35b6000600360003373ffffffffffffffffffffffffffffffffffffffff1673ffffffffffffffffffffffffffffffffffffffff16815260200190815260200160002060008360018111156102a5576102a4610d9a565b5b60018111156102b7576102b6610d9a565b5b81526020019081526020016000205490506000810361030d57336040517fbfc6c3370000000000000000000000000000000000000000000000000000000081526004016103049190610c6c565b60405180910390fd5b600360003373ffffffffffffffffffffffffffffffffffffffff1673ffffffffffffffffffffffffffffffffffffffff168152602001908152602001600020600083600181111561036157610360610d9a565b5b600181111561037357610372610d9a565b5b8152602001908152602001600020600090553373ffffffffffffffffffffffffffffffffffffffff167feebfdaadda46c435881bbe8bac1fc3974f3323b1c809c7aabd37ae7b83ca4442836040516103cb9190610e11565b60405180910390a27f000000000000000000000000000000000000000000000000000000000000000073ffffffffffffffffffffffffffffffffffffffff1663095ea7b333837f000000000000000000000000000000000000000000000000000000000000000073ffffffffffffffffffffffffffffffffffffffff1663dd62ed3e30336040518363ffffffff1660e01b815260040161046c929190610e2c565b602060405180830381865afa158015610489573d6000803e3d6000fd5b505050506040513d601f19601f820116820180604052508101906104ad9190610e6a565b6104b79190610ec6565b6040518363ffffffff1660e01b81526004016104d4929190610efa565b6020604051808303816000875af11580156104f3573d6000803e3d6000fd5b505050506040513d601f19601f820116820180604052508101906105179190610f4f565b50919050565b600080600360008573ffffffffffffffffffffffffffffffffffffffff1673ffffffffffffffffffffffffffffffffffffffff168152602001908152602001600020600084600181111561057457610573610d9a565b5b600181111561058657610585610d9a565b5b8152602001908152602001600020541415905092915050565b60006105aa8261084d565b90506105b6338361051d565b156105f857336040517f45ed80e90000000000000000000000000000000000000000000000000000000081526004016105ef9190610c6c565b60405180910390fd5b807f000000000000000000000000000000000000000000000000000000000000000073ffffffffffffffffffffffffffffffffffffffff1663dd62ed3e33306040518363ffffffff1660e01b8152600401610654929190610e2c565b602060405180830381865afa158015610671573d6000803e3d6000fd5b505050506040513d601f19601f820116820180604052508101906106959190610e6a565b10156106cd576040517f356680b700000000000000000000000000000000000000000000000000000000815260040160405180910390fd5b7f000000000000000000000000000000000000000000000000000000000000000073ffffffffffffffffffffffffffffffffffffffff166323b872dd3330846040518463ffffffff1660e01b815260040161072a93929190610f7c565b6020604051808303816000875af1158015610749573d6000803e3d6000fd5b505050506040513d601f19601f8201168201806040525081019061076d9190610f4f565b5080600360003373ffffffffffffffffffffffffffffffffffffffff1673ffffffffffffffffffffffffffffffffffffffff16815260200190815260200160002060008460018111156107c3576107c2610d9a565b5b60018111156107d5576107d4610d9a565b5b8152602001908152602001600020819055503373ffffffffffffffffffffffffffffffffffffffff167f89b4e995568c900aa52376cbed225dc1a013c9a43cb58186d69676ff593d7c4e8360405161082d9190610e11565b60405180910390a25050565b6108416109ab565b61084b6000610a32565b565b600080600181111561086257610861610d9a565b5b82600181111561087557610874610d9a565b5b1461088257600254610886565b6001545b9050919050565b6003602052816000526040600020602052806000526040600020600091509150505481565b60008060009054906101000a900473ffffffffffffffffffffffffffffffffffffffff16905090565b60015481565b60025481565b6108ef6109ab565b81600181905550806002819055505050565b6109096109ab565b600073ffffffffffffffffffffffffffffffffffffffff168173ffffffffffffffffffffffffffffffffffffffff160361097b5760006040517f1e4fbdf70000000000000000000000000000000000000000000000000000000081526004016109729190610c6c565b60405180910390fd5b61098481610a32565b50565b7f000000000000000000000000000000000000000000000000000000000000000081565b6109b3610af6565b73ffffffffffffffffffffffffffffffffffffffff166109d16108b2565b73ffffffffffffffffffffffffffffffffffffffff1614610a30576109f4610af6565b6040517f118cdaa7000000000000000000000000000000000000000000000000000000008152600401610a279190610c6c565b60405180910390fd5b565b60008060009054906101000a900473ffffffffffffffffffffffffffffffffffffffff169050816000806101000a81548173ffffffffffffffffffffffffffffffffffffffff021916908373ffffffffffffffffffffffffffffffffffffffff1602179055508173ffffffffffffffffffffffffffffffffffffffff168173ffffffffffffffffffffffffffffffffffffffff167f8be0079c531659141344cd1fd0a4f28419497f9722a3daafe3b4186f6b6457e060405160405180910390a35050565b600033905090565b600080fd5b60028110610b1057600080fd5b50565b600081359050610b2281610b03565b92915050565b600060208284031215610b3e57610b3d610afe565b5b6000610b4c84828501610b13565b91505092915050565b6000819050919050565b610b6881610b55565b82525050565b6000602082019050610b836000830184610b5f565b92915050565b600073ffffffffffffffffffffffffffffffffffffffff82169050919050565b6000610bb482610b89565b9050919050565b610bc481610ba9565b8114610bcf57600080fd5b50565b600081359050610be181610bbb565b92915050565b60008060408385031215610bfe57610bfd610afe565b5b6000610c0c85828601610bd2565b9250506020610c1d85828601610b13565b9150509250929050565b60008115159050919050565b610c3c81610c27565b82525050565b6000602082019050610c576000830184610c33565b92915050565b610c6681610ba9565b82525050565b6000602082019050610c816000830184610c5d565b92915050565b610c9081610b55565b8114610c9b57600080fd5b50565b600081359050610cad81610c87565b92915050565b60008060408385031215610cca57610cc9610afe565b5b6000610cd885828601610c9e565b9250506020610ce985828601610c9e565b9150509250929050565b600060208284031215610d0957610d08610afe565b5b6000610d1784828501610bd2565b91505092915050565b6000819050919050565b6000610d45610d40610d3b84610b89565b610d20565b610b89565b9050919050565b6000610d5782610d2a565b9050919050565b6000610d6982610d4c565b9050919050565b610d7981610d5e565b82525050565b6000602082019050610d946000830184610d70565b92915050565b7f4e487b7100000000000000000000000000000000000000000000000000000000600052602160045260246000fd5b60028110610dda57610dd9610d9a565b5b50565b6000819050610deb82610dc9565b919050565b6000610dfb82610ddd565b9050919050565b610e0b81610df0565b82525050565b6000602082019050610e266000830184610e02565b92915050565b6000604082019050610e416000830185610c5d565b610e4e6020830184610c5d565b9392505050565b600081519050610e6481610c87565b92915050565b600060208284031215610e8057610e7f610afe565b5b6000610e8e84828501610e55565b91505092915050565b7f4e487b7100000000000000000000000000000000000000000000000000000000600052601160045260246000fd5b6000610ed182610b55565b9150610edc83610b55565b9250828201905080821115610ef457610ef3610e97565b5b92915050565b6000604082019050610f0f6000830185610c5d565b610f1c6020830184610b5f565b9392505050565b610f2c81610c27565b8114610f3757600080fd5b50565b600081519050610f4981610f23565b92915050565b600060208284031215610f6557610f64610afe565b5b6000610f7384828501610f3a565b91505092915050565b6000606082019050610f916000830186610c5d565b610f9e6020830185610c5d565b610fab6040830184610b5f565b94935050505056fea2646970667358221220a9ba3c16c434e7a7bc36eea2aef2fa95e07682f086272473e439bd2e5edf770064736f6c63430008180033",
  "linkReferences": {},
  "deployedLinkReferences": {}
}