{
  "_format": "hh-sol-artifact-1",
  "contractName": "LLMOracleCoordinator",
  "sourceName": "contracts/llm/LLMOracleCoordinator.sol",
  "abi": [
    {
      "inputs": [],
      "stateMutability": "nonpayable",
      "type": "constructor"
    },
    {
      "inputs": [
        {
          "internalType": "address",
          "name": "target",
          "type": "address"
        }
      ],
      "name": "AddressEmptyCode",
      "type": "error"
    },
    {
      "inputs": [
        {
          "internalType": "uint256",
          "name": "taskId",
          "type": "uint256"
        },
        {
          "internalType": "address",
          "name": "oracle",
          "type": "address"
        }
      ],
      "name": "AlreadyResponded",
      "type": "error"
    },
    {
      "inputs": [
        {
          "internalType": "address",
          "name": "implementation",
          "type": "address"
        }
      ],
      "name": "ERC1967InvalidImplementation",
      "type": "error"
    },
    {
      "inputs": [],
      "name": "ERC1967NonPayable",
      "type": "error"
    },
    {
      "inputs": [],
      "name": "FailedInnerCall",
      "type": "error"
    },
    {
      "inputs": [
        {
          "internalType": "uint256",
          "name": "given",
          "type": "uint256"
        },
        {
          "internalType": "uint256",
          "name": "required",
          "type": "uint256"
        }
      ],
      "name": "InsufficientRewards",
      "type": "error"
    },
    {
      "inputs": [
        {
          "internalType": "uint8",
          "name": "difficulty",
          "type": "uint8"
        }
      ],
      "name": "InvalidDifficulty",
      "type": "error"
    },
    {
      "inputs": [],
      "name": "InvalidInitialization",
      "type": "error"
    },
    {
      "inputs": [
        {
          "internalType": "uint256",
          "name": "taskId",
          "type": "uint256"
        },
        {
          "internalType": "uint256",
          "name": "nonce",
          "type": "uint256"
        }
      ],
      "name": "InvalidNonce",
      "type": "error"
    },
    {
      "inputs": [
        {
          "internalType": "uint40",
          "name": "numGenerations",
          "type": "uint40"
        }
      ],
      "name": "InvalidNumGenerations",
      "type": "error"
    },
    {
      "inputs": [
        {
          "internalType": "uint40",
          "name": "numValidations",
          "type": "uint40"
        }
      ],
      "name": "InvalidNumValidations",
      "type": "error"
    },
    {
      "inputs": [
        {
          "internalType": "uint256",
          "name": "taskId",
          "type": "uint256"
        },
        {
          "internalType": "enum LLMOracleTask.TaskStatus",
          "name": "have",
          "type": "uint8"
        },
        {
          "internalType": "enum LLMOracleTask.TaskStatus",
          "name": "want",
          "type": "uint8"
        }
      ],
      "name": "InvalidTaskStatus",
      "type": "error"
    },
    {
      "inputs": [
        {
          "internalType": "uint256",
          "name": "taskId",
          "type": "uint256"
        },
        {
          "internalType": "address",
          "name": "validator",
          "type": "address"
        }
      ],
      "name": "InvalidValidation",
      "type": "error"
    },
    {
      "inputs": [],
      "name": "NotInitializing",
      "type": "error"
    },
    {
      "inputs": [
        {
          "internalType": "address",
          "name": "oracle",
          "type": "address"
        }
      ],
      "name": "NotRegistered",
      "type": "error"
    },
    {
      "inputs": [
        {
          "internalType": "address",
          "name": "owner",
          "type": "address"
        }
      ],
      "name": "OwnableInvalidOwner",
      "type": "error"
    },
    {
      "inputs": [
        {
          "internalType": "address",
          "name": "account",
          "type": "address"
        }
      ],
      "name": "OwnableUnauthorizedAccount",
      "type": "error"
    },
    {
      "inputs": [],
      "name": "UUPSUnauthorizedCallContext",
      "type": "error"
    },
    {
      "inputs": [
        {
          "internalType": "bytes32",
          "name": "slot",
          "type": "bytes32"
        }
      ],
      "name": "UUPSUnsupportedProxiableUUID",
      "type": "error"
    },
    {
      "anonymous": false,
      "inputs": [
        {
          "indexed": false,
          "internalType": "uint64",
          "name": "version",
          "type": "uint64"
        }
      ],
      "name": "Initialized",
      "type": "event"
    },
    {
      "anonymous": false,
      "inputs": [
        {
          "indexed": true,
          "internalType": "address",
          "name": "previousOwner",
          "type": "address"
        },
        {
          "indexed": true,
          "internalType": "address",
          "name": "newOwner",
          "type": "address"
        }
      ],
      "name": "OwnershipTransferred",
      "type": "event"
    },
    {
      "anonymous": false,
      "inputs": [
        {
          "indexed": true,
          "internalType": "uint256",
          "name": "taskId",
          "type": "uint256"
        },
        {
          "indexed": true,
          "internalType": "address",
          "name": "requester",
          "type": "address"
        }
      ],
      "name": "Request",
      "type": "event"
    },
    {
      "anonymous": false,
      "inputs": [
        {
          "indexed": true,
          "internalType": "uint256",
          "name": "taskId",
          "type": "uint256"
        },
        {
          "indexed": true,
          "internalType": "address",
          "name": "responder",
          "type": "address"
        }
      ],
      "name": "Response",
      "type": "event"
    },
    {
      "anonymous": false,
      "inputs": [
        {
          "indexed": true,
          "internalType": "uint256",
          "name": "taskId",
          "type": "uint256"
        },
        {
          "indexed": false,
          "internalType": "enum LLMOracleTask.TaskStatus",
          "name": "statusBefore",
          "type": "uint8"
        },
        {
          "indexed": false,
          "internalType": "enum LLMOracleTask.TaskStatus",
          "name": "statusAfter",
          "type": "uint8"
        }
      ],
      "name": "StatusUpdate",
      "type": "event"
    },
    {
      "anonymous": false,
      "inputs": [
        {
          "indexed": true,
          "internalType": "address",
          "name": "implementation",
          "type": "address"
        }
      ],
      "name": "Upgraded",
      "type": "event"
    },
    {
      "anonymous": false,
      "inputs": [
        {
          "indexed": true,
          "internalType": "uint256",
          "name": "taskId",
          "type": "uint256"
        },
        {
          "indexed": true,
          "internalType": "address",
          "name": "validator",
          "type": "address"
        }
      ],
      "name": "Validation",
      "type": "event"
    },
    {
      "inputs": [],
      "name": "UPGRADE_INTERFACE_VERSION",
      "outputs": [
        {
          "internalType": "string",
          "name": "",
          "type": "string"
        }
      ],
      "stateMutability": "view",
      "type": "function"
    },
    {
      "inputs": [],
      "name": "feeToken",
      "outputs": [
        {
          "internalType": "contract ERC20",
          "name": "",
          "type": "address"
        }
      ],
      "stateMutability": "view",
      "type": "function"
    },
    {
      "inputs": [],
      "name": "generationDeviationFactor",
      "outputs": [
        {
          "internalType": "uint64",
          "name": "",
          "type": "uint64"
        }
      ],
      "stateMutability": "view",
      "type": "function"
    },
    {
      "inputs": [],
      "name": "generationFee",
      "outputs": [
        {
          "internalType": "uint256",
          "name": "",
          "type": "uint256"
        }
      ],
      "stateMutability": "view",
      "type": "function"
    },
    {
      "inputs": [
        {
          "internalType": "uint256",
          "name": "taskId",
          "type": "uint256"
        }
      ],
      "name": "getBestResponse",
      "outputs": [
        {
          "components": [
            {
              "internalType": "address",
              "name": "responder",
              "type": "address"
            },
            {
              "internalType": "uint256",
              "name": "nonce",
              "type": "uint256"
            },
            {
              "internalType": "uint256",
              "name": "score",
              "type": "uint256"
            },
            {
              "internalType": "bytes",
              "name": "output",
              "type": "bytes"
            },
            {
              "internalType": "bytes",
              "name": "metadata",
              "type": "bytes"
            }
          ],
          "internalType": "struct LLMOracleTask.TaskResponse",
          "name": "",
          "type": "tuple"
        }
      ],
      "stateMutability": "view",
      "type": "function"
    },
    {
      "inputs": [
        {
          "internalType": "uint8",
          "name": "difficulty",
          "type": "uint8"
        },
        {
          "internalType": "uint40",
          "name": "numGenerations",
          "type": "uint40"
        },
        {
          "internalType": "uint40",
          "name": "numValidations",
          "type": "uint40"
        }
      ],
      "name": "getFee",
      "outputs": [
        {
          "internalType": "uint256",
          "name": "totalFee",
          "type": "uint256"
        },
        {
          "internalType": "uint256",
          "name": "generatorFee",
          "type": "uint256"
        },
        {
          "internalType": "uint256",
          "name": "validatorFee",
          "type": "uint256"
        }
      ],
      "stateMutability": "view",
      "type": "function"
    },
    {
      "inputs": [
        {
          "internalType": "uint256",
          "name": "taskId",
          "type": "uint256"
        }
      ],
      "name": "getResponses",
      "outputs": [
        {
          "components": [
            {
              "internalType": "address",
              "name": "responder",
              "type": "address"
            },
            {
              "internalType": "uint256",
              "name": "nonce",
              "type": "uint256"
            },
            {
              "internalType": "uint256",
              "name": "score",
              "type": "uint256"
            },
            {
              "internalType": "bytes",
              "name": "output",
              "type": "bytes"
            },
            {
              "internalType": "bytes",
              "name": "metadata",
              "type": "bytes"
            }
          ],
          "internalType": "struct LLMOracleTask.TaskResponse[]",
          "name": "",
          "type": "tuple[]"
        }
      ],
      "stateMutability": "view",
      "type": "function"
    },
    {
      "inputs": [
        {
          "internalType": "uint256",
          "name": "taskId",
          "type": "uint256"
        }
      ],
      "name": "getValidations",
      "outputs": [
        {
          "components": [
            {
              "internalType": "address",
              "name": "validator",
              "type": "address"
            },
            {
              "internalType": "uint256",
              "name": "nonce",
              "type": "uint256"
            },
            {
              "internalType": "uint256[]",
              "name": "scores",
              "type": "uint256[]"
            },
            {
              "internalType": "bytes",
              "name": "metadata",
              "type": "bytes"
            }
          ],
          "internalType": "struct LLMOracleTask.TaskValidation[]",
          "name": "",
          "type": "tuple[]"
        }
      ],
      "stateMutability": "view",
      "type": "function"
    },
    {
      "inputs": [
        {
          "internalType": "address",
          "name": "_oracleRegistry",
          "type": "address"
        },
        {
          "internalType": "address",
          "name": "_feeToken",
          "type": "address"
        },
        {
          "internalType": "uint256",
          "name": "_platformFee",
          "type": "uint256"
        },
        {
          "internalType": "uint256",
          "name": "_generationFee",
          "type": "uint256"
        },
        {
          "internalType": "uint256",
          "name": "_validationFee",
          "type": "uint256"
        }
      ],
      "name": "initialize",
      "outputs": [],
      "stateMutability": "nonpayable",
      "type": "function"
    },
    {
      "inputs": [],
      "name": "maxDifficulty",
      "outputs": [
        {
          "internalType": "uint64",
          "name": "",
          "type": "uint64"
        }
      ],
      "stateMutability": "view",
      "type": "function"
    },
    {
      "inputs": [],
      "name": "maxNumGenerations",
      "outputs": [
        {
          "internalType": "uint40",
          "name": "",
          "type": "uint40"
        }
      ],
      "stateMutability": "view",
      "type": "function"
    },
    {
      "inputs": [],
      "name": "maxNumValidations",
      "outputs": [
        {
          "internalType": "uint40",
          "name": "",
          "type": "uint40"
        }
      ],
      "stateMutability": "view",
      "type": "function"
    },
    {
      "inputs": [],
      "name": "minDifficulty",
      "outputs": [
        {
          "internalType": "uint64",
          "name": "",
          "type": "uint64"
        }
      ],
      "stateMutability": "view",
      "type": "function"
    },
    {
      "inputs": [],
      "name": "minNumGenerations",
      "outputs": [
        {
          "internalType": "uint40",
          "name": "",
          "type": "uint40"
        }
      ],
      "stateMutability": "view",
      "type": "function"
    },
    {
      "inputs": [],
      "name": "minNumValidations",
      "outputs": [
        {
          "internalType": "uint40",
          "name": "",
          "type": "uint40"
        }
      ],
      "stateMutability": "view",
      "type": "function"
    },
    {
      "inputs": [],
      "name": "nextTaskId",
      "outputs": [
        {
          "internalType": "uint256",
          "name": "",
          "type": "uint256"
        }
      ],
      "stateMutability": "view",
      "type": "function"
    },
    {
      "inputs": [],
      "name": "owner",
      "outputs": [
        {
          "internalType": "address",
          "name": "",
          "type": "address"
        }
      ],
      "stateMutability": "view",
      "type": "function"
    },
    {
      "inputs": [],
      "name": "platformFee",
      "outputs": [
        {
          "internalType": "uint256",
          "name": "",
          "type": "uint256"
        }
      ],
      "stateMutability": "view",
      "type": "function"
    },
    {
      "inputs": [],
      "name": "proxiableUUID",
      "outputs": [
        {
          "internalType": "bytes32",
          "name": "",
          "type": "bytes32"
        }
      ],
      "stateMutability": "view",
      "type": "function"
    },
    {
      "inputs": [],
      "name": "registry",
      "outputs": [
        {
          "internalType": "contract LLMOracleRegistry",
          "name": "",
          "type": "address"
        }
      ],
      "stateMutability": "view",
      "type": "function"
    },
    {
      "inputs": [],
      "name": "renounceOwnership",
      "outputs": [],
      "stateMutability": "nonpayable",
      "type": "function"
    },
    {
      "inputs": [
        {
          "internalType": "bytes",
          "name": "input",
          "type": "bytes"
        },
        {
          "internalType": "bytes",
          "name": "models",
          "type": "bytes"
        },
        {
          "internalType": "uint8",
          "name": "difficulty",
          "type": "uint8"
        },
        {
          "internalType": "uint40",
          "name": "numGenerations",
          "type": "uint40"
        },
        {
          "internalType": "uint40",
          "name": "numValidations",
          "type": "uint40"
        }
      ],
      "name": "request",
      "outputs": [
        {
          "internalType": "uint256",
          "name": "",
          "type": "uint256"
        }
      ],
      "stateMutability": "nonpayable",
      "type": "function"
    },
    {
      "inputs": [
        {
          "internalType": "uint256",
          "name": "taskId",
          "type": "uint256"
        }
      ],
      "name": "requests",
      "outputs": [
        {
          "internalType": "address",
          "name": "requester",
          "type": "address"
        },
        {
          "internalType": "uint40",
          "name": "numGenerations",
          "type": "uint40"
        },
        {
          "internalType": "uint40",
          "name": "numValidations",
          "type": "uint40"
        },
        {
          "internalType": "uint8",
          "name": "difficulty",
          "type": "uint8"
        },
        {
          "internalType": "enum LLMOracleTask.TaskStatus",
          "name": "status",
          "type": "uint8"
        },
        {
          "internalType": "uint256",
          "name": "generatorFee",
          "type": "uint256"
        },
        {
          "internalType": "uint256",
          "name": "validatorFee",
          "type": "uint256"
        },
        {
          "internalType": "uint256",
          "name": "platformFee",
          "type": "uint256"
        },
        {
          "internalType": "bytes",
          "name": "input",
          "type": "bytes"
        },
        {
          "internalType": "bytes",
          "name": "models",
          "type": "bytes"
        }
      ],
      "stateMutability": "view",
      "type": "function"
    },
    {
      "inputs": [
        {
          "internalType": "uint256",
          "name": "taskId",
          "type": "uint256"
        },
        {
          "internalType": "uint256",
          "name": "nonce",
          "type": "uint256"
        },
        {
          "internalType": "bytes",
          "name": "output",
          "type": "bytes"
        },
        {
          "internalType": "bytes",
          "name": "metadata",
          "type": "bytes"
        }
      ],
      "name": "respond",
      "outputs": [],
      "stateMutability": "nonpayable",
      "type": "function"
    },
    {
      "inputs": [
        {
          "internalType": "uint256",
          "name": "taskId",
          "type": "uint256"
        },
        {
          "internalType": "uint256",
          "name": "",
          "type": "uint256"
        }
      ],
      "name": "responses",
      "outputs": [
        {
          "internalType": "address",
          "name": "responder",
          "type": "address"
        },
        {
          "internalType": "uint256",
          "name": "nonce",
          "type": "uint256"
        },
        {
          "internalType": "uint256",
          "name": "score",
          "type": "uint256"
        },
        {
          "internalType": "bytes",
          "name": "output",
          "type": "bytes"
        },
        {
          "internalType": "bytes",
          "name": "metadata",
          "type": "bytes"
        }
      ],
      "stateMutability": "view",
      "type": "function"
    },
    {
      "inputs": [
        {
          "internalType": "uint64",
          "name": "_generationDeviationFactor",
          "type": "uint64"
        },
        {
          "internalType": "uint64",
          "name": "_validationDeviationFactor",
          "type": "uint64"
        }
      ],
      "name": "setDeviationFactors",
      "outputs": [],
      "stateMutability": "nonpayable",
      "type": "function"
    },
    {
      "inputs": [
        {
          "internalType": "uint64",
          "name": "_minDifficulty",
          "type": "uint64"
        },
        {
          "internalType": "uint64",
          "name": "_maxDifficulty",
          "type": "uint64"
        }
      ],
      "name": "setDifficulty",
      "outputs": [],
      "stateMutability": "nonpayable",
      "type": "function"
    },
    {
      "inputs": [
        {
          "internalType": "uint256",
          "name": "_platformFee",
          "type": "uint256"
        },
        {
          "internalType": "uint256",
          "name": "_generationFee",
          "type": "uint256"
        },
        {
          "internalType": "uint256",
          "name": "_validationFee",
          "type": "uint256"
        }
      ],
      "name": "setFees",
      "outputs": [],
      "stateMutability": "nonpayable",
      "type": "function"
    },
    {
      "inputs": [
        {
          "internalType": "uint40",
          "name": "_minNumGenerations",
          "type": "uint40"
        },
        {
          "internalType": "uint40",
          "name": "_maxNumGenerations",
          "type": "uint40"
        }
      ],
      "name": "setNumGenerations",
      "outputs": [],
      "stateMutability": "nonpayable",
      "type": "function"
    },
    {
      "inputs": [
        {
          "internalType": "uint40",
          "name": "_minNumValidations",
          "type": "uint40"
        },
        {
          "internalType": "uint40",
          "name": "_maxNumValidations",
          "type": "uint40"
        }
      ],
      "name": "setNumValidations",
      "outputs": [],
      "stateMutability": "nonpayable",
      "type": "function"
    },
    {
      "inputs": [
        {
          "internalType": "address",
          "name": "newOwner",
          "type": "address"
        }
      ],
      "name": "transferOwnership",
      "outputs": [],
      "stateMutability": "nonpayable",
      "type": "function"
    },
    {
      "inputs": [
        {
          "internalType": "address",
          "name": "newImplementation",
          "type": "address"
        },
        {
          "internalType": "bytes",
          "name": "data",
          "type": "bytes"
        }
      ],
      "name": "upgradeToAndCall",
      "outputs": [],
      "stateMutability": "payable",
      "type": "function"
    },
    {
      "inputs": [
        {
          "internalType": "uint256",
          "name": "taskId",
          "type": "uint256"
        },
        {
          "internalType": "uint256",
          "name": "nonce",
          "type": "uint256"
        },
        {
          "internalType": "uint256[]",
          "name": "scores",
          "type": "uint256[]"
        },
        {
          "internalType": "bytes",
          "name": "metadata",
          "type": "bytes"
        }
      ],
      "name": "validate",
      "outputs": [],
      "stateMutability": "nonpayable",
      "type": "function"
    },
    {
      "inputs": [],
      "name": "validationDeviationFactor",
      "outputs": [
        {
          "internalType": "uint64",
          "name": "",
          "type": "uint64"
        }
      ],
      "stateMutability": "view",
      "type": "function"
    },
    {
      "inputs": [],
      "name": "validationFee",
      "outputs": [
        {
          "internalType": "uint256",
          "name": "",
          "type": "uint256"
        }
      ],
      "stateMutability": "view",
      "type": "function"
    },
    {
      "inputs": [
        {
          "internalType": "uint256",
          "name": "taskId",
          "type": "uint256"
        },
        {
          "internalType": "uint256",
          "name": "",
          "type": "uint256"
        }
      ],
      "name": "validations",
      "outputs": [
        {
          "internalType": "address",
          "name": "validator",
          "type": "address"
        },
        {
          "internalType": "uint256",
          "name": "nonce",
          "type": "uint256"
        },
        {
          "internalType": "bytes",
          "name": "metadata",
          "type": "bytes"
        }
      ],
      "stateMutability": "view",
      "type": "function"
    },
    {
      "inputs": [],
      "name": "withdrawPlatformFees",
      "outputs": [],
      "stateMutability": "nonpayable",
      "type": "function"
    }
  ],
  "bytecode": "0x60a0604052306080523480156200001557600080fd5b506200002062000026565b620000da565b7ff0c57e16840df040f15088dc2f81fe391c3923bec73e23a9662efc9c229c6a00805468010000000000000000900460ff1615620000775760405163f92ee8a960e01b815260040160405180910390fd5b80546001600160401b0390811614620000d75780546001600160401b0319166001600160401b0390811782556040519081527fc7f505b2f371ae2175ee4913f4499e1f2633a7b5936321eed1cdaeb6115181d29060200160405180910390a15b50565b6080516139d162000104600039600081816122310152818161225a01526123a001526139d16000f3fe6080604052600436106102195760003560e01c806393e0a29c11610123578063c4c1c247116100ab578063e671b6741161006f578063e671b674146106e3578063eecf38151461070a578063f2fde38b1461072a578063f8bbf27e1461074a578063fdc3d8d71461076057600080fd5b8063c4c1c24714610647578063ca287c3514610667578063cec10c111461068e578063d0b7830b146106ae578063d13f90b4146106c357600080fd5b8063b1b1d93c116100f2578063b1b1d93c14610587578063b2cf4428146105a7578063b4a93283146105e2578063b584e61714610609578063c4186ec91461062957600080fd5b806393e0a29c146104c55780639a99745314610504578063ad3cb1cc14610524578063b0b2419b1461056257600080fd5b806352d1902d116101a657806371ee2ce11161017557806371ee2ce11461040d5780637b1039991461043a57806381d12c581461045a57806385ddbfeb146104905780638da5cb5b146104b057600080fd5b806352d1902d1461038b578063647846a5146103a05780636b4d5bfc146103d8578063715018a6146103f857600080fd5b806326232a2e116101ed57806326232a2e146102d757806332f77659146102ed578063434dbaee1461031a5780634b5a82d1146103475780634f1ef2861461037657600080fd5b806257efc21461021e5780630566f18a146102585780630954daac1461027c57806325082d70146102b7575b600080fd5b34801561022a57600080fd5b5061023e610239366004612e15565b610776565b60405161024f959493929190612e87565b60405180910390f35b34801561026457600080fd5b5061026e60015481565b60405190815260200161024f565b34801561028857600080fd5b506004546102a190600160501b900464ffffffffff1681565b60405164ffffffffff909116815260200161024f565b3480156102c357600080fd5b5061026e6102d2366004612f9f565b6108e0565b3480156102e357600080fd5b5061026e60005481565b3480156102f957600080fd5b5061030d610308366004613034565b610d22565b60405161024f91906130a1565b34801561032657600080fd5b5061033a610335366004613034565b610fed565b60405161024f91906130b4565b34801561035357600080fd5b50610367610362366004612e15565b61115d565b60405161024f93929190613185565b6103896103843660046131cc565b611233565b005b34801561039757600080fd5b5061026e611252565b3480156103ac57600080fd5b506006546103c0906001600160a01b031681565b6040516001600160a01b03909116815260200161024f565b3480156103e457600080fd5b506103896103f3366004613261565b61126f565b34801561040457600080fd5b50610389611690565b34801561041957600080fd5b5061042d610428366004613034565b6116a4565b60405161024f9190613314565b34801561044657600080fd5b506005546103c0906001600160a01b031681565b34801561046657600080fd5b5061047a610475366004613034565b61185a565b60405161024f9a999897969594939291906133a2565b34801561049c57600080fd5b506103896104ab366004613429565b6119dd565b3480156104bc57600080fd5b506103c0611a29565b3480156104d157600080fd5b506003546104ec90600160801b90046001600160401b031681565b6040516001600160401b03909116815260200161024f565b34801561051057600080fd5b506003546104ec906001600160401b031681565b34801561053057600080fd5b50610555604051806040016040528060058152602001640352e302e360dc1b81525081565b60405161024f919061345c565b34801561056e57600080fd5b506004546102a190600160781b900464ffffffffff1681565b34801561059357600080fd5b506103896105a2366004613486565b611a57565b3480156105b357600080fd5b506105c76105c23660046134b0565b611aaa565b6040805193845260208401929092529082015260600161024f565b3480156105ee57600080fd5b506003546104ec90600160401b90046001600160401b031681565b34801561061557600080fd5b506103896106243660046134f3565b611b1d565b34801561063557600080fd5b506004546102a19064ffffffffff1681565b34801561065357600080fd5b50610389610662366004613486565b611f03565b34801561067357600080fd5b506003546104ec90600160c01b90046001600160401b031681565b34801561069a57600080fd5b506103896106a9366004613556565b611f48565b3480156106ba57600080fd5b50610389611f5e565b3480156106cf57600080fd5b506103896106de366004613582565b61205d565b3480156106ef57600080fd5b506004546102a19065010000000000900464ffffffffff1681565b34801561071657600080fd5b50610389610725366004613429565b6121af565b34801561073657600080fd5b506103896107453660046135cf565b6121eb565b34801561075657600080fd5b5061026e60025481565b34801561076c57600080fd5b5061026e60075481565b6009602052816000526040600020818154811061079257600080fd5b600091825260209091206005909102018054600182015460028301546003840180546001600160a01b03909416965091945092916107cf906135ea565b80601f01602080910402602001604051908101604052809291908181526020018280546107fb906135ea565b80156108485780601f1061081d57610100808354040283529160200191610848565b820191906000526020600020905b81548152906001019060200180831161082b57829003601f168201915b50505050509080600401805461085d906135ea565b80601f0160208091040260200160405190810160405280929190818152602001828054610889906135ea565b80156108d65780601f106108ab576101008083540402835291602001916108d6565b820191906000526020600020905b8154815290600101906020018083116108b957829003601f168201915b5050505050905085565b6003546000908490600160401b90046001600160401b031660ff8216108061091557506003546001600160401b031660ff8216115b1561093d57604051634bb5809160e11b815260ff821660048201526024015b60405180910390fd5b600454849064ffffffffff650100000000009091048116908216108061096f575060045464ffffffffff908116908216115b1561099957604051600162022ff160e01b0319815264ffffffffff82166004820152602401610934565b600454849064ffffffffff600160781b909104811690821610806109d0575060045464ffffffffff600160501b9091048116908216115b156109f757604051630446e82360e11b815264ffffffffff82166004820152602401610934565b600654604051636eb1769f60e11b81523360048201523060248201526000916001600160a01b03169063dd62ed3e90604401602060405180830381865afa158015610a46573d6000803e3d6000fd5b505050506040513d601f19601f82011682018060405250810190610a6a919061361e565b90506000806000610a7c8b8b8b611aaa565b92509250925082841015610aad57604051631efc11e560e11b81526004810185905260248101849052604401610934565b6006546040516323b872dd60e01b8152336004820152306024820152604481018590526001600160a01b03909116906323b872dd906064016020604051808303816000875af1158015610b04573d6000803e3d6000fd5b505050506040513d601f19601f82011682018060405250810190610b289190613637565b506007805460018101909155604051339082907f68726a5a65240ea02ab9a0ad65d3c451719ba47c00546e1e5c0b4b3743b808db90600090a3604080516101408101825233815264ffffffffff808e1660208301528c169181019190915260ff8d166060820152608081016001815260200184815260200183815260200160005481526020018f81526020018e8152506008600083815260200190815260200160002060008201518160000160006101000a8154816001600160a01b0302191690836001600160a01b0316021790555060208201518160000160146101000a81548164ffffffffff021916908364ffffffffff16021790555060408201518160000160196101000a81548164ffffffffff021916908364ffffffffff160217905550606082015181600001601e6101000a81548160ff021916908360ff160217905550608082015181600001601f6101000a81548160ff02191690836003811115610c9557610c95613378565b021790555060a0820151600182015560c0820151600282015560e082015160038201556101008201516004820190610ccd90826136a1565b506101208201516005820190610ce390826136a1565b509050508060008051602061397c83398151915260006001604051610d09929190613760565b60405180910390a29d9c50505050505050505050505050565b610d5d6040518060a0016040528060006001600160a01b03168152602001600081526020016000815260200160608152602001606081525090565b60008281526009602052604090206003600084815260086020526040902054600160f81b900460ff166003811115610d9757610d97613378565b14610dd6576000838152600860205260409081902054905163091e2f1760e31b8152610934918591600160f81b90910460ff169060039060040161377b565b600081600081548110610deb57610deb6137a4565b60009182526020909120600590910201600281015490915060015b8354811015610e8b5781848281548110610e2257610e226137a4565b9060005260206000209060050201600201541115610e8357838181548110610e4c57610e4c6137a4565b9060005260206000209060050201600201549150838181548110610e7257610e726137a4565b906000526020600020906005020192505b600101610e06565b506040805160a08101825283546001600160a01b031681526001840154602082015260028401549181019190915260038301805484916060840191610ecf906135ea565b80601f0160208091040260200160405190810160405280929190818152602001828054610efb906135ea565b8015610f485780601f10610f1d57610100808354040283529160200191610f48565b820191906000526020600020905b815481529060010190602001808311610f2b57829003601f168201915b50505050508152602001600482018054610f61906135ea565b80601f0160208091040260200160405190810160405280929190818152602001828054610f8d906135ea565b8015610fda5780601f10610faf57610100808354040283529160200191610fda565b820191906000526020600020905b815481529060010190602001808311610fbd57829003601f168201915b5050505050815250509350505050919050565b6060600a6000838152602001908152602001600020805480602002602001604051908101604052809291908181526020016000905b82821015611152576000848152602090819020604080516080810182526004860290920180546001600160a01b0316835260018101548385015260028101805483518187028101870185528181529495929493860193928301828280156110a857602002820191906000526020600020905b815481526020019060010190808311611094575b505050505081526020016003820180546110c1906135ea565b80601f01602080910402602001604051908101604052809291908181526020018280546110ed906135ea565b801561113a5780601f1061110f5761010080835404028352916020019161113a565b820191906000526020600020905b81548152906001019060200180831161111d57829003601f168201915b50505050508152505081526020019060010190611022565b505050509050919050565b600a602052816000526040600020818154811061117957600080fd5b60009182526020909120600490910201805460018201546003830180546001600160a01b039093169550909350906111b0906135ea565b80601f01602080910402602001604051908101604052809291908181526020018280546111dc906135ea565b80156112295780601f106111fe57610100808354040283529160200191611229565b820191906000526020600020905b81548152906001019060200180831161120c57829003601f168201915b5050505050905083565b61123b612226565b611244826122cb565b61124e82826122d3565b5050565b600061125c612395565b5060008051602061395c83398151915290565b600554604051635f5b248b60e01b81526001916001600160a01b031690635f5b248b906112a290339085906004016137ba565b602060405180830381865afa1580156112bf573d6000803e3d6000fd5b505050506040513d601f19601f820116820180604052508101906112e39190613637565b6113025760405163bfc6c33760e01b8152336004820152602401610934565b86600280600083815260086020526040902054600160f81b900460ff16600381111561133057611330613378565b1461136e576000828152600860205260409081902054905163091e2f1760e31b8152610934918491600160f81b90910460ff1690849060040161377b565b60008981526008602052604090208054600160a01b900464ffffffffff1687146113b4576040516355c56a4560e11b8152600481018b9052336024820152604401610934565b60005b8154600160a01b900464ffffffffff1681101561143a5760008b81526009602052604090208054339190839081106113f1576113f16137a4565b60009182526020909120600590910201546001600160a01b031603611432576040516301011bf360e71b8152600481018c9052336024820152604401610934565b6001016113b7565b5060005b60008b8152600a60205260409020548110156114c05760008b8152600a60205260409020805433919083908110611477576114776137a4565b60009182526020909120600490910201546001600160a01b0316036114b8576040516301011bf360e71b8152600481018c9052336024820152604401610934565b60010161143e565b506114cc8a828b6123de565b600a60008b81526020019081526020016000206040518060800160405280336001600160a01b031681526020018b81526020018a8a80806020026020016040519081016040528093929190818152602001838360200280828437600092019190915250505090825250604080516020601f8b0181900481028201810190925289815291810191908a908a90819084018382808284376000920182905250939094525050835460018082018655948252602091829020845160049092020180546001600160a01b0319166001600160a01b039092169190911781558382015194810194909455604083015180519394936115cf935060028501929190910190612db5565b50606082015160038201906115e490826136a1565b50506040513391508b907fa1afe65d2285036595be8f15025c4421a593141666e15e5a980e742920646b1e90600090a3805460008b8152600a6020526040902054600160c81b90910464ffffffffff161480156116835781546001600160f81b0316600360f81b1782556040518b9060008051602061397c8339815191529061167290600290600390613760565b60405180910390a26116838b612463565b5050505050505050505050565b61169861284d565b6116a2600061287f565b565b606060096000838152602001908152602001600020805480602002602001604051908101604052809291908181526020016000905b828210156111525760008481526020908190206040805160a0810182526005860290920180546001600160a01b03168352600181015493830193909352600283015490820152600382018054919291606084019190611737906135ea565b80601f0160208091040260200160405190810160405280929190818152602001828054611763906135ea565b80156117b05780601f10611785576101008083540402835291602001916117b0565b820191906000526020600020905b81548152906001019060200180831161179357829003601f168201915b505050505081526020016004820180546117c9906135ea565b80601f01602080910402602001604051908101604052809291908181526020018280546117f5906135ea565b80156118425780601f1061181757610100808354040283529160200191611842565b820191906000526020600020905b81548152906001019060200180831161182557829003601f168201915b505050505081525050815260200190600101906116d9565b600860205260009081526040902080546001820154600283015460038401546004850180546001600160a01b0386169664ffffffffff600160a01b8804811697600160c81b81049091169660ff600160f01b8304811697600160f81b909304169590949193909291906118cc906135ea565b80601f01602080910402602001604051908101604052809291908181526020018280546118f8906135ea565b80156119455780601f1061191a57610100808354040283529160200191611945565b820191906000526020600020905b81548152906001019060200180831161192857829003601f168201915b50505050509080600501805461195a906135ea565b80601f0160208091040260200160405190810160405280929190818152602001828054611986906135ea565b80156119d35780601f106119a8576101008083540402835291602001916119d3565b820191906000526020600020905b8154815290600101906020018083116119b657829003601f168201915b505050505090508a565b6119e561284d565b6004805469ffffffffffffffffffff60501b1916600160781b64ffffffffff9485160264ffffffffff60501b191617600160501b9290931691909102919091179055565b7f9016d09d72d40fdae2fd8ceac6b6234c7706214fd39c1cd1e609a0528c199300546001600160a01b031690565b611a5f61284d565b600380546fffffffffffffffffffffffffffffffff16600160c01b6001600160401b039485160267ffffffffffffffff60801b191617600160801b9290931691909102919091179055565b60015460009081908190600260ff88161b90611ac690826137fd565b925060025481611ad691906137fd565b9150611ae98264ffffffffff87166137fd565b611af39084613814565b611b049064ffffffffff88166137fd565b600054611b119190613814565b93505093509350939050565b600554604051635f5b248b60e01b81526000916001600160a01b031690635f5b248b90611b5090339085906004016137ba565b602060405180830381865afa158015611b6d573d6000803e3d6000fd5b505050506040513d601f19601f82011682018060405250810190611b919190613637565b611bb05760405163bfc6c33760e01b8152336004820152602401610934565b86600180600083815260086020526040902054600160f81b900460ff166003811115611bde57611bde613378565b14611c1c576000828152600860205260409081902054905163091e2f1760e31b8152610934918491600160f81b90910460ff1690849060040161377b565b6000898152600860205260408120905b60008b815260096020526040902054811015611cae5760008b8152600960205260409020805433919083908110611c6557611c656137a4565b60009182526020909120600590910201546001600160a01b031603611ca6576040516301011bf360e71b8152600481018c9052336024820152604401610934565b600101611c2c565b50611cba8a828b6123de565b60006040518060a00160405280336001600160a01b031681526020018b8152602001600081526020018a8a8080601f016020809104026020016040519081016040528093929190818152602001838380828437600092019190915250505090825250604080516020601f8b0181900481028201810190925289815291810191908a908a908190840183828082843760009201829052509390945250508d815260096020908152604080832080546001808201835591855293839020865160059095020180546001600160a01b0319166001600160a01b0390951694909417845591850151918301919091558301516002820155606083015192935083929091506003820190611dc990826136a1565b5060808201516004820190611dde90826136a1565b50506040513391508c907f6c809136a3b8faf74ae9e955b7e7b758baa66bde976764a29fa74a4eb1e3702e90600090a38154600160c81b900464ffffffffff16600003611e3357611e333383600101546128f0565b815460008c815260096020526040902054600160a01b90910464ffffffffff16148015611ef5578254600160c81b900464ffffffffff16600003611eb55782546001600160f81b0316600360f81b1783556040518c9060008051602061397c83398151915290611ea890600190600390613760565b60405180910390a2611ef5565b82546001600160f81b0316600160f91b1783556040518c9060008051602061397c83398151915290611eec90600190600290613760565b60405180910390a25b505050505050505050505050565b611f0b61284d565b600380546fffffffffffffffffffffffffffffffff1916600160401b6001600160401b039485160267ffffffffffffffff19161791909216179055565b611f5061284d565b600092909255600155600255565b611f6661284d565b6006546001600160a01b031663a9059cbb611f7f611a29565b6006546040516370a0823160e01b81523060048201526001600160a01b03909116906370a0823190602401602060405180830381865afa158015611fc7573d6000803e3d6000fd5b505050506040513d601f19601f82011682018060405250810190611feb919061361e565b6040516001600160e01b031960e085901b1681526001600160a01b03909216600483015260248201526044016020604051808303816000875af1158015612036573d6000803e3d6000fd5b505050506040513d601f19601f8201168201806040525081019061205a9190613637565b50565b7ff0c57e16840df040f15088dc2f81fe391c3923bec73e23a9662efc9c229c6a008054600160401b810460ff1615906001600160401b03166000811580156120a25750825b90506000826001600160401b031660011480156120be5750303b155b9050811580156120cc575080155b156120ea5760405163f92ee8a960e01b815260040160405180910390fd5b845467ffffffffffffffff19166001178555831561211457845460ff60401b1916600160401b1785555b61211d336129e9565b6121288888886129fa565b600580546001600160a01b03808d166001600160a01b03199283161790925560068054928c1692909116919091179055600160075583156121a357845460ff60401b19168555604051600181527fc7f505b2f371ae2175ee4913f4499e1f2633a7b5936321eed1cdaeb6115181d29060200160405180910390a15b50505050505050505050565b6121b761284d565b6004805469ffffffffffffffffffff19166501000000000064ffffffffff9485160264ffffffffff19161791909216179055565b6121f361284d565b6001600160a01b03811661221d57604051631e4fbdf760e01b815260006004820152602401610934565b61205a8161287f565b306001600160a01b037f00000000000000000000000000000000000000000000000000000000000000001614806122ad57507f00000000000000000000000000000000000000000000000000000000000000006001600160a01b03166122a160008051602061395c833981519152546001600160a01b031690565b6001600160a01b031614155b156116a25760405163703e46dd60e11b815260040160405180910390fd5b61205a61284d565b816001600160a01b03166352d1902d6040518163ffffffff1660e01b8152600401602060405180830381865afa92505050801561232d575060408051601f3d908101601f1916820190925261232a9181019061361e565b60015b61235557604051634c9c8ce360e01b81526001600160a01b0383166004820152602401610934565b60008051602061395c833981519152811461238657604051632a87526960e21b815260048101829052602401610934565b6123908383612a47565b505050565b306001600160a01b037f000000000000000000000000000000000000000000000000000000000000000016146116a25760405163703e46dd60e11b815260040160405180910390fd5b815460405160009161240991869160048701916001600160a01b039091169033908790602001613827565b60408051808303601f19018152919052835481516020830120919250600019600160f01b90910460ff161c101561245d576040516306427aeb60e01b81526004810185905260248101839052604401610934565b50505050565b6000818152600860205260408120905b8154600160a01b900464ffffffffff168110156126b7578154600090600160c81b900464ffffffffff166001600160401b038111156124b4576124b4612ed2565b6040519080825280602002602001820160405280156124dd578160200160208202803683370190505b50905060005b8354600160c81b900464ffffffffff1681101561256c576000858152600a6020526040902080548290811061251a5761251a6137a4565b9060005260206000209060040201600201838154811061253c5761253c6137a4565b9060005260206000200154828281518110612559576125596137a4565b60209081029190910101526001016124e3565b5060008061257983612a9d565b9150915060008060005b8754600160c81b900464ffffffffff168110156126515760008682815181106125ae576125ae6137a4565b6020026020010151905085856125c491906138f1565b81101580156125dc57506125d88686613814565b8111155b15612648576125eb8185613814565b9350826125f781613904565b935050612648600a60008c81526020019081526020016000208381548110612621576126216137a4565b600091825260209091206004909102015460028b01546001600160a01b03909116906128f0565b50600101612583565b506000811561266957612664828461391d565b61266c565b60005b60008a81526009602052604090208054919250829189908110612691576126916137a4565b600091825260209091206002600590920201015550506001909401935061247392505050565b508054600090600160a01b900464ffffffffff166001600160401b038111156126e2576126e2612ed2565b60405190808252806020026020018201604052801561270b578160200160208202803683370190505b50905060005b8254600160a01b900464ffffffffff1681101561277f576000848152600960205260409020805482908110612748576127486137a4565b90600052602060002090600502016002015482828151811061276c5761276c6137a4565b6020908102919091010152600101612711565b5060008061278c83612a9d565b9150915060005b8454600160a01b900464ffffffffff16811015612845576003546127c8908490600160c01b90046001600160401b03166137fd565b6127d290836138f1565b8482815181106127e4576127e46137a4565b60200260200101511061283d576000868152600960205260409020805461283d919083908110612816576128166137a4565b600091825260209091206005909102015460018701546001600160a01b03909116906128f0565b600101612793565b505050505050565b33612856611a29565b6001600160a01b0316146116a25760405163118cdaa760e01b8152336004820152602401610934565b7f9016d09d72d40fdae2fd8ceac6b6234c7706214fd39c1cd1e609a0528c19930080546001600160a01b031981166001600160a01b03848116918217845560405192169182907f8be0079c531659141344cd1fd0a4f28419497f9722a3daafe3b4186f6b6457e090600090a3505050565b600654604051636eb1769f60e11b81523060048201526001600160a01b0384811660248301529091169063095ea7b39084908490849063dd62ed3e90604401602060405180830381865afa15801561294c573d6000803e3d6000fd5b505050506040513d601f19601f82011682018060405250810190612970919061361e565b61297a9190613814565b6040516001600160e01b031960e085901b1681526001600160a01b03909216600483015260248201526044016020604051808303816000875af11580156129c5573d6000803e3d6000fd5b505050506040513d601f19601f820116820180604052508101906123909190613637565b6129f1612ac5565b61205a81612b0e565b612a02612ac5565b7801000000000000000200000000000000010000000000000008600355600480546001600160a01b0319166a0a0000000001000000000a179055612390838383611f48565b612a5082612b16565b6040516001600160a01b038316907fbc7cd75a20ee27fd9adebab32041f755214dbc6bffa90cc0225b39da2e5c2d3b90600090a2805115612a95576123908282612b7b565b61124e612bf3565b600080600080612aac85612c12565b91509150809250612abc82612c8a565b93505050915091565b7ff0c57e16840df040f15088dc2f81fe391c3923bec73e23a9662efc9c229c6a0054600160401b900460ff166116a257604051631afcd79f60e31b815260040160405180910390fd5b6121f3612ac5565b806001600160a01b03163b600003612b4c57604051634c9c8ce360e01b81526001600160a01b0382166004820152602401610934565b60008051602061395c83398151915280546001600160a01b0319166001600160a01b0392909216919091179055565b6060600080846001600160a01b031684604051612b98919061393f565b600060405180830381855af49150503d8060008114612bd3576040519150601f19603f3d011682016040523d82523d6000602084013e612bd8565b606091505b5091509150612be8858383612ce3565b925050505b92915050565b34156116a25760405163b398979f60e01b815260040160405180910390fd5b600080612c1e83612d42565b90506000805b8451811015612c7557600083868381518110612c4257612c426137a4565b6020026020010151612c5491906138f1565b9050612c6081806137fd565b612c6a9084613814565b925050600101612c24565b508351612c82908261391d565b925050915091565b6000806002612c9a846001613814565b612ca4919061391d565b90508291505b81811015612cdd57905080600281612cc2818661391d565b612ccc9190613814565b612cd6919061391d565b9050612caa565b50919050565b606082612cf857612cf382612d8c565b612d3b565b8151158015612d0f57506001600160a01b0384163b155b15612d3857604051639996b31560e01b81526001600160a01b0385166004820152602401610934565b50805b9392505050565b600080805b8351811015612d7f57838181518110612d6257612d626137a4565b602002602001015182612d759190613814565b9150600101612d47565b508251612d3b908261391d565b805115612d9c5780518082602001fd5b604051630a12f52160e11b815260040160405180910390fd5b828054828255906000526020600020908101928215612df0579160200282015b82811115612df0578251825591602001919060010190612dd5565b50612dfc929150612e00565b5090565b5b80821115612dfc5760008155600101612e01565b60008060408385031215612e2857600080fd5b50508035926020909101359150565b60005b83811015612e52578181015183820152602001612e3a565b50506000910152565b60008151808452612e73816020860160208601612e37565b601f01601f19169290920160200192915050565b60018060a01b038616815284602082015283604082015260a060608201526000612eb460a0830185612e5b565b8281036080840152612ec68185612e5b565b98975050505050505050565b634e487b7160e01b600052604160045260246000fd5b600082601f830112612ef957600080fd5b81356001600160401b0380821115612f1357612f13612ed2565b604051601f8301601f19908116603f01168101908282118183101715612f3b57612f3b612ed2565b81604052838152866020858801011115612f5457600080fd5b836020870160208301376000602085830101528094505050505092915050565b803560ff81168114612f8557600080fd5b919050565b803564ffffffffff81168114612f8557600080fd5b600080600080600060a08688031215612fb757600080fd5b85356001600160401b0380821115612fce57600080fd5b612fda89838a01612ee8565b96506020880135915080821115612ff057600080fd5b50612ffd88828901612ee8565b94505061300c60408701612f74565b925061301a60608701612f8a565b915061302860808701612f8a565b90509295509295909350565b60006020828403121561304657600080fd5b5035919050565b60018060a01b03815116825260208101516020830152604081015160408301526000606082015160a0606085015261308860a0850182612e5b565b905060808301518482036080860152612be88282612e5b565b602081526000612d3b602083018461304d565b600060208083018184528085518083526040925060408601915060408160051b8701018488016000805b8481101561317657898403603f19018652825180516001600160a01b031685528881015189860152878101516080898701819052815190870181905260a08701918b019085905b808210156131455782518452928c0192918c019160019190910190613125565b505050606080830151925086820381880152506131628183612e5b565b978a019795505050918701916001016130de565b50919998505050505050505050565b60018060a01b03841681528260208201526060604082015260006131ac6060830184612e5b565b95945050505050565b80356001600160a01b0381168114612f8557600080fd5b600080604083850312156131df57600080fd5b6131e8836131b5565b915060208301356001600160401b0381111561320357600080fd5b61320f85828601612ee8565b9150509250929050565b60008083601f84011261322b57600080fd5b5081356001600160401b0381111561324257600080fd5b60208301915083602082850101111561325a57600080fd5b9250929050565b6000806000806000806080878903121561327a57600080fd5b863595506020870135945060408701356001600160401b038082111561329f57600080fd5b818901915089601f8301126132b357600080fd5b8135818111156132c257600080fd5b8a60208260051b85010111156132d757600080fd5b6020830196508095505060608901359150808211156132f557600080fd5b5061330289828a01613219565b979a9699509497509295939492505050565b600060208083016020845280855180835260408601915060408160051b87010192506020870160005b8281101561336b57603f1988860301845261335985835161304d565b9450928501929085019060010161333d565b5092979650505050505050565b634e487b7160e01b600052602160045260246000fd5b6004811061339e5761339e613378565b9052565b6001600160a01b038b16815264ffffffffff8a811660208301528916604082015260ff8816606082015260006101406133de608084018a61338e565b8760a08401528660c08401528560e08401528061010084015261340381840186612e5b565b90508281036101208401526134188185612e5b565b9d9c50505050505050505050505050565b6000806040838503121561343c57600080fd5b61344583612f8a565b915061345360208401612f8a565b90509250929050565b602081526000612d3b6020830184612e5b565b80356001600160401b0381168114612f8557600080fd5b6000806040838503121561349957600080fd5b6134a28361346f565b91506134536020840161346f565b6000806000606084860312156134c557600080fd5b6134ce84612f74565b92506134dc60208501612f8a565b91506134ea60408501612f8a565b90509250925092565b6000806000806000806080878903121561350c57600080fd5b863595506020870135945060408701356001600160401b038082111561353157600080fd5b61353d8a838b01613219565b909650945060608901359150808211156132f557600080fd5b60008060006060848603121561356b57600080fd5b505081359360208301359350604090920135919050565b600080600080600060a0868803121561359a57600080fd5b6135a3866131b5565b94506135b1602087016131b5565b94979496505050506040830135926060810135926080909101359150565b6000602082840312156135e157600080fd5b612d3b826131b5565b600181811c908216806135fe57607f821691505b602082108103612cdd57634e487b7160e01b600052602260045260246000fd5b60006020828403121561363057600080fd5b5051919050565b60006020828403121561364957600080fd5b81518015158114612d3b57600080fd5b601f821115612390576000816000526020600020601f850160051c810160208610156136825750805b601f850160051c820191505b818110156128455782815560010161368e565b81516001600160401b038111156136ba576136ba612ed2565b6136ce816136c884546135ea565b84613659565b602080601f83116001811461370357600084156136eb5750858301515b600019600386901b1c1916600185901b178555612845565b600085815260208120601f198616915b8281101561373257888601518255948401946001909101908401613713565b50858210156137505787850151600019600388901b60f8161c191681555b5050505050600190811b01905550565b6040810161376e828561338e565b612d3b602083018461338e565b8381526060810161378f602083018561338e565b61379c604083018461338e565b949350505050565b634e487b7160e01b600052603260045260246000fd5b6001600160a01b038316815260408101600283106137da576137da613378565b8260208301529392505050565b634e487b7160e01b600052601160045260246000fd5b8082028115828204841417612bed57612bed6137e7565b80820180821115612bed57612bed6137e7565b858152600060206000875461383b816135ea565b60018281168015613853576001811461386c5761389c565b60ff19841688870152821515830288018601945061389c565b8b6000528560002060005b848110156138925781548a8201890152908301908701613877565b5050858389010194505b505050506138bb818860601b6bffffffffffffffffffffffff19169052565b6138d9601482018760601b6bffffffffffffffffffffffff19169052565b84602882015260488101925050509695505050505050565b81810381811115612bed57612bed6137e7565b600060018201613916576139166137e7565b5060010190565b60008261393a57634e487b7160e01b600052601260045260246000fd5b500490565b60008251613951818460208701612e37565b919091019291505056fe360894a13ba1a3210667c828492db98dca3e2076cc3735a920a3ca505d382bbcac0af0707ea9c32cee33737da59bdf6e773158cde23127c18dd99e74af03fd5da2646970667358221220755f399f2feb3f401752148aedbc632fa3c2e759b695ae54c11bc41ce9cd274664736f6c63430008180033",
  "linkReferences": {},
  "deployedLinkReferences": {}
}