{
  "_format": "hh-sol-artifact-1",
  "contractName": "LLMOracleCoordinator",
  "sourceName": "contracts/llm/LLMOracleCoordinator.sol",
  "abi": [
    {
      "inputs": [],
      "stateMutability": "nonpayable",
      "type": "constructor"
    },
    {
      "inputs": [
        {
          "internalType": "address",
          "name": "target",
          "type": "address"
        }
      ],
      "name": "AddressEmptyCode",
      "type": "error"
    },
    {
      "inputs": [
        {
          "internalType": "uint256",
          "name": "taskId",
          "type": "uint256"
        },
        {
          "internalType": "address",
          "name": "oracle",
          "type": "address"
        }
      ],
      "name": "AlreadyResponded",
      "type": "error"
    },
    {
      "inputs": [
        {
          "internalType": "address",
          "name": "implementation",
          "type": "address"
        }
      ],
      "name": "ERC1967InvalidImplementation",
      "type": "error"
    },
    {
      "inputs": [],
      "name": "ERC1967NonPayable",
      "type": "error"
    },
    {
      "inputs": [],
      "name": "FailedInnerCall",
      "type": "error"
    },
    {
      "inputs": [
        {
          "internalType": "uint256",
          "name": "have",
          "type": "uint256"
        },
        {
          "internalType": "uint256",
          "name": "want",
          "type": "uint256"
        }
      ],
      "name": "InsufficientFees",
      "type": "error"
    },
    {
      "inputs": [],
      "name": "InvalidInitialization",
      "type": "error"
    },
    {
      "inputs": [
        {
          "internalType": "uint256",
          "name": "taskId",
          "type": "uint256"
        },
        {
          "internalType": "uint256",
          "name": "nonce",
          "type": "uint256"
        }
      ],
      "name": "InvalidNonce",
      "type": "error"
    },
    {
      "inputs": [
        {
          "internalType": "uint256",
          "name": "have",
          "type": "uint256"
        },
        {
          "internalType": "uint256",
          "name": "min",
          "type": "uint256"
        },
        {
          "internalType": "uint256",
          "name": "max",
          "type": "uint256"
        }
      ],
      "name": "InvalidParameterRange",
      "type": "error"
    },
    {
      "inputs": [
        {
          "internalType": "uint256",
          "name": "taskId",
          "type": "uint256"
        },
        {
          "internalType": "enum LLMOracleTask.TaskStatus",
          "name": "have",
          "type": "uint8"
        },
        {
          "internalType": "enum LLMOracleTask.TaskStatus",
          "name": "want",
          "type": "uint8"
        }
      ],
      "name": "InvalidTaskStatus",
      "type": "error"
    },
    {
      "inputs": [
        {
          "internalType": "uint256",
          "name": "taskId",
          "type": "uint256"
        },
        {
          "internalType": "address",
          "name": "validator",
          "type": "address"
        }
      ],
      "name": "InvalidValidation",
      "type": "error"
    },
    {
      "inputs": [],
      "name": "NotInitializing",
      "type": "error"
    },
    {
      "inputs": [
        {
          "internalType": "address",
          "name": "oracle",
          "type": "address"
        }
      ],
      "name": "NotRegistered",
      "type": "error"
    },
    {
      "inputs": [
        {
          "internalType": "address",
          "name": "owner",
          "type": "address"
        }
      ],
      "name": "OwnableInvalidOwner",
      "type": "error"
    },
    {
      "inputs": [
        {
          "internalType": "address",
          "name": "account",
          "type": "address"
        }
      ],
      "name": "OwnableUnauthorizedAccount",
      "type": "error"
    },
    {
      "inputs": [],
      "name": "UUPSUnauthorizedCallContext",
      "type": "error"
    },
    {
      "inputs": [
        {
          "internalType": "bytes32",
          "name": "slot",
          "type": "bytes32"
        }
      ],
      "name": "UUPSUnsupportedProxiableUUID",
      "type": "error"
    },
    {
      "anonymous": false,
      "inputs": [
        {
          "indexed": false,
          "internalType": "uint64",
          "name": "version",
          "type": "uint64"
        }
      ],
      "name": "Initialized",
      "type": "event"
    },
    {
      "anonymous": false,
      "inputs": [
        {
          "indexed": true,
          "internalType": "address",
          "name": "previousOwner",
          "type": "address"
        },
        {
          "indexed": true,
          "internalType": "address",
          "name": "newOwner",
          "type": "address"
        }
      ],
      "name": "OwnershipTransferred",
      "type": "event"
    },
    {
      "anonymous": false,
      "inputs": [
        {
          "indexed": true,
          "internalType": "uint256",
          "name": "taskId",
          "type": "uint256"
        },
        {
          "indexed": true,
          "internalType": "address",
          "name": "requester",
          "type": "address"
        },
        {
          "indexed": true,
          "internalType": "bytes32",
          "name": "protocol",
          "type": "bytes32"
        }
      ],
      "name": "Request",
      "type": "event"
    },
    {
      "anonymous": false,
      "inputs": [
        {
          "indexed": true,
          "internalType": "uint256",
          "name": "taskId",
          "type": "uint256"
        },
        {
          "indexed": true,
          "internalType": "address",
          "name": "responder",
          "type": "address"
        }
      ],
      "name": "Response",
      "type": "event"
    },
    {
      "anonymous": false,
      "inputs": [
        {
          "indexed": true,
          "internalType": "uint256",
          "name": "taskId",
          "type": "uint256"
        },
        {
          "indexed": true,
          "internalType": "bytes32",
          "name": "protocol",
          "type": "bytes32"
        },
        {
          "indexed": false,
          "internalType": "enum LLMOracleTask.TaskStatus",
          "name": "statusBefore",
          "type": "uint8"
        },
        {
          "indexed": false,
          "internalType": "enum LLMOracleTask.TaskStatus",
          "name": "statusAfter",
          "type": "uint8"
        }
      ],
      "name": "StatusUpdate",
      "type": "event"
    },
    {
      "anonymous": false,
      "inputs": [
        {
          "indexed": true,
          "internalType": "address",
          "name": "implementation",
          "type": "address"
        }
      ],
      "name": "Upgraded",
      "type": "event"
    },
    {
      "anonymous": false,
      "inputs": [
        {
          "indexed": true,
          "internalType": "uint256",
          "name": "taskId",
          "type": "uint256"
        },
        {
          "indexed": true,
          "internalType": "address",
          "name": "validator",
          "type": "address"
        }
      ],
      "name": "Validation",
      "type": "event"
    },
    {
      "inputs": [],
      "name": "UPGRADE_INTERFACE_VERSION",
      "outputs": [
        {
          "internalType": "string",
          "name": "",
          "type": "string"
        }
      ],
      "stateMutability": "view",
      "type": "function"
    },
    {
      "inputs": [],
      "name": "feeToken",
      "outputs": [
        {
          "internalType": "contract ERC20",
          "name": "",
          "type": "address"
        }
      ],
      "stateMutability": "view",
      "type": "function"
    },
    {
      "inputs": [],
      "name": "generationDeviationFactor",
      "outputs": [
        {
          "internalType": "uint64",
          "name": "",
          "type": "uint64"
        }
      ],
      "stateMutability": "view",
      "type": "function"
    },
    {
      "inputs": [],
      "name": "generationFee",
      "outputs": [
        {
          "internalType": "uint256",
          "name": "",
          "type": "uint256"
        }
      ],
      "stateMutability": "view",
      "type": "function"
    },
    {
      "inputs": [
        {
          "internalType": "uint256",
          "name": "taskId",
          "type": "uint256"
        }
      ],
      "name": "getBestResponse",
      "outputs": [
        {
          "components": [
            {
              "internalType": "address",
              "name": "responder",
              "type": "address"
            },
            {
              "internalType": "uint256",
              "name": "nonce",
              "type": "uint256"
            },
            {
              "internalType": "uint256",
              "name": "score",
              "type": "uint256"
            },
            {
              "internalType": "bytes",
              "name": "output",
              "type": "bytes"
            },
            {
              "internalType": "bytes",
              "name": "metadata",
              "type": "bytes"
            }
          ],
          "internalType": "struct LLMOracleTask.TaskResponse",
          "name": "",
          "type": "tuple"
        }
      ],
      "stateMutability": "view",
      "type": "function"
    },
    {
      "inputs": [
        {
          "components": [
            {
              "internalType": "uint8",
              "name": "difficulty",
              "type": "uint8"
            },
            {
              "internalType": "uint40",
              "name": "numGenerations",
              "type": "uint40"
            },
            {
              "internalType": "uint40",
              "name": "numValidations",
              "type": "uint40"
            }
          ],
          "internalType": "struct LLMOracleTaskParameters",
          "name": "parameters",
          "type": "tuple"
        }
      ],
      "name": "getFee",
      "outputs": [
        {
          "internalType": "uint256",
          "name": "totalFee",
          "type": "uint256"
        },
        {
          "internalType": "uint256",
          "name": "generatorFee",
          "type": "uint256"
        },
        {
          "internalType": "uint256",
          "name": "validatorFee",
          "type": "uint256"
        }
      ],
      "stateMutability": "view",
      "type": "function"
    },
    {
      "inputs": [
        {
          "internalType": "uint256",
          "name": "taskId",
          "type": "uint256"
        }
      ],
      "name": "getResponses",
      "outputs": [
        {
          "components": [
            {
              "internalType": "address",
              "name": "responder",
              "type": "address"
            },
            {
              "internalType": "uint256",
              "name": "nonce",
              "type": "uint256"
            },
            {
              "internalType": "uint256",
              "name": "score",
              "type": "uint256"
            },
            {
              "internalType": "bytes",
              "name": "output",
              "type": "bytes"
            },
            {
              "internalType": "bytes",
              "name": "metadata",
              "type": "bytes"
            }
          ],
          "internalType": "struct LLMOracleTask.TaskResponse[]",
          "name": "",
          "type": "tuple[]"
        }
      ],
      "stateMutability": "view",
      "type": "function"
    },
    {
      "inputs": [
        {
          "internalType": "uint256",
          "name": "taskId",
          "type": "uint256"
        }
      ],
      "name": "getValidations",
      "outputs": [
        {
          "components": [
            {
              "internalType": "address",
              "name": "validator",
              "type": "address"
            },
            {
              "internalType": "uint256",
              "name": "nonce",
              "type": "uint256"
            },
            {
              "internalType": "uint256[]",
              "name": "scores",
              "type": "uint256[]"
            },
            {
              "internalType": "bytes",
              "name": "metadata",
              "type": "bytes"
            }
          ],
          "internalType": "struct LLMOracleTask.TaskValidation[]",
          "name": "",
          "type": "tuple[]"
        }
      ],
      "stateMutability": "view",
      "type": "function"
    },
    {
      "inputs": [
        {
          "internalType": "address",
          "name": "_oracleRegistry",
          "type": "address"
        },
        {
          "internalType": "address",
          "name": "_feeToken",
          "type": "address"
        },
        {
          "internalType": "uint256",
          "name": "_platformFee",
          "type": "uint256"
        },
        {
          "internalType": "uint256",
          "name": "_generationFee",
          "type": "uint256"
        },
        {
          "internalType": "uint256",
          "name": "_validationFee",
          "type": "uint256"
        }
      ],
      "name": "initialize",
      "outputs": [],
      "stateMutability": "nonpayable",
      "type": "function"
    },
    {
      "inputs": [],
      "name": "nextTaskId",
      "outputs": [
        {
          "internalType": "uint256",
          "name": "",
          "type": "uint256"
        }
      ],
      "stateMutability": "view",
      "type": "function"
    },
    {
      "inputs": [],
      "name": "owner",
      "outputs": [
        {
          "internalType": "address",
          "name": "",
          "type": "address"
        }
      ],
      "stateMutability": "view",
      "type": "function"
    },
    {
      "inputs": [],
      "name": "platformFee",
      "outputs": [
        {
          "internalType": "uint256",
          "name": "",
          "type": "uint256"
        }
      ],
      "stateMutability": "view",
      "type": "function"
    },
    {
      "inputs": [],
      "name": "proxiableUUID",
      "outputs": [
        {
          "internalType": "bytes32",
          "name": "",
          "type": "bytes32"
        }
      ],
      "stateMutability": "view",
      "type": "function"
    },
    {
      "inputs": [],
      "name": "registry",
      "outputs": [
        {
          "internalType": "contract LLMOracleRegistry",
          "name": "",
          "type": "address"
        }
      ],
      "stateMutability": "view",
      "type": "function"
    },
    {
      "inputs": [],
      "name": "renounceOwnership",
      "outputs": [],
      "stateMutability": "nonpayable",
      "type": "function"
    },
    {
      "inputs": [
        {
          "internalType": "bytes32",
          "name": "protocol",
          "type": "bytes32"
        },
        {
          "internalType": "bytes",
          "name": "input",
          "type": "bytes"
        },
        {
          "internalType": "bytes",
          "name": "models",
          "type": "bytes"
        },
        {
          "components": [
            {
              "internalType": "uint8",
              "name": "difficulty",
              "type": "uint8"
            },
            {
              "internalType": "uint40",
              "name": "numGenerations",
              "type": "uint40"
            },
            {
              "internalType": "uint40",
              "name": "numValidations",
              "type": "uint40"
            }
          ],
          "internalType": "struct LLMOracleTaskParameters",
          "name": "parameters",
          "type": "tuple"
        }
      ],
      "name": "request",
      "outputs": [
        {
          "internalType": "uint256",
          "name": "",
          "type": "uint256"
        }
      ],
      "stateMutability": "nonpayable",
      "type": "function"
    },
    {
      "inputs": [
        {
          "internalType": "uint256",
          "name": "taskId",
          "type": "uint256"
        }
      ],
      "name": "requests",
      "outputs": [
        {
          "internalType": "address",
          "name": "requester",
          "type": "address"
        },
        {
          "internalType": "bytes32",
          "name": "protocol",
          "type": "bytes32"
        },
        {
          "components": [
            {
              "internalType": "uint8",
              "name": "difficulty",
              "type": "uint8"
            },
            {
              "internalType": "uint40",
              "name": "numGenerations",
              "type": "uint40"
            },
            {
              "internalType": "uint40",
              "name": "numValidations",
              "type": "uint40"
            }
          ],
          "internalType": "struct LLMOracleTaskParameters",
          "name": "parameters",
          "type": "tuple"
        },
        {
          "internalType": "enum LLMOracleTask.TaskStatus",
          "name": "status",
          "type": "uint8"
        },
        {
          "internalType": "uint256",
          "name": "generatorFee",
          "type": "uint256"
        },
        {
          "internalType": "uint256",
          "name": "validatorFee",
          "type": "uint256"
        },
        {
          "internalType": "uint256",
          "name": "platformFee",
          "type": "uint256"
        },
        {
          "internalType": "bytes",
          "name": "input",
          "type": "bytes"
        },
        {
          "internalType": "bytes",
          "name": "models",
          "type": "bytes"
        }
      ],
      "stateMutability": "view",
      "type": "function"
    },
    {
      "inputs": [
        {
          "internalType": "uint256",
          "name": "taskId",
          "type": "uint256"
        },
        {
          "internalType": "uint256",
          "name": "nonce",
          "type": "uint256"
        },
        {
          "internalType": "bytes",
          "name": "output",
          "type": "bytes"
        },
        {
          "internalType": "bytes",
          "name": "metadata",
          "type": "bytes"
        }
      ],
      "name": "respond",
      "outputs": [],
      "stateMutability": "nonpayable",
      "type": "function"
    },
    {
      "inputs": [
        {
          "internalType": "uint256",
          "name": "taskId",
          "type": "uint256"
        },
        {
          "internalType": "uint256",
          "name": "",
          "type": "uint256"
        }
      ],
      "name": "responses",
      "outputs": [
        {
          "internalType": "address",
          "name": "responder",
          "type": "address"
        },
        {
          "internalType": "uint256",
          "name": "nonce",
          "type": "uint256"
        },
        {
          "internalType": "uint256",
          "name": "score",
          "type": "uint256"
        },
        {
          "internalType": "bytes",
          "name": "output",
          "type": "bytes"
        },
        {
          "internalType": "bytes",
          "name": "metadata",
          "type": "bytes"
        }
      ],
      "stateMutability": "view",
      "type": "function"
    },
    {
      "inputs": [
        {
          "internalType": "uint64",
          "name": "_generationDeviationFactor",
          "type": "uint64"
        },
        {
          "internalType": "uint64",
          "name": "_validationDeviationFactor",
          "type": "uint64"
        }
      ],
      "name": "setDeviationFactors",
      "outputs": [],
      "stateMutability": "nonpayable",
      "type": "function"
    },
    {
      "inputs": [
        {
          "internalType": "uint256",
          "name": "_platformFee",
          "type": "uint256"
        },
        {
          "internalType": "uint256",
          "name": "_generationFee",
          "type": "uint256"
        },
        {
          "internalType": "uint256",
          "name": "_validationFee",
          "type": "uint256"
        }
      ],
      "name": "setFees",
      "outputs": [],
      "stateMutability": "nonpayable",
      "type": "function"
    },
    {
      "inputs": [
        {
          "components": [
            {
              "internalType": "uint8",
              "name": "difficulty",
              "type": "uint8"
            },
            {
              "internalType": "uint40",
              "name": "numGenerations",
              "type": "uint40"
            },
            {
              "internalType": "uint40",
              "name": "numValidations",
              "type": "uint40"
            }
          ],
          "internalType": "struct LLMOracleTaskParameters",
          "name": "minimums",
          "type": "tuple"
        },
        {
          "components": [
            {
              "internalType": "uint8",
              "name": "difficulty",
              "type": "uint8"
            },
            {
              "internalType": "uint40",
              "name": "numGenerations",
              "type": "uint40"
            },
            {
              "internalType": "uint40",
              "name": "numValidations",
              "type": "uint40"
            }
          ],
          "internalType": "struct LLMOracleTaskParameters",
          "name": "maximums",
          "type": "tuple"
        }
      ],
      "name": "setParameters",
      "outputs": [],
      "stateMutability": "nonpayable",
      "type": "function"
    },
    {
      "inputs": [
        {
          "internalType": "address",
          "name": "newOwner",
          "type": "address"
        }
      ],
      "name": "transferOwnership",
      "outputs": [],
      "stateMutability": "nonpayable",
      "type": "function"
    },
    {
      "inputs": [
        {
          "internalType": "address",
          "name": "newImplementation",
          "type": "address"
        },
        {
          "internalType": "bytes",
          "name": "data",
          "type": "bytes"
        }
      ],
      "name": "upgradeToAndCall",
      "outputs": [],
      "stateMutability": "payable",
      "type": "function"
    },
    {
      "inputs": [
        {
          "internalType": "uint256",
          "name": "taskId",
          "type": "uint256"
        },
        {
          "internalType": "uint256",
          "name": "nonce",
          "type": "uint256"
        },
        {
          "internalType": "uint256[]",
          "name": "scores",
          "type": "uint256[]"
        },
        {
          "internalType": "bytes",
          "name": "metadata",
          "type": "bytes"
        }
      ],
      "name": "validate",
      "outputs": [],
      "stateMutability": "nonpayable",
      "type": "function"
    },
    {
      "inputs": [],
      "name": "validationDeviationFactor",
      "outputs": [
        {
          "internalType": "uint64",
          "name": "",
          "type": "uint64"
        }
      ],
      "stateMutability": "view",
      "type": "function"
    },
    {
      "inputs": [],
      "name": "validationFee",
      "outputs": [
        {
          "internalType": "uint256",
          "name": "",
          "type": "uint256"
        }
      ],
      "stateMutability": "view",
      "type": "function"
    },
    {
      "inputs": [
        {
          "internalType": "uint256",
          "name": "taskId",
          "type": "uint256"
        },
        {
          "internalType": "uint256",
          "name": "",
          "type": "uint256"
        }
      ],
      "name": "validations",
      "outputs": [
        {
          "internalType": "address",
          "name": "validator",
          "type": "address"
        },
        {
          "internalType": "uint256",
          "name": "nonce",
          "type": "uint256"
        },
        {
          "internalType": "bytes",
          "name": "metadata",
          "type": "bytes"
        }
      ],
      "stateMutability": "view",
      "type": "function"
    },
    {
      "inputs": [],
      "name": "withdrawPlatformFees",
      "outputs": [],
      "stateMutability": "nonpayable",
      "type": "function"
    }
  ],
  "bytecode": "0x60a0604052306080523480156200001557600080fd5b506200002062000026565b620000da565b7ff0c57e16840df040f15088dc2f81fe391c3923bec73e23a9662efc9c229c6a00805468010000000000000000900460ff1615620000775760405163f92ee8a960e01b815260040160405180910390fd5b80546001600160401b0390811614620000d75780546001600160401b0319166001600160401b0390811782556040519081527fc7f505b2f371ae2175ee4913f4499e1f2633a7b5936321eed1cdaeb6115181d29060200160405180910390a15b50565b608051613ab362000104600039600081816121b4015281816121dd01526123230152613ab36000f3fe6080604052600436106101c15760003560e01c80638da5cb5b116100f7578063ca287c3511610095578063e76aec1111610064578063e76aec111461057e578063f2fde38b1461059e578063f8bbf27e146105be578063fdc3d8d7146105d457600080fd5b8063ca287c3514610502578063cec10c1114610529578063d0b7830b14610549578063d13f90b41461055e57600080fd5b8063b13fc8f4116100d1578063b13fc8f414610467578063b1b1d93c146104a2578063b584e617146104c2578063b84b8ac7146104e257600080fd5b80638da5cb5b146103dc57806393e0a29c146103f1578063ad3cb1cc1461042957600080fd5b806352d1902d11610164578063715018a61161013e578063715018a61461034557806371ee2ce11461035a5780637b1039991461038757806381d12c58146103a757600080fd5b806352d1902d146102d8578063647846a5146102ed5780636b4d5bfc1461032557600080fd5b806332f77659116101a057806332f776591461023a578063434dbaee146102675780634b5a82d1146102945780634f1ef286146102c357600080fd5b806257efc2146101c65780630566f18a1461020057806326232a2e14610224575b600080fd5b3480156101d257600080fd5b506101e66101e1366004612de1565b6105ea565b6040516101f7959493929190612e53565b60405180910390f35b34801561020c57600080fd5b5061021660015481565b6040519081526020016101f7565b34801561023057600080fd5b5061021660005481565b34801561024657600080fd5b5061025a610255366004612e9e565b610754565b6040516101f79190612f0b565b34801561027357600080fd5b50610287610282366004612e9e565b610a1c565b6040516101f79190612f1e565b3480156102a057600080fd5b506102b46102af366004612de1565b610b8c565b6040516101f793929190612fef565b6102d66102d13660046130dd565b610c62565b005b3480156102e457600080fd5b50610216610c81565b3480156102f957600080fd5b5060075461030d906001600160a01b031681565b6040516001600160a01b0390911681526020016101f7565b34801561033157600080fd5b506102d6610340366004613172565b610c9e565b34801561035157600080fd5b506102d66110c1565b34801561036657600080fd5b5061037a610375366004612e9e565b6110d5565b6040516101f79190613225565b34801561039357600080fd5b5060065461030d906001600160a01b031681565b3480156103b357600080fd5b506103c76103c2366004612e9e565b61128b565b6040516101f7999897969594939291906132b3565b3480156103e857600080fd5b5061030d611430565b3480156103fd57600080fd5b50600354610411906001600160401b031681565b6040516001600160401b0390911681526020016101f7565b34801561043557600080fd5b5061045a604051806040016040528060058152602001640352e302e360dc1b81525081565b6040516101f7919061334e565b34801561047357600080fd5b50610487610482366004613373565b61145e565b604080519384526020840192909252908201526060016101f7565b3480156104ae57600080fd5b506102d66104bd3660046133a6565b6114fd565b3480156104ce57600080fd5b506102d66104dd3660046133d9565b611539565b3480156104ee57600080fd5b506102d66104fd36600461343c565b611921565b34801561050e57600080fd5b5060035461041190600160401b90046001600160401b031681565b34801561053557600080fd5b506102d6610544366004613468565b61194c565b34801561055557600080fd5b506102d6611962565b34801561056a57600080fd5b506102d6610579366004613494565b611a61565b34801561058a57600080fd5b506102166105993660046134e1565b611bb3565b3480156105aa57600080fd5b506102d66105b936600461355f565b61216e565b3480156105ca57600080fd5b5061021660025481565b3480156105e057600080fd5b5061021660085481565b600a602052816000526040600020818154811061060657600080fd5b600091825260209091206005909102018054600182015460028301546003840180546001600160a01b03909416965091945092916106439061357a565b80601f016020809104026020016040519081016040528092919081815260200182805461066f9061357a565b80156106bc5780601f10610691576101008083540402835291602001916106bc565b820191906000526020600020905b81548152906001019060200180831161069f57829003601f168201915b5050505050908060040180546106d19061357a565b80601f01602080910402602001604051908101604052809291908181526020018280546106fd9061357a565b801561074a5780601f1061071f5761010080835404028352916020019161074a565b820191906000526020600020905b81548152906001019060200180831161072d57829003601f168201915b5050505050905085565b61078f6040518060a0016040528060006001600160a01b03168152602001600081526020016000815260200160608152602001606081525090565b6000828152600a60209081526040808320600990925290912060039081015460ff16818111156107c1576107c1613289565b146108055760008381526009602052604090819020600390810154915163091e2f1760e31b81526107fc92869260ff909116916004016135ae565b60405180910390fd5b60008160008154811061081a5761081a6135d7565b60009182526020909120600590910201600281015490915060015b83548110156108ba5781848281548110610851576108516135d7565b90600052602060002090600502016002015411156108b25783818154811061087b5761087b6135d7565b90600052602060002090600502016002015491508381815481106108a1576108a16135d7565b906000526020600020906005020192505b600101610835565b506040805160a08101825283546001600160a01b0316815260018401546020820152600284015491810191909152600383018054849160608401916108fe9061357a565b80601f016020809104026020016040519081016040528092919081815260200182805461092a9061357a565b80156109775780601f1061094c57610100808354040283529160200191610977565b820191906000526020600020905b81548152906001019060200180831161095a57829003601f168201915b505050505081526020016004820180546109909061357a565b80601f01602080910402602001604051908101604052809291908181526020018280546109bc9061357a565b8015610a095780601f106109de57610100808354040283529160200191610a09565b820191906000526020600020905b8154815290600101906020018083116109ec57829003601f168201915b5050505050815250509350505050919050565b6060600b6000838152602001908152602001600020805480602002602001604051908101604052809291908181526020016000905b82821015610b81576000848152602090819020604080516080810182526004860290920180546001600160a01b031683526001810154838501526002810180548351818702810187018552818152949592949386019392830182828015610ad757602002820191906000526020600020905b815481526020019060010190808311610ac3575b50505050508152602001600382018054610af09061357a565b80601f0160208091040260200160405190810160405280929190818152602001828054610b1c9061357a565b8015610b695780601f10610b3e57610100808354040283529160200191610b69565b820191906000526020600020905b815481529060010190602001808311610b4c57829003601f168201915b50505050508152505081526020019060010190610a51565b505050509050919050565b600b6020528160005260406000208181548110610ba857600080fd5b60009182526020909120600490910201805460018201546003830180546001600160a01b03909316955090935090610bdf9061357a565b80601f0160208091040260200160405190810160405280929190818152602001828054610c0b9061357a565b8015610c585780601f10610c2d57610100808354040283529160200191610c58565b820191906000526020600020905b815481529060010190602001808311610c3b57829003601f168201915b5050505050905083565b610c6a6121a9565b610c738261224e565b610c7d8282612256565b5050565b6000610c8b612318565b50600080516020613a5e83398151915290565b600654604051635f5b248b60e01b81526001916001600160a01b031690635f5b248b90610cd190339085906004016135ed565b602060405180830381865afa158015610cee573d6000803e3d6000fd5b505050506040513d601f19601f82011682018060405250810190610d12919061361a565b610d315760405163bfc6c33760e01b81523360048201526024016107fc565b86600280600083815260096020526040902060039081015460ff1690811115610d5c57610d5c613289565b14610d97576000828152600960205260409081902060030154905163091e2f1760e31b81526107fc91849160ff9091169084906004016135ae565b60008981526009602052604090206002810154610100900464ffffffffff168714610dde576040516355c56a4560e11b8152600481018b90523360248201526044016107fc565b60005b6002820154610100900464ffffffffff16811015610e655760008b8152600a60205260409020805433919083908110610e1c57610e1c6135d7565b60009182526020909120600590910201546001600160a01b031603610e5d576040516301011bf360e71b8152600481018c90523360248201526044016107fc565b600101610de1565b5060005b60008b8152600b6020526040902054811015610eeb5760008b8152600b60205260409020805433919083908110610ea257610ea26135d7565b60009182526020909120600490910201546001600160a01b031603610ee3576040516301011bf360e71b8152600481018c90523360248201526044016107fc565b600101610e69565b50610ef78a828b612361565b600b60008b81526020019081526020016000206040518060800160405280336001600160a01b031681526020018b81526020018a8a80806020026020016040519081016040528093929190818152602001838360200280828437600092019190915250505090825250604080516020601f8b0181900481028201810190925289815291810191908a908a90819084018382808284376000920182905250939094525050835460018082018655948252602091829020845160049092020180546001600160a01b0319166001600160a01b03909216919091178155838201519481019490945560408301518051939493610ffa935060028501929190910190612d81565b506060820151600382019061100f9082613684565b50506040513391508b907fa1afe65d2285036595be8f15025c4421a593141666e15e5a980e742920646b1e90600090a3600281015460008b8152600b6020526040902054600160301b90910464ffffffffff161480156110b4576003828101805460ff1916600183021790555081600101548b600080516020613a3e833981519152600260036040516110a3929190613743565b60405180910390a36110b48b6123dd565b5050505050505050505050565b6110c96127d4565b6110d36000612806565b565b6060600a6000838152602001908152602001600020805480602002602001604051908101604052809291908181526020016000905b82821015610b815760008481526020908190206040805160a0810182526005860290920180546001600160a01b031683526001810154938301939093526002830154908201526003820180549192916060840191906111689061357a565b80601f01602080910402602001604051908101604052809291908181526020018280546111949061357a565b80156111e15780601f106111b6576101008083540402835291602001916111e1565b820191906000526020600020905b8154815290600101906020018083116111c457829003601f168201915b505050505081526020016004820180546111fa9061357a565b80601f01602080910402602001604051908101604052809291908181526020018280546112269061357a565b80156112735780601f1061124857610100808354040283529160200191611273565b820191906000526020600020905b81548152906001019060200180831161125657829003601f168201915b5050505050815250508152602001906001019061110a565b600960209081526000918252604091829020805460018201548451606081018652600284015460ff808216835264ffffffffff6101008304811697840197909752600160301b9091049095169581019590955260038301546004840154600585015460068601546007870180546001600160a01b039097169995989597949095169592949193909290919061131f9061357a565b80601f016020809104026020016040519081016040528092919081815260200182805461134b9061357a565b80156113985780601f1061136d57610100808354040283529160200191611398565b820191906000526020600020905b81548152906001019060200180831161137b57829003601f168201915b5050505050908060080180546113ad9061357a565b80601f01602080910402602001604051908101604052809291908181526020018280546113d99061357a565b80156114265780601f106113fb57610100808354040283529160200191611426565b820191906000526020600020905b81548152906001019060200180831161140957829003601f168201915b5050505050905089565b7f9016d09d72d40fdae2fd8ceac6b6234c7706214fd39c1cd1e609a0528c199300546001600160a01b031690565b6000808080611470602086018661376d565b60ff166002901b90506001548161148791906137a0565b92506002548161149791906137a0565b9150816114aa60608701604088016137ca565b64ffffffffff166114bb91906137a0565b6114c590846137e7565b6114d560408701602088016137ca565b64ffffffffff166114e691906137a0565b6000546114f391906137e7565b9350509193909250565b6115056127d4565b600380546001600160801b031916600160401b6001600160401b039485160267ffffffffffffffff19161791909216179055565b600654604051635f5b248b60e01b81526000916001600160a01b031690635f5b248b9061156c90339085906004016135ed565b602060405180830381865afa158015611589573d6000803e3d6000fd5b505050506040513d601f19601f820116820180604052508101906115ad919061361a565b6115cc5760405163bfc6c33760e01b81523360048201526024016107fc565b86600180600083815260096020526040902060039081015460ff16908111156115f7576115f7613289565b14611632576000828152600960205260409081902060030154905163091e2f1760e31b81526107fc91849160ff9091169084906004016135ae565b6000898152600960205260408120905b60008b8152600a60205260409020548110156116c45760008b8152600a6020526040902080543391908390811061167b5761167b6135d7565b60009182526020909120600590910201546001600160a01b0316036116bc576040516301011bf360e71b8152600481018c90523360248201526044016107fc565b600101611642565b506116d08a828b612361565b60006040518060a00160405280336001600160a01b031681526020018b8152602001600081526020018a8a8080601f016020809104026020016040519081016040528093929190818152602001838380828437600092019190915250505090825250604080516020601f8b0181900481028201810190925289815291810191908a908a908190840183828082843760009201829052509390945250508d8152600a6020908152604080832080546001808201835591855293839020865160059095020180546001600160a01b0319166001600160a01b03909516949094178455918501519183019190915583015160028201556060830151929350839290915060038201906117df9082613684565b50608082015160048201906117f49082613684565b50506040513391508c907f6c809136a3b8faf74ae9e955b7e7b758baa66bde976764a29fa74a4eb1e3702e90600090a36002820154600160301b900464ffffffffff1660000361184c5761184c338360040154612877565b600282015460008c8152600a602052604090205461010090910464ffffffffff16148015611913576002830154600160301b900464ffffffffff166000036118d1576003838101805460ff19168217905560018085015460405190928f92600080516020613a3e833981519152926118c49290613743565b60405180910390a3611913565b60038301805460ff1916600290811790915560018085015460405190928f92600080516020613a3e8339815191529261190a9290613743565b60405180910390a35b505050505050505050505050565b6119296127d4565b81600461193682826137fa565b50819050600561194682826137fa565b50505050565b6119546127d4565b600092909255600155600255565b61196a6127d4565b6007546001600160a01b031663a9059cbb611983611430565b6007546040516370a0823160e01b81523060048201526001600160a01b03909116906370a0823190602401602060405180830381865afa1580156119cb573d6000803e3d6000fd5b505050506040513d601f19601f820116820180604052508101906119ef919061387f565b6040516001600160e01b031960e085901b1681526001600160a01b03909216600483015260248201526044016020604051808303816000875af1158015611a3a573d6000803e3d6000fd5b505050506040513d601f19601f82011682018060405250810190611a5e919061361a565b50565b7ff0c57e16840df040f15088dc2f81fe391c3923bec73e23a9662efc9c229c6a008054600160401b810460ff1615906001600160401b0316600081158015611aa65750825b90506000826001600160401b03166001148015611ac25750303b155b905081158015611ad0575080155b15611aee5760405163f92ee8a960e01b815260040160405180910390fd5b845467ffffffffffffffff191660011785558315611b1857845460ff60401b1916600160401b1785555b611b2133612970565b611b2c888888612981565b600680546001600160a01b03808d166001600160a01b03199283161790925560078054928c169290911691909117905560016008558315611ba757845460ff60401b19168555604051600181527fc7f505b2f371ae2175ee4913f4499e1f2633a7b5936321eed1cdaeb6115181d29060200160405180910390a15b50505050505050505050565b600454600090829060ff16611bcb602083018361376d565b60ff161080611bed575060055460ff16611be8602083018361376d565b60ff16115b15611c3857611bff602082018261376d565b600480546005546040516371a6675960e11b815260ff9485169381019390935290831660248301529190911660448201526064016107fc565b600454610100900464ffffffffff16611c5760408301602084016137ca565b64ffffffffff161080611c8d5750600554610100900464ffffffffff16611c8460408301602084016137ca565b64ffffffffff16115b15611ce557611ca260408201602083016137ca565b600480546005546040516371a6675960e11b815264ffffffffff9485169381019390935261010091829004841660248401520490911660448201526064016107fc565b600454600160301b900464ffffffffff16611d0660608301604084016137ca565b64ffffffffff161080611d3e5750600554600160301b900464ffffffffff16611d3560608301604084016137ca565b64ffffffffff16115b15611d9857611d5360608201604083016137ca565b600480546005546040516371a6675960e11b815264ffffffffff94851693810193909352600160301b91829004841660248401520490911660448201526064016107fc565b6000806000611da68661145e565b600754604051636eb1769f60e11b815233600482015230602482015293965091945092506000916001600160a01b039091169063dd62ed3e90604401602060405180830381865afa158015611dff573d6000803e3d6000fd5b505050506040513d601f19601f82011682018060405250810190611e23919061387f565b905083811015611e50576040516311e9ebaf60e31b815260048101829052602481018590526044016107fc565b6007546040516370a0823160e01b81523360048201526000916001600160a01b0316906370a0823190602401602060405180830381865afa158015611e99573d6000803e3d6000fd5b505050506040513d601f19601f82011682018060405250810190611ebd919061387f565b905084811015611eea576040516311e9ebaf60e31b815260048101829052602481018690526044016107fc565b6007546040516323b872dd60e01b8152336004820152306024820152604481018790526001600160a01b03909116906323b872dd906064016020604051808303816000875af1158015611f41573d6000803e3d6000fd5b505050506040513d601f19601f82011682018060405250810190611f65919061361a565b5060088054600181019091556040518c90339083907f7f371482986a3450b759cc4a079353a8eaa36a650b5eba1fb9c00693026f254a90600090a46040805161012081018252338152602081018e9052908101611fc7368c90038c018c613898565b81526020016001815260200186815260200185815260200160005481526020018c81526020018b8152506009600083815260200190815260200160002060008201518160000160006101000a8154816001600160a01b0302191690836001600160a01b031602179055506020820151816001015560408201518160020160008201518160000160006101000a81548160ff021916908360ff16021790555060208201518160000160016101000a81548164ffffffffff021916908364ffffffffff16021790555060408201518160000160066101000a81548164ffffffffff021916908364ffffffffff160217905550505060608201518160030160006101000a81548160ff021916908360038111156120e3576120e3613289565b02179055506080820151600482015560a0820151600582015560c0820151600682015560e0820151600782019061211a9082613684565b5061010082015160088201906121309082613684565b509050508b81600080516020613a3e83398151915260006001604051612157929190613743565b60405180910390a39b9a5050505050505050505050565b6121766127d4565b6001600160a01b0381166121a057604051631e4fbdf760e01b8152600060048201526024016107fc565b611a5e81612806565b306001600160a01b037f000000000000000000000000000000000000000000000000000000000000000016148061223057507f00000000000000000000000000000000000000000000000000000000000000006001600160a01b0316612224600080516020613a5e833981519152546001600160a01b031690565b6001600160a01b031614155b156110d35760405163703e46dd60e11b815260040160405180910390fd5b611a5e6127d4565b816001600160a01b03166352d1902d6040518163ffffffff1660e01b8152600401602060405180830381865afa9250505080156122b0575060408051601f3d908101601f191682019092526122ad9181019061387f565b60015b6122d857604051634c9c8ce360e01b81526001600160a01b03831660048201526024016107fc565b600080516020613a5e833981519152811461230957604051632a87526960e21b8152600481018290526024016107fc565b6123138383612a13565b505050565b306001600160a01b037f000000000000000000000000000000000000000000000000000000000000000016146110d35760405163703e46dd60e11b815260040160405180910390fd5b815460405160009161238c91869160078701916001600160a01b039091169033908790602001613909565b60408051601f1981840301815291905260028401548151602083012091925060001960ff9091161c1015611946576040516306427aeb60e01b815260048101859052602481018390526044016107fc565b6000818152600960205260408120905b6002820154610100900464ffffffffff1681101561263b576002820154600090600160301b900464ffffffffff166001600160401b038111156124325761243261303b565b60405190808252806020026020018201604052801561245b578160200160208202803683370190505b50905060005b6002840154600160301b900464ffffffffff168110156124ed576000858152600b6020526040902080548290811061249b5761249b6135d7565b906000526020600020906004020160020183815481106124bd576124bd6135d7565b90600052602060002001548282815181106124da576124da6135d7565b6020908102919091010152600101612461565b506000806124fa83612a69565b9150915060008060005b6002880154600160301b900464ffffffffff168110156125d5576000868281518110612532576125326135d7565b60200260200101519050858561254891906139d3565b8110158015612560575061255c86866137e7565b8111155b156125cc5761256f81856137e7565b93508261257b816139e6565b9350506125cc600b60008c815260200190815260200160002083815481106125a5576125a56135d7565b600091825260209091206004909102015460058b01546001600160a01b0390911690612877565b50600101612504565b50600081156125ed576125e882846139ff565b6125f0565b60005b60008a8152600a602052604090208054919250829189908110612615576126156135d7565b60009182526020909120600260059092020101555050600190940193506123ed92505050565b506002810154600090610100900464ffffffffff166001600160401b038111156126675761266761303b565b604051908082528060200260200182016040528015612690578160200160208202803683370190505b50905060005b6002830154610100900464ffffffffff16811015612705576000848152600a602052604090208054829081106126ce576126ce6135d7565b9060005260206000209060050201600201548282815181106126f2576126f26135d7565b6020908102919091010152600101612696565b5060008061271283612a69565b9150915060005b6002850154610100900464ffffffffff168110156127cc5760035461274f908490600160401b90046001600160401b03166137a0565b61275990836139d3565b84828151811061276b5761276b6135d7565b6020026020010151106127c4576000868152600a6020526040902080546127c491908390811061279d5761279d6135d7565b600091825260209091206005909102015460048701546001600160a01b0390911690612877565b600101612719565b505050505050565b336127dd611430565b6001600160a01b0316146110d35760405163118cdaa760e01b81523360048201526024016107fc565b7f9016d09d72d40fdae2fd8ceac6b6234c7706214fd39c1cd1e609a0528c19930080546001600160a01b031981166001600160a01b03848116918217845560405192169182907f8be0079c531659141344cd1fd0a4f28419497f9722a3daafe3b4186f6b6457e090600090a3505050565b600754604051636eb1769f60e11b81523060048201526001600160a01b0384811660248301529091169063095ea7b39084908490849063dd62ed3e90604401602060405180830381865afa1580156128d3573d6000803e3d6000fd5b505050506040513d601f19601f820116820180604052508101906128f7919061387f565b61290191906137e7565b6040516001600160e01b031960e085901b1681526001600160a01b03909216600483015260248201526044016020604051808303816000875af115801561294c573d6000803e3d6000fd5b505050506040513d601f19601f82011682018060405250810190612313919061361a565b612978612a91565b611a5e81612ada565b612989612a91565b60408051606080820183526001808352602080840191909152600092840192909252600480546101016affffffffffffffffffffff199182161790915583519182018452600a80835292820183905292015260058054909116660a000000000a0a179055600380546001600160801b0319166801000000000000000217905561231383838361194c565b612a1c82612ae2565b6040516001600160a01b038316907fbc7cd75a20ee27fd9adebab32041f755214dbc6bffa90cc0225b39da2e5c2d3b90600090a2805115612a61576123138282612b47565b610c7d612bbf565b600080600080612a7885612bde565b91509150809250612a8882612c56565b93505050915091565b7ff0c57e16840df040f15088dc2f81fe391c3923bec73e23a9662efc9c229c6a0054600160401b900460ff166110d357604051631afcd79f60e31b815260040160405180910390fd5b612176612a91565b806001600160a01b03163b600003612b1857604051634c9c8ce360e01b81526001600160a01b03821660048201526024016107fc565b600080516020613a5e83398151915280546001600160a01b0319166001600160a01b0392909216919091179055565b6060600080846001600160a01b031684604051612b649190613a21565b600060405180830381855af49150503d8060008114612b9f576040519150601f19603f3d011682016040523d82523d6000602084013e612ba4565b606091505b5091509150612bb4858383612caf565b925050505b92915050565b34156110d35760405163b398979f60e01b815260040160405180910390fd5b600080612bea83612d0e565b90506000805b8451811015612c4157600083868381518110612c0e57612c0e6135d7565b6020026020010151612c2091906139d3565b9050612c2c81806137a0565b612c3690846137e7565b925050600101612bf0565b508351612c4e90826139ff565b925050915091565b6000806002612c668460016137e7565b612c7091906139ff565b90508291505b81811015612ca957905080600281612c8e81866139ff565b612c9891906137e7565b612ca291906139ff565b9050612c76565b50919050565b606082612cc457612cbf82612d58565b612d07565b8151158015612cdb57506001600160a01b0384163b155b15612d0457604051639996b31560e01b81526001600160a01b03851660048201526024016107fc565b50805b9392505050565b600080805b8351811015612d4b57838181518110612d2e57612d2e6135d7565b602002602001015182612d4191906137e7565b9150600101612d13565b508251612d0790826139ff565b805115612d685780518082602001fd5b604051630a12f52160e11b815260040160405180910390fd5b828054828255906000526020600020908101928215612dbc579160200282015b82811115612dbc578251825591602001919060010190612da1565b50612dc8929150612dcc565b5090565b5b80821115612dc85760008155600101612dcd565b60008060408385031215612df457600080fd5b50508035926020909101359150565b60005b83811015612e1e578181015183820152602001612e06565b50506000910152565b60008151808452612e3f816020860160208601612e03565b601f01601f19169290920160200192915050565b60018060a01b038616815284602082015283604082015260a060608201526000612e8060a0830185612e27565b8281036080840152612e928185612e27565b98975050505050505050565b600060208284031215612eb057600080fd5b5035919050565b60018060a01b03815116825260208101516020830152604081015160408301526000606082015160a06060850152612ef260a0850182612e27565b905060808301518482036080860152612bb48282612e27565b602081526000612d076020830184612eb7565b600060208083018184528085518083526040925060408601915060408160051b8701018488016000805b84811015612fe057898403603f19018652825180516001600160a01b031685528881015189860152878101516080898701819052815190870181905260a08701918b019085905b80821015612faf5782518452928c0192918c019160019190910190612f8f565b50505060608083015192508682038188015250612fcc8183612e27565b978a01979550505091870191600101612f48565b50919998505050505050505050565b60018060a01b03841681528260208201526060604082015260006130166060830184612e27565b95945050505050565b80356001600160a01b038116811461303657600080fd5b919050565b634e487b7160e01b600052604160045260246000fd5b600082601f83011261306257600080fd5b81356001600160401b038082111561307c5761307c61303b565b604051601f8301601f19908116603f011681019082821181831017156130a4576130a461303b565b816040528381528660208588010111156130bd57600080fd5b836020870160208301376000602085830101528094505050505092915050565b600080604083850312156130f057600080fd5b6130f98361301f565b915060208301356001600160401b0381111561311457600080fd5b61312085828601613051565b9150509250929050565b60008083601f84011261313c57600080fd5b5081356001600160401b0381111561315357600080fd5b60208301915083602082850101111561316b57600080fd5b9250929050565b6000806000806000806080878903121561318b57600080fd5b863595506020870135945060408701356001600160401b03808211156131b057600080fd5b818901915089601f8301126131c457600080fd5b8135818111156131d357600080fd5b8a60208260051b85010111156131e857600080fd5b60208301965080955050606089013591508082111561320657600080fd5b5061321389828a0161312a565b979a9699509497509295939492505050565b600060208083016020845280855180835260408601915060408160051b87010192506020870160005b8281101561327c57603f1988860301845261326a858351612eb7565b9450928501929085019060010161324e565b5092979650505050505050565b634e487b7160e01b600052602160045260246000fd5b600481106132af576132af613289565b9052565b6001600160a01b038a16815260208082018a9052885160ff166040808401919091529089015164ffffffffff908116606084015290890151166080820152600061016061330360a084018a61329f565b8760c08401528660e0840152856101008401528061012084015261332981840186612e27565b905082810361014084015261333e8185612e27565b9c9b505050505050505050505050565b602081526000612d076020830184612e27565b600060608284031215612ca957600080fd5b60006060828403121561338557600080fd5b612d078383613361565b80356001600160401b038116811461303657600080fd5b600080604083850312156133b957600080fd5b6133c28361338f565b91506133d06020840161338f565b90509250929050565b600080600080600080608087890312156133f257600080fd5b863595506020870135945060408701356001600160401b038082111561341757600080fd5b6134238a838b0161312a565b9096509450606089013591508082111561320657600080fd5b60008060c0838503121561344f57600080fd5b6134598484613361565b91506133d08460608501613361565b60008060006060848603121561347d57600080fd5b505081359360208301359350604090920135919050565b600080600080600060a086880312156134ac57600080fd5b6134b58661301f565b94506134c36020870161301f565b94979496505050506040830135926060810135926080909101359150565b60008060008060c085870312156134f757600080fd5b8435935060208501356001600160401b038082111561351557600080fd5b61352188838901613051565b9450604087013591508082111561353757600080fd5b5061354487828801613051565b9250506135548660608701613361565b905092959194509250565b60006020828403121561357157600080fd5b612d078261301f565b600181811c9082168061358e57607f821691505b602082108103612ca957634e487b7160e01b600052602260045260246000fd5b838152606081016135c2602083018561329f565b6135cf604083018461329f565b949350505050565b634e487b7160e01b600052603260045260246000fd5b6001600160a01b0383168152604081016002831061360d5761360d613289565b8260208301529392505050565b60006020828403121561362c57600080fd5b81518015158114612d0757600080fd5b601f821115612313576000816000526020600020601f850160051c810160208610156136655750805b601f850160051c820191505b818110156127cc57828155600101613671565b81516001600160401b0381111561369d5761369d61303b565b6136b1816136ab845461357a565b8461363c565b602080601f8311600181146136e657600084156136ce5750858301515b600019600386901b1c1916600185901b1785556127cc565b600085815260208120601f198616915b82811015613715578886015182559484019460019091019084016136f6565b50858210156137335787850151600019600388901b60f8161c191681555b5050505050600190811b01905550565b60408101613751828561329f565b612d07602083018461329f565b60ff81168114611a5e57600080fd5b60006020828403121561377f57600080fd5b8135612d078161375e565b634e487b7160e01b600052601160045260246000fd5b8082028115828204841417612bb957612bb961378a565b64ffffffffff81168114611a5e57600080fd5b6000602082840312156137dc57600080fd5b8135612d07816137b7565b80820180821115612bb957612bb961378a565b81356138058161375e565b60ff8116905081548160ff1982161783556020840135613824816137b7565b65ffffffffff008160081b169050808365ffffffffffff198416171784556040850135613850816137b7565b6affffffffff0000000000008160301b16846affffffffffffffffffffff198516178317178555505050505050565b60006020828403121561389157600080fd5b5051919050565b6000606082840312156138aa57600080fd5b604051606081018181106001600160401b03821117156138cc576138cc61303b565b60405282356138da8161375e565b815260208301356138ea816137b7565b602082015260408301356138fd816137b7565b60408201529392505050565b858152600060206000875461391d8161357a565b60018281168015613935576001811461394e5761397e565b60ff19841688870152821515830288018601945061397e565b8b6000528560002060005b848110156139745781548a8201890152908301908701613959565b5050858389010194505b5050505061399d818860601b6bffffffffffffffffffffffff19169052565b6139bb601482018760601b6bffffffffffffffffffffffff19169052565b84602882015260488101925050509695505050505050565b81810381811115612bb957612bb961378a565b6000600182016139f8576139f861378a565b5060010190565b600082613a1c57634e487b7160e01b600052601260045260246000fd5b500490565b60008251613a33818460208701612e03565b919091019291505056fe1c0a5e4b371d60717068c91e93b5e94c91d4c6d6c3fab36082a78f987e5a69f5360894a13ba1a3210667c828492db98dca3e2076cc3735a920a3ca505d382bbca2646970667358221220f26ebe49138ca2fecd8d7751eff91712f900d80614eaaac152ac83eb1a19781564736f6c63430008180033",
  "linkReferences": {},
  "deployedLinkReferences": {}
}