{
  "_format": "hh-sol-artifact-1",
  "contractName": "LLMOracleCoordinator",
  "sourceName": "contracts/llm/LLMOracleCoordinator.sol",
  "abi": [
    {
      "inputs": [
        {
          "internalType": "address",
          "name": "_oracleRegistry",
          "type": "address"
        },
        {
          "internalType": "address",
          "name": "_feeToken",
          "type": "address"
        },
        {
          "internalType": "uint256",
          "name": "_platformFee",
          "type": "uint256"
        },
        {
          "internalType": "uint256",
          "name": "_generationFee",
          "type": "uint256"
        },
        {
          "internalType": "uint256",
          "name": "_validationFee",
          "type": "uint256"
        }
      ],
      "stateMutability": "nonpayable",
      "type": "constructor"
    },
    {
      "inputs": [
        {
          "internalType": "uint256",
          "name": "taskId",
          "type": "uint256"
        },
        {
          "internalType": "address",
          "name": "oracle",
          "type": "address"
        }
      ],
      "name": "AlreadyResponded",
      "type": "error"
    },
    {
      "inputs": [
        {
          "internalType": "uint256",
          "name": "given",
          "type": "uint256"
        },
        {
          "internalType": "uint256",
          "name": "required",
          "type": "uint256"
        }
      ],
      "name": "InsufficientRewards",
      "type": "error"
    },
    {
      "inputs": [
        {
          "internalType": "uint8",
          "name": "difficulty",
          "type": "uint8"
        }
      ],
      "name": "InvalidDifficulty",
      "type": "error"
    },
    {
      "inputs": [
        {
          "internalType": "uint256",
          "name": "taskId",
          "type": "uint256"
        },
        {
          "internalType": "uint256",
          "name": "nonce",
          "type": "uint256"
        }
      ],
      "name": "InvalidNonce",
      "type": "error"
    },
    {
      "inputs": [
        {
          "internalType": "uint40",
          "name": "numGenerations",
          "type": "uint40"
        }
      ],
      "name": "InvalidNumGenerations",
      "type": "error"
    },
    {
      "inputs": [
        {
          "internalType": "uint40",
          "name": "numValidations",
          "type": "uint40"
        }
      ],
      "name": "InvalidNumValidations",
      "type": "error"
    },
    {
      "inputs": [
        {
          "internalType": "uint256",
          "name": "taskId",
          "type": "uint256"
        },
        {
          "internalType": "enum LLMOracleTask.TaskStatus",
          "name": "have",
          "type": "uint8"
        },
        {
          "internalType": "enum LLMOracleTask.TaskStatus",
          "name": "want",
          "type": "uint8"
        }
      ],
      "name": "InvalidTaskStatus",
      "type": "error"
    },
    {
      "inputs": [
        {
          "internalType": "uint256",
          "name": "taskId",
          "type": "uint256"
        },
        {
          "internalType": "address",
          "name": "validator",
          "type": "address"
        }
      ],
      "name": "InvalidValidation",
      "type": "error"
    },
    {
      "inputs": [
        {
          "internalType": "address",
          "name": "oracle",
          "type": "address"
        }
      ],
      "name": "NotRegistered",
      "type": "error"
    },
    {
      "inputs": [
        {
          "internalType": "address",
          "name": "owner",
          "type": "address"
        }
      ],
      "name": "OwnableInvalidOwner",
      "type": "error"
    },
    {
      "inputs": [
        {
          "internalType": "address",
          "name": "account",
          "type": "address"
        }
      ],
      "name": "OwnableUnauthorizedAccount",
      "type": "error"
    },
    {
      "anonymous": false,
      "inputs": [
        {
          "indexed": true,
          "internalType": "address",
          "name": "previousOwner",
          "type": "address"
        },
        {
          "indexed": true,
          "internalType": "address",
          "name": "newOwner",
          "type": "address"
        }
      ],
      "name": "OwnershipTransferred",
      "type": "event"
    },
    {
      "anonymous": false,
      "inputs": [
        {
          "indexed": true,
          "internalType": "uint256",
          "name": "taskId",
          "type": "uint256"
        },
        {
          "indexed": true,
          "internalType": "address",
          "name": "requester",
          "type": "address"
        }
      ],
      "name": "Request",
      "type": "event"
    },
    {
      "anonymous": false,
      "inputs": [
        {
          "indexed": true,
          "internalType": "uint256",
          "name": "taskId",
          "type": "uint256"
        },
        {
          "indexed": true,
          "internalType": "address",
          "name": "responder",
          "type": "address"
        }
      ],
      "name": "Response",
      "type": "event"
    },
    {
      "anonymous": false,
      "inputs": [
        {
          "indexed": true,
          "internalType": "uint256",
          "name": "taskId",
          "type": "uint256"
        },
        {
          "indexed": false,
          "internalType": "enum LLMOracleTask.TaskStatus",
          "name": "statusBefore",
          "type": "uint8"
        },
        {
          "indexed": false,
          "internalType": "enum LLMOracleTask.TaskStatus",
          "name": "statusAfter",
          "type": "uint8"
        }
      ],
      "name": "StatusUpdate",
      "type": "event"
    },
    {
      "anonymous": false,
      "inputs": [
        {
          "indexed": true,
          "internalType": "uint256",
          "name": "taskId",
          "type": "uint256"
        },
        {
          "indexed": true,
          "internalType": "address",
          "name": "validator",
          "type": "address"
        }
      ],
      "name": "Validation",
      "type": "event"
    },
    {
      "inputs": [],
      "name": "feeToken",
      "outputs": [
        {
          "internalType": "contract ERC20",
          "name": "",
          "type": "address"
        }
      ],
      "stateMutability": "view",
      "type": "function"
    },
    {
      "inputs": [],
      "name": "generationDeviationFactor",
      "outputs": [
        {
          "internalType": "uint64",
          "name": "",
          "type": "uint64"
        }
      ],
      "stateMutability": "view",
      "type": "function"
    },
    {
      "inputs": [],
      "name": "generationFee",
      "outputs": [
        {
          "internalType": "uint256",
          "name": "",
          "type": "uint256"
        }
      ],
      "stateMutability": "view",
      "type": "function"
    },
    {
      "inputs": [
        {
          "internalType": "uint8",
          "name": "difficulty",
          "type": "uint8"
        },
        {
          "internalType": "uint40",
          "name": "numGenerations",
          "type": "uint40"
        },
        {
          "internalType": "uint40",
          "name": "numValidations",
          "type": "uint40"
        }
      ],
      "name": "getFee",
      "outputs": [
        {
          "internalType": "uint256",
          "name": "totalFee",
          "type": "uint256"
        },
        {
          "internalType": "uint256",
          "name": "generatorFee",
          "type": "uint256"
        },
        {
          "internalType": "uint256",
          "name": "validatorFee",
          "type": "uint256"
        }
      ],
      "stateMutability": "view",
      "type": "function"
    },
    {
      "inputs": [
        {
          "internalType": "uint256",
          "name": "taskId",
          "type": "uint256"
        }
      ],
      "name": "getResponses",
      "outputs": [
        {
          "components": [
            {
              "internalType": "address",
              "name": "responder",
              "type": "address"
            },
            {
              "internalType": "uint256",
              "name": "nonce",
              "type": "uint256"
            },
            {
              "internalType": "bytes",
              "name": "output",
              "type": "bytes"
            },
            {
              "internalType": "uint256",
              "name": "score",
              "type": "uint256"
            }
          ],
          "internalType": "struct LLMOracleTask.TaskResponse[]",
          "name": "",
          "type": "tuple[]"
        }
      ],
      "stateMutability": "view",
      "type": "function"
    },
    {
      "inputs": [
        {
          "internalType": "uint256",
          "name": "taskId",
          "type": "uint256"
        }
      ],
      "name": "getValidations",
      "outputs": [
        {
          "components": [
            {
              "internalType": "address",
              "name": "validator",
              "type": "address"
            },
            {
              "internalType": "uint256",
              "name": "nonce",
              "type": "uint256"
            },
            {
              "internalType": "uint256[]",
              "name": "scores",
              "type": "uint256[]"
            }
          ],
          "internalType": "struct LLMOracleTask.TaskValidation[]",
          "name": "",
          "type": "tuple[]"
        }
      ],
      "stateMutability": "view",
      "type": "function"
    },
    {
      "inputs": [],
      "name": "maxDifficulty",
      "outputs": [
        {
          "internalType": "uint64",
          "name": "",
          "type": "uint64"
        }
      ],
      "stateMutability": "view",
      "type": "function"
    },
    {
      "inputs": [],
      "name": "maxNumGenerations",
      "outputs": [
        {
          "internalType": "uint40",
          "name": "",
          "type": "uint40"
        }
      ],
      "stateMutability": "view",
      "type": "function"
    },
    {
      "inputs": [],
      "name": "maxNumValidations",
      "outputs": [
        {
          "internalType": "uint40",
          "name": "",
          "type": "uint40"
        }
      ],
      "stateMutability": "view",
      "type": "function"
    },
    {
      "inputs": [],
      "name": "minDifficulty",
      "outputs": [
        {
          "internalType": "uint64",
          "name": "",
          "type": "uint64"
        }
      ],
      "stateMutability": "view",
      "type": "function"
    },
    {
      "inputs": [],
      "name": "minNumGenerations",
      "outputs": [
        {
          "internalType": "uint40",
          "name": "",
          "type": "uint40"
        }
      ],
      "stateMutability": "view",
      "type": "function"
    },
    {
      "inputs": [],
      "name": "minNumValidations",
      "outputs": [
        {
          "internalType": "uint40",
          "name": "",
          "type": "uint40"
        }
      ],
      "stateMutability": "view",
      "type": "function"
    },
    {
      "inputs": [],
      "name": "nextTaskId",
      "outputs": [
        {
          "internalType": "uint256",
          "name": "",
          "type": "uint256"
        }
      ],
      "stateMutability": "view",
      "type": "function"
    },
    {
      "inputs": [],
      "name": "owner",
      "outputs": [
        {
          "internalType": "address",
          "name": "",
          "type": "address"
        }
      ],
      "stateMutability": "view",
      "type": "function"
    },
    {
      "inputs": [],
      "name": "platformFee",
      "outputs": [
        {
          "internalType": "uint256",
          "name": "",
          "type": "uint256"
        }
      ],
      "stateMutability": "view",
      "type": "function"
    },
    {
      "inputs": [],
      "name": "registry",
      "outputs": [
        {
          "internalType": "contract LLMOracleRegistry",
          "name": "",
          "type": "address"
        }
      ],
      "stateMutability": "view",
      "type": "function"
    },
    {
      "inputs": [],
      "name": "renounceOwnership",
      "outputs": [],
      "stateMutability": "nonpayable",
      "type": "function"
    },
    {
      "inputs": [
        {
          "internalType": "bytes",
          "name": "input",
          "type": "bytes"
        },
        {
          "internalType": "bytes",
          "name": "models",
          "type": "bytes"
        },
        {
          "internalType": "uint8",
          "name": "difficulty",
          "type": "uint8"
        },
        {
          "internalType": "uint40",
          "name": "numGenerations",
          "type": "uint40"
        },
        {
          "internalType": "uint40",
          "name": "numValidations",
          "type": "uint40"
        }
      ],
      "name": "request",
      "outputs": [],
      "stateMutability": "nonpayable",
      "type": "function"
    },
    {
      "inputs": [
        {
          "internalType": "uint256",
          "name": "taskId",
          "type": "uint256"
        }
      ],
      "name": "requests",
      "outputs": [
        {
          "internalType": "address",
          "name": "requester",
          "type": "address"
        },
        {
          "internalType": "uint40",
          "name": "numGenerations",
          "type": "uint40"
        },
        {
          "internalType": "uint40",
          "name": "numValidations",
          "type": "uint40"
        },
        {
          "internalType": "uint8",
          "name": "difficulty",
          "type": "uint8"
        },
        {
          "internalType": "enum LLMOracleTask.TaskStatus",
          "name": "status",
          "type": "uint8"
        },
        {
          "internalType": "uint256",
          "name": "generatorFee",
          "type": "uint256"
        },
        {
          "internalType": "uint256",
          "name": "validatorFee",
          "type": "uint256"
        },
        {
          "internalType": "uint256",
          "name": "platformFee",
          "type": "uint256"
        },
        {
          "internalType": "bytes",
          "name": "input",
          "type": "bytes"
        },
        {
          "internalType": "bytes",
          "name": "models",
          "type": "bytes"
        }
      ],
      "stateMutability": "view",
      "type": "function"
    },
    {
      "inputs": [
        {
          "internalType": "uint256",
          "name": "taskId",
          "type": "uint256"
        },
        {
          "internalType": "uint256",
          "name": "nonce",
          "type": "uint256"
        },
        {
          "internalType": "bytes",
          "name": "output",
          "type": "bytes"
        }
      ],
      "name": "respond",
      "outputs": [],
      "stateMutability": "nonpayable",
      "type": "function"
    },
    {
      "inputs": [
        {
          "internalType": "uint256",
          "name": "taskId",
          "type": "uint256"
        },
        {
          "internalType": "uint256",
          "name": "",
          "type": "uint256"
        }
      ],
      "name": "responses",
      "outputs": [
        {
          "internalType": "address",
          "name": "responder",
          "type": "address"
        },
        {
          "internalType": "uint256",
          "name": "nonce",
          "type": "uint256"
        },
        {
          "internalType": "bytes",
          "name": "output",
          "type": "bytes"
        },
        {
          "internalType": "uint256",
          "name": "score",
          "type": "uint256"
        }
      ],
      "stateMutability": "view",
      "type": "function"
    },
    {
      "inputs": [
        {
          "internalType": "uint64",
          "name": "_generationDeviationFactor",
          "type": "uint64"
        },
        {
          "internalType": "uint64",
          "name": "_validationDeviationFactor",
          "type": "uint64"
        }
      ],
      "name": "setDeviationFactors",
      "outputs": [],
      "stateMutability": "nonpayable",
      "type": "function"
    },
    {
      "inputs": [
        {
          "internalType": "uint64",
          "name": "_minDifficulty",
          "type": "uint64"
        },
        {
          "internalType": "uint64",
          "name": "_maxDifficulty",
          "type": "uint64"
        }
      ],
      "name": "setDifficulty",
      "outputs": [],
      "stateMutability": "nonpayable",
      "type": "function"
    },
    {
      "inputs": [
        {
          "internalType": "uint256",
          "name": "_platformFee",
          "type": "uint256"
        },
        {
          "internalType": "uint256",
          "name": "_generationFee",
          "type": "uint256"
        },
        {
          "internalType": "uint256",
          "name": "_validationFee",
          "type": "uint256"
        }
      ],
      "name": "setFees",
      "outputs": [],
      "stateMutability": "nonpayable",
      "type": "function"
    },
    {
      "inputs": [
        {
          "internalType": "uint40",
          "name": "_minNumGenerations",
          "type": "uint40"
        },
        {
          "internalType": "uint40",
          "name": "_maxNumGenerations",
          "type": "uint40"
        }
      ],
      "name": "setNumGenerations",
      "outputs": [],
      "stateMutability": "nonpayable",
      "type": "function"
    },
    {
      "inputs": [
        {
          "internalType": "uint40",
          "name": "_minNumValidations",
          "type": "uint40"
        },
        {
          "internalType": "uint40",
          "name": "_maxNumValidations",
          "type": "uint40"
        }
      ],
      "name": "setNumValidations",
      "outputs": [],
      "stateMutability": "nonpayable",
      "type": "function"
    },
    {
      "inputs": [
        {
          "internalType": "address",
          "name": "newOwner",
          "type": "address"
        }
      ],
      "name": "transferOwnership",
      "outputs": [],
      "stateMutability": "nonpayable",
      "type": "function"
    },
    {
      "inputs": [
        {
          "internalType": "uint256",
          "name": "taskId",
          "type": "uint256"
        },
        {
          "internalType": "uint256",
          "name": "nonce",
          "type": "uint256"
        },
        {
          "internalType": "uint256[]",
          "name": "scores",
          "type": "uint256[]"
        }
      ],
      "name": "validate",
      "outputs": [],
      "stateMutability": "nonpayable",
      "type": "function"
    },
    {
      "inputs": [],
      "name": "validationDeviationFactor",
      "outputs": [
        {
          "internalType": "uint64",
          "name": "",
          "type": "uint64"
        }
      ],
      "stateMutability": "view",
      "type": "function"
    },
    {
      "inputs": [],
      "name": "validationFee",
      "outputs": [
        {
          "internalType": "uint256",
          "name": "",
          "type": "uint256"
        }
      ],
      "stateMutability": "view",
      "type": "function"
    },
    {
      "inputs": [
        {
          "internalType": "uint256",
          "name": "taskId",
          "type": "uint256"
        },
        {
          "internalType": "uint256",
          "name": "",
          "type": "uint256"
        }
      ],
      "name": "validations",
      "outputs": [
        {
          "internalType": "address",
          "name": "validator",
          "type": "address"
        },
        {
          "internalType": "uint256",
          "name": "nonce",
          "type": "uint256"
        }
      ],
      "stateMutability": "view",
      "type": "function"
    },
    {
      "inputs": [],
      "name": "withdrawPlatformFees",
      "outputs": [],
      "stateMutability": "nonpayable",
      "type": "function"
    }
  ],
  "bytecode": "0x60c06040526008600460006101000a81548167ffffffffffffffff021916908367ffffffffffffffff1602179055506001600460086101000a81548167ffffffffffffffff021916908367ffffffffffffffff1602179055506002600460106101000a81548167ffffffffffffffff021916908367ffffffffffffffff1602179055506001600460186101000a81548167ffffffffffffffff021916908367ffffffffffffffff160217905550600a600560006101000a81548164ffffffffff021916908364ffffffffff16021790555060016005806101000a81548164ffffffffff021916908364ffffffffff160217905550600a6005600a6101000a81548164ffffffffff021916908364ffffffffff16021790555060006005600f6101000a81548164ffffffffff021916908364ffffffffff16021790555060016006553480156200014d57600080fd5b5060405162004888380380620048888339818101604052810190620001739190620004ed565b82828233600073ffffffffffffffffffffffffffffffffffffffff168173ffffffffffffffffffffffffffffffffffffffff1603620001ec5760006040517f1e4fbdf7000000000000000000000000000000000000000000000000000000008152600401620001e3919062000586565b60405180910390fd5b620001fd816200028760201b60201c565b50620002118383836200034b60201b60201c565b5050508473ffffffffffffffffffffffffffffffffffffffff1660808173ffffffffffffffffffffffffffffffffffffffff16815250508373ffffffffffffffffffffffffffffffffffffffff1660a08173ffffffffffffffffffffffffffffffffffffffff16815250505050505050620005a3565b60008060009054906101000a900473ffffffffffffffffffffffffffffffffffffffff169050816000806101000a81548173ffffffffffffffffffffffffffffffffffffffff021916908373ffffffffffffffffffffffffffffffffffffffff1602179055508173ffffffffffffffffffffffffffffffffffffffff168173ffffffffffffffffffffffffffffffffffffffff167f8be0079c531659141344cd1fd0a4f28419497f9722a3daafe3b4186f6b6457e060405160405180910390a35050565b6200035b6200037560201b60201c565b826001819055508160028190555080600381905550505050565b620003856200041760201b60201c565b73ffffffffffffffffffffffffffffffffffffffff16620003ab6200041f60201b60201c565b73ffffffffffffffffffffffffffffffffffffffff16146200041557620003d76200041760201b60201c565b6040517f118cdaa70000000000000000000000000000000000000000000000000000000081526004016200040c919062000586565b60405180910390fd5b565b600033905090565b60008060009054906101000a900473ffffffffffffffffffffffffffffffffffffffff16905090565b600080fd5b600073ffffffffffffffffffffffffffffffffffffffff82169050919050565b60006200047a826200044d565b9050919050565b6200048c816200046d565b81146200049857600080fd5b50565b600081519050620004ac8162000481565b92915050565b6000819050919050565b620004c781620004b2565b8114620004d357600080fd5b50565b600081519050620004e781620004bc565b92915050565b600080600080600060a086880312156200050c576200050b62000448565b5b60006200051c888289016200049b565b95505060206200052f888289016200049b565b94505060406200054288828901620004d6565b93505060606200055588828901620004d6565b92505060806200056888828901620004d6565b9150509295509295909350565b62000580816200046d565b82525050565b60006020820190506200059d600083018462000575565b92915050565b60805160a0516142806200060860003960008181610ae901528181610eaa01528181610fa501528181611a300152818161203c015281816120800152818161257301526128690152600081816106ec0152818161144b0152611bd601526142806000f3fe608060405234801561001057600080fd5b50600436106101ef5760003560e01c806393e0a29c1161010f578063ca287c35116100a2578063eecf381511610071578063eecf381514610581578063f2fde38b1461059d578063f8bbf27e146105b9578063fdc3d8d7146105d7576101ef565b8063ca287c351461051f578063cec10c111461053d578063d0b7830b14610559578063e671b67414610563576101ef565b8063b2cf4428116100de578063b2cf442814610495578063b4a93283146104c7578063c4186ec9146104e5578063c4c1c24714610503576101ef565b806393e0a29c1461041f5780639a9974531461043d578063b0b2419b1461045b578063b1b1d93c14610479576101ef565b80635cb5055b116101875780637b103999116101565780637b1039991461038e57806381d12c58146103ac57806385ddbfeb146103e55780638da5cb5b14610401576101ef565b80635cb5055b1461031a578063647846a514610336578063715018a61461035457806371ee2ce11461035e576101ef565b806325082d70116101c357806325082d701461027f57806326232a2e1461029b578063434dbaee146102b95780634b5a82d1146102e9576101ef565b806257efc2146101f4578063036e9f3c146102275780630566f18a146102435780630954daac14610261575b600080fd5b61020e60048036038101906102099190612ce2565b6105f5565b60405161021e9493929190612e02565b60405180910390f35b610241600480360381019061023c9190612f83565b6106ea565b005b61024b610cd1565b6040516102589190612ff2565b60405180910390f35b610269610cd7565b604051610276919061302d565b60405180910390f35b610299600480360381019061029491906130ad565b610cee565b005b6102a36112b8565b6040516102b09190612ff2565b60405180910390f35b6102d360048036038101906102ce9190613160565b6112be565b6040516102e0919061336c565b60405180910390f35b61030360048036038101906102fe9190612ce2565b6113e8565b60405161031192919061338e565b60405180910390f35b610334600480360381019061032f919061347f565b611449565b005b61033e611a2e565b60405161034b919061354d565b60405180910390f35b61035c611a52565b005b61037860048036038101906103739190613160565b611a66565b60405161038591906136d7565b60405180910390f35b610396611bd4565b6040516103a3919061371a565b60405180910390f35b6103c660048036038101906103c19190613160565b611bf8565b6040516103dc9a999897969594939291906137bb565b60405180910390f35b6103ff60048036038101906103fa9190613865565b611db8565b005b610409611e0a565b60405161041691906138a5565b60405180910390f35b610427611e33565b60405161043491906138e3565b60405180910390f35b610445611e4d565b60405161045291906138e3565b60405180910390f35b610463611e67565b604051610470919061302d565b60405180910390f35b610493600480360381019061048e919061392a565b611e7e565b005b6104af60048036038101906104aa919061396a565b611edc565b6040516104be939291906139bd565b60405180910390f35b6104cf611f67565b6040516104dc91906138e3565b60405180910390f35b6104ed611f81565b6040516104fa919061302d565b60405180910390f35b61051d6004803603810190610518919061392a565b611f98565b005b610527611ff6565b60405161053491906138e3565b60405180910390f35b610557600480360381019061055291906139f4565b612010565b005b610561612032565b005b61056b61217b565b604051610578919061302d565b60405180910390f35b61059b60048036038101906105969190613865565b612190565b005b6105b760048036038101906105b29190613a73565b6121e1565b005b6105c1612267565b6040516105ce9190612ff2565b60405180910390f35b6105df61226d565b6040516105ec9190612ff2565b60405180910390f35b6008602052816000526040600020818154811061061157600080fd5b9060005260206000209060040201600091509150508060000160009054906101000a900473ffffffffffffffffffffffffffffffffffffffff169080600101549080600201805461066190613acf565b80601f016020809104026020016040519081016040528092919081815260200182805461068d90613acf565b80156106da5780601f106106af576101008083540402835291602001916106da565b820191906000526020600020905b8154815290600101906020018083116106bd57829003601f168201915b5050505050908060030154905084565b7f000000000000000000000000000000000000000000000000000000000000000073ffffffffffffffffffffffffffffffffffffffff1663c3c5a547336040518263ffffffff1660e01b815260040161074391906138a5565b602060405180830381865afa158015610760573d6000803e3d6000fd5b505050506040513d601f19601f820116820180604052508101906107849190613b38565b6107c557336040517fbfc6c3370000000000000000000000000000000000000000000000000000000081526004016107bc91906138a5565b60405180910390fd5b8260018060038111156107db576107da613744565b5b60076000848152602001908152602001600020600001601f9054906101000a900460ff16600381111561081157610810613744565b5b1461087a578160076000848152602001908152602001600020600001601f9054906101000a900460ff16826040517f48f178b800000000000000000000000000000000000000000000000000000000815260040161087193929190613b65565b60405180910390fd5b600060076000878152602001908152602001600020905060005b6008600088815260200190815260200160002080549050811015610987573373ffffffffffffffffffffffffffffffffffffffff166008600089815260200190815260200160002082815481106108ee576108ed613b9c565b5b906000526020600020906004020160000160009054906101000a900473ffffffffffffffffffffffffffffffffffffffff1673ffffffffffffffffffffffffffffffffffffffff160361097a5786336040517f808df980000000000000000000000000000000000000000000000000000000008152600401610971929190613bcb565b60405180910390fd5b8080600101915050610894565b50610993868287612273565b600060405180608001604052803373ffffffffffffffffffffffffffffffffffffffff168152602001878152602001868152602001600081525090506008600088815260200190815260200160002081908060018154018082558091505060019003906000526020600020906004020160009091909190915060008201518160000160006101000a81548173ffffffffffffffffffffffffffffffffffffffff021916908373ffffffffffffffffffffffffffffffffffffffff160217905550602082015181600101556040820151816002019081610a729190613d96565b506060820151816003015550503373ffffffffffffffffffffffffffffffffffffffff16877f6c809136a3b8faf74ae9e955b7e7b758baa66bde976764a29fa74a4eb1e3702e60405160405180910390a360008260000160199054906101000a900464ffffffffff1664ffffffffff1603610b8b577f000000000000000000000000000000000000000000000000000000000000000073ffffffffffffffffffffffffffffffffffffffff1663095ea7b33384600101546040518363ffffffff1660e01b8152600401610b4692919061338e565b6020604051808303816000875af1158015610b65573d6000803e3d6000fd5b505050506040513d601f19601f82011682018060405250810190610b899190613b38565b505b60008260000160149054906101000a900464ffffffffff1664ffffffffff16600860008a8152602001908152602001600020805490501490508015610cc75760008360000160199054906101000a900464ffffffffff1664ffffffffff1603610c5c57600383600001601f6101000a81548160ff02191690836003811115610c1657610c15613744565b5b0217905550877fac0af0707ea9c32cee33737da59bdf6e773158cde23127c18dd99e74af03fd5d60016003604051610c4f929190613e68565b60405180910390a2610cc6565b600283600001601f6101000a81548160ff02191690836003811115610c8457610c83613744565b5b0217905550877fac0af0707ea9c32cee33737da59bdf6e773158cde23127c18dd99e74af03fd5d60016002604051610cbd929190613e68565b60405180910390a25b5b5050505050505050565b60025481565b6005600a9054906101000a900464ffffffffff1681565b82600460089054906101000a900467ffffffffffffffff1667ffffffffffffffff168160ff161080610d425750600460009054906101000a900467ffffffffffffffff1667ffffffffffffffff168160ff16115b15610d8457806040517f976b0122000000000000000000000000000000000000000000000000000000008152600401610d7b9190613e91565b60405180910390fd5b8260058054906101000a900464ffffffffff1664ffffffffff168164ffffffffff161080610dd25750600560009054906101000a900464ffffffffff1664ffffffffff168164ffffffffff16115b15610e1457806040517ffffdd00f000000000000000000000000000000000000000000000000000000008152600401610e0b919061302d565b60405180910390fd5b826005600f9054906101000a900464ffffffffff1664ffffffffff168164ffffffffff161080610e6457506005600a9054906101000a900464ffffffffff1664ffffffffff168164ffffffffff16115b15610ea657806040517f088dd046000000000000000000000000000000000000000000000000000000008152600401610e9d919061302d565b60405180910390fd5b60007f000000000000000000000000000000000000000000000000000000000000000073ffffffffffffffffffffffffffffffffffffffff1663dd62ed3e33306040518363ffffffff1660e01b8152600401610f03929190613eac565b602060405180830381865afa158015610f20573d6000803e3d6000fd5b505050506040513d601f19601f82011682018060405250810190610f449190613eea565b90506000806000610f568a8a8a611edc565b92509250925082841015610fa35783836040517f3df823ca000000000000000000000000000000000000000000000000000000008152600401610f9a929190613f17565b60405180910390fd5b7f000000000000000000000000000000000000000000000000000000000000000073ffffffffffffffffffffffffffffffffffffffff166323b872dd3330866040518463ffffffff1660e01b815260040161100093929190613f40565b6020604051808303816000875af115801561101f573d6000803e3d6000fd5b505050506040513d601f19601f820116820180604052508101906110439190613b38565b5060006006549050600660008154600101919050819055503373ffffffffffffffffffffffffffffffffffffffff16817f68726a5a65240ea02ab9a0ad65d3c451719ba47c00546e1e5c0b4b3743b808db60405160405180910390a36040518061014001604052803373ffffffffffffffffffffffffffffffffffffffff1681526020018b64ffffffffff1681526020018a64ffffffffff1681526020018c60ff168152602001600160038111156110fe576110fd613744565b5b815260200184815260200183815260200160015481526020018e81526020018d8152506007600083815260200190815260200160002060008201518160000160006101000a81548173ffffffffffffffffffffffffffffffffffffffff021916908373ffffffffffffffffffffffffffffffffffffffff16021790555060208201518160000160146101000a81548164ffffffffff021916908364ffffffffff16021790555060408201518160000160196101000a81548164ffffffffff021916908364ffffffffff160217905550606082015181600001601e6101000a81548160ff021916908360ff160217905550608082015181600001601f6101000a81548160ff0219169083600381111561121957611218613744565b5b021790555060a0820151816001015560c0820151816002015560e082015181600301556101008201518160040190816112529190613d96565b506101208201518160050190816112699190613d96565b50905050807fac0af0707ea9c32cee33737da59bdf6e773158cde23127c18dd99e74af03fd5d600060016040516112a1929190613e68565b60405180910390a250505050505050505050505050565b60015481565b606060096000838152602001908152602001600020805480602002602001604051908101604052809291908181526020016000905b828210156113dd57838290600052602060002090600302016040518060600160405290816000820160009054906101000a900473ffffffffffffffffffffffffffffffffffffffff1673ffffffffffffffffffffffffffffffffffffffff1673ffffffffffffffffffffffffffffffffffffffff16815260200160018201548152602001600282018054806020026020016040519081016040528092919081815260200182805480156113c557602002820191906000526020600020905b8154815260200190600101908083116113b1575b505050505081525050815260200190600101906112f3565b505050509050919050565b6009602052816000526040600020818154811061140457600080fd5b9060005260206000209060030201600091509150508060000160009054906101000a900473ffffffffffffffffffffffffffffffffffffffff16908060010154905082565b7f000000000000000000000000000000000000000000000000000000000000000073ffffffffffffffffffffffffffffffffffffffff1663c3c5a547336040518263ffffffff1660e01b81526004016114a291906138a5565b602060405180830381865afa1580156114bf573d6000803e3d6000fd5b505050506040513d601f19601f820116820180604052508101906114e39190613b38565b61152457336040517fbfc6c33700000000000000000000000000000000000000000000000000000000815260040161151b91906138a5565b60405180910390fd5b82600280600381111561153a57611539613744565b5b60076000848152602001908152602001600020600001601f9054906101000a900460ff1660038111156115705761156f613744565b5b146115d9578160076000848152602001908152602001600020600001601f9054906101000a900460ff16826040517f48f178b80000000000000000000000000000000000000000000000000000000081526004016115d093929190613b65565b60405180910390fd5b60006007600087815260200190815260200160002090508060000160149054906101000a900464ffffffffff1664ffffffffff168451146116535785336040517fab8ad48a00000000000000000000000000000000000000000000000000000000815260040161164a929190613bcb565b60405180910390fd5b60005b8160000160149054906101000a900464ffffffffff1664ffffffffff1681101561174f573373ffffffffffffffffffffffffffffffffffffffff166008600089815260200190815260200160002082815481106116b6576116b5613b9c565b5b906000526020600020906004020160000160009054906101000a900473ffffffffffffffffffffffffffffffffffffffff1673ffffffffffffffffffffffffffffffffffffffff16036117425786336040517f808df980000000000000000000000000000000000000000000000000000000008152600401611739929190613bcb565b60405180910390fd5b8080600101915050611656565b5060005b6009600088815260200190815260200160002080549050811015611846573373ffffffffffffffffffffffffffffffffffffffff166009600089815260200190815260200160002082815481106117ad576117ac613b9c565b5b906000526020600020906003020160000160009054906101000a900473ffffffffffffffffffffffffffffffffffffffff1673ffffffffffffffffffffffffffffffffffffffff16036118395786336040517f808df980000000000000000000000000000000000000000000000000000000008152600401611830929190613bcb565b60405180910390fd5b8080600101915050611753565b50611852868287612273565b6009600087815260200190815260200160002060405180606001604052803373ffffffffffffffffffffffffffffffffffffffff16815260200187815260200186815250908060018154018082558091505060019003906000526020600020906003020160009091909190915060008201518160000160006101000a81548173ffffffffffffffffffffffffffffffffffffffff021916908373ffffffffffffffffffffffffffffffffffffffff16021790555060208201518160010155604082015181600201908051906020019061192c929190612c2e565b5050503373ffffffffffffffffffffffffffffffffffffffff16867fa1afe65d2285036595be8f15025c4421a593141666e15e5a980e742920646b1e60405160405180910390a360008160000160199054906101000a900464ffffffffff1664ffffffffff1660096000898152602001908152602001600020805490501490508015611a2557600382600001601f6101000a81548160ff021916908360038111156119da576119d9613744565b5b0217905550867fac0af0707ea9c32cee33737da59bdf6e773158cde23127c18dd99e74af03fd5d60026003604051611a13929190613e68565b60405180910390a2611a2487612354565b5b50505050505050565b7f000000000000000000000000000000000000000000000000000000000000000081565b611a5a612976565b611a6460006129fd565b565b606060086000838152602001908152602001600020805480602002602001604051908101604052809291908181526020016000905b82821015611bc957838290600052602060002090600402016040518060800160405290816000820160009054906101000a900473ffffffffffffffffffffffffffffffffffffffff1673ffffffffffffffffffffffffffffffffffffffff1673ffffffffffffffffffffffffffffffffffffffff16815260200160018201548152602001600282018054611b2e90613acf565b80601f0160208091040260200160405190810160405280929190818152602001828054611b5a90613acf565b8015611ba75780601f10611b7c57610100808354040283529160200191611ba7565b820191906000526020600020905b815481529060010190602001808311611b8a57829003601f168201915b5050505050815260200160038201548152505081526020019060010190611a9b565b505050509050919050565b7f000000000000000000000000000000000000000000000000000000000000000081565b60076020528060005260406000206000915090508060000160009054906101000a900473ffffffffffffffffffffffffffffffffffffffff16908060000160149054906101000a900464ffffffffff16908060000160199054906101000a900464ffffffffff169080600001601e9054906101000a900460ff169080600001601f9054906101000a900460ff1690806001015490806002015490806003015490806004018054611ca790613acf565b80601f0160208091040260200160405190810160405280929190818152602001828054611cd390613acf565b8015611d205780601f10611cf557610100808354040283529160200191611d20565b820191906000526020600020905b815481529060010190602001808311611d0357829003601f168201915b505050505090806005018054611d3590613acf565b80601f0160208091040260200160405190810160405280929190818152602001828054611d6190613acf565b8015611dae5780601f10611d8357610100808354040283529160200191611dae565b820191906000526020600020905b815481529060010190602001808311611d9157829003601f168201915b505050505090508a565b611dc0612976565b816005600f6101000a81548164ffffffffff021916908364ffffffffff160217905550806005600a6101000a81548164ffffffffff021916908364ffffffffff1602179055505050565b60008060009054906101000a900473ffffffffffffffffffffffffffffffffffffffff16905090565b600460109054906101000a900467ffffffffffffffff1681565b600460009054906101000a900467ffffffffffffffff1681565b6005600f9054906101000a900464ffffffffff1681565b611e86612976565b81600460186101000a81548167ffffffffffffffff021916908367ffffffffffffffff16021790555080600460106101000a81548167ffffffffffffffff021916908367ffffffffffffffff1602179055505050565b6000806000808660ff166002901b905060025481611efa9190613fa6565b92506003548664ffffffffff1682611f129190613fa6565b611f1c9190613fa6565b9150818564ffffffffff16611f319190613fa6565b838764ffffffffff16611f449190613fa6565b600154611f519190613fe8565b611f5b9190613fe8565b93505093509350939050565b600460089054906101000a900467ffffffffffffffff1681565b600560009054906101000a900464ffffffffff1681565b611fa0612976565b81600460086101000a81548167ffffffffffffffff021916908367ffffffffffffffff16021790555080600460006101000a81548167ffffffffffffffff021916908367ffffffffffffffff1602179055505050565b600460189054906101000a900467ffffffffffffffff1681565b612018612976565b826001819055508160028190555080600381905550505050565b61203a612976565b7f000000000000000000000000000000000000000000000000000000000000000073ffffffffffffffffffffffffffffffffffffffff1663a9059cbb61207e611e0a565b7f000000000000000000000000000000000000000000000000000000000000000073ffffffffffffffffffffffffffffffffffffffff166370a08231306040518263ffffffff1660e01b81526004016120d791906138a5565b602060405180830381865afa1580156120f4573d6000803e3d6000fd5b505050506040513d601f19601f820116820180604052508101906121189190613eea565b6040518363ffffffff1660e01b815260040161213592919061338e565b6020604051808303816000875af1158015612154573d6000803e3d6000fd5b505050506040513d601f19601f820116820180604052508101906121789190613b38565b50565b60058054906101000a900464ffffffffff1681565b612198612976565b816005806101000a81548164ffffffffff021916908364ffffffffff16021790555080600560006101000a81548164ffffffffff021916908364ffffffffff1602179055505050565b6121e9612976565b600073ffffffffffffffffffffffffffffffffffffffff168173ffffffffffffffffffffffffffffffffffffffff160361225b5760006040517f1e4fbdf700000000000000000000000000000000000000000000000000000000815260040161225291906138a5565b60405180910390fd5b612264816129fd565b50565b60035481565b60065481565b600083836004018460000160009054906101000a900473ffffffffffffffffffffffffffffffffffffffff1633856040516020016122b5959493929190614113565b604051602081830303815290604052905082600001601e9054906101000a900460ff1660ff167fffffffffffffffffffffffffffffffffffffffffffffffffffffffffffffffff901c818051906020012060001c111561234e5783826040517f06427aeb000000000000000000000000000000000000000000000000000000008152600401612345929190613f17565b60405180910390fd5b50505050565b600060076000838152602001908152602001600020905060005b8160000160149054906101000a900464ffffffffff1664ffffffffff168110156126e45760008260000160199054906101000a900464ffffffffff1664ffffffffff1667ffffffffffffffff8111156123ca576123c9612e58565b5b6040519080825280602002602001820160405280156123f85781602001602082028036833780820191505090505b50905060005b8360000160199054906101000a900464ffffffffff1664ffffffffff168110156124a15760096000868152602001908152602001600020818154811061244757612446613b9c565b5b9060005260206000209060030201600201838154811061246a57612469613b9c565b5b906000526020600020015482828151811061248857612487613b9c565b5b60200260200101818152505080806001019150506123fe565b506000806124ae83612ac1565b9150915060008060005b8760000160199054906101000a900464ffffffffff1664ffffffffff168110156126765784846124e8919061416e565b8682815181106124fb576124fa613b9c565b5b602002602001015110158015612536575084846125189190613fe8565b86828151811061252b5761252a613b9c565b5b602002602001015111155b1561266b5785818151811061254e5761254d613b9c565b5b6020026020010151836125619190613fe8565b9250818061256e906141a2565b9250507f000000000000000000000000000000000000000000000000000000000000000073ffffffffffffffffffffffffffffffffffffffff1663095ea7b3600960008c815260200190815260200160002083815481106125d2576125d1613b9c565b5b906000526020600020906003020160000160009054906101000a900473ffffffffffffffffffffffffffffffffffffffff168a600201546040518363ffffffff1660e01b815260040161262692919061338e565b6020604051808303816000875af1158015612645573d6000803e3d6000fd5b505050506040513d601f19601f820116820180604052508101906126699190613b38565b505b8060010190506124b8565b50600080821461269157818361268c9190614219565b612694565b60005b905080600860008b815260200190815260200160002088815481106126bc576126bb613b9c565b5b906000526020600020906004020160030181905550505050505050808060010191505061236e565b5060008160000160149054906101000a900464ffffffffff1664ffffffffff1667ffffffffffffffff81111561271d5761271c612e58565b5b60405190808252806020026020018201604052801561274b5781602001602082028036833780820191505090505b50905060005b8260000160149054906101000a900464ffffffffff1664ffffffffff168110156127d85760086000858152602001908152602001600020818154811061279a57612799613b9c565b5b9060005260206000209060040201600301548282815181106127bf576127be613b9c565b5b6020026020010181815250508080600101915050612751565b506000806127e583612ac1565b9150915060005b8460000160149054906101000a900464ffffffffff1664ffffffffff1681101561296e5782600460189054906101000a900467ffffffffffffffff1667ffffffffffffffff1661283c9190613fa6565b82612847919061416e565b84828151811061285a57612859613b9c565b5b602002602001015110612961577f000000000000000000000000000000000000000000000000000000000000000073ffffffffffffffffffffffffffffffffffffffff1663095ea7b36008600089815260200190815260200160002083815481106128c8576128c7613b9c565b5b906000526020600020906004020160000160009054906101000a900473ffffffffffffffffffffffffffffffffffffffff1687600101546040518363ffffffff1660e01b815260040161291c92919061338e565b6020604051808303816000875af115801561293b573d6000803e3d6000fd5b505050506040513d601f19601f8201168201806040525081019061295f9190613b38565b505b80806001019150506127ec565b505050505050565b61297e612ae9565b73ffffffffffffffffffffffffffffffffffffffff1661299c611e0a565b73ffffffffffffffffffffffffffffffffffffffff16146129fb576129bf612ae9565b6040517f118cdaa70000000000000000000000000000000000000000000000000000000081526004016129f291906138a5565b60405180910390fd5b565b60008060009054906101000a900473ffffffffffffffffffffffffffffffffffffffff169050816000806101000a81548173ffffffffffffffffffffffffffffffffffffffff021916908373ffffffffffffffffffffffffffffffffffffffff1602179055508173ffffffffffffffffffffffffffffffffffffffff168173ffffffffffffffffffffffffffffffffffffffff167f8be0079c531659141344cd1fd0a4f28419497f9722a3daafe3b4186f6b6457e060405160405180910390a35050565b600080600080612ad085612af1565b91509150809250612ae082612b73565b93505050915091565b600033905090565b600080612afd83612bd0565b90506000805b8451811015612b5d57600083868381518110612b2257612b21613b9c565b5b6020026020010151612b34919061416e565b90508081612b429190613fa6565b83612b4d9190613fe8565b9250508080600101915050612b03565b50835181612b6b9190614219565b925050915091565b6000806002600184612b859190613fe8565b612b8f9190614219565b90508291505b81811015612bca578091506002818285612baf9190614219565b612bb99190613fe8565b612bc39190614219565b9050612b95565b50919050565b6000806000905060005b8351811015612c1857838181518110612bf657612bf5613b9c565b5b602002602001015182612c099190613fe8565b91508080600101915050612bda565b50825181612c269190614219565b915050919050565b828054828255906000526020600020908101928215612c6a579160200282015b82811115612c69578251825591602001919060010190612c4e565b5b509050612c779190612c7b565b5090565b5b80821115612c94576000816000905550600101612c7c565b5090565b6000604051905090565b600080fd5b600080fd5b6000819050919050565b612cbf81612cac565b8114612cca57600080fd5b50565b600081359050612cdc81612cb6565b92915050565b60008060408385031215612cf957612cf8612ca2565b5b6000612d0785828601612ccd565b9250506020612d1885828601612ccd565b9150509250929050565b600073ffffffffffffffffffffffffffffffffffffffff82169050919050565b6000612d4d82612d22565b9050919050565b612d5d81612d42565b82525050565b612d6c81612cac565b82525050565b600081519050919050565b600082825260208201905092915050565b60005b83811015612dac578082015181840152602081019050612d91565b60008484015250505050565b6000601f19601f8301169050919050565b6000612dd482612d72565b612dde8185612d7d565b9350612dee818560208601612d8e565b612df781612db8565b840191505092915050565b6000608082019050612e176000830187612d54565b612e246020830186612d63565b8181036040830152612e368185612dc9565b9050612e456060830184612d63565b95945050505050565b600080fd5b600080fd5b7f4e487b7100000000000000000000000000000000000000000000000000000000600052604160045260246000fd5b612e9082612db8565b810181811067ffffffffffffffff82111715612eaf57612eae612e58565b5b80604052505050565b6000612ec2612c98565b9050612ece8282612e87565b919050565b600067ffffffffffffffff821115612eee57612eed612e58565b5b612ef782612db8565b9050602081019050919050565b82818337600083830152505050565b6000612f26612f2184612ed3565b612eb8565b905082815260208101848484011115612f4257612f41612e53565b5b612f4d848285612f04565b509392505050565b600082601f830112612f6a57612f69612e4e565b5b8135612f7a848260208601612f13565b91505092915050565b600080600060608486031215612f9c57612f9b612ca2565b5b6000612faa86828701612ccd565b9350506020612fbb86828701612ccd565b925050604084013567ffffffffffffffff811115612fdc57612fdb612ca7565b5b612fe886828701612f55565b9150509250925092565b60006020820190506130076000830184612d63565b92915050565b600064ffffffffff82169050919050565b6130278161300d565b82525050565b6000602082019050613042600083018461301e565b92915050565b600060ff82169050919050565b61305e81613048565b811461306957600080fd5b50565b60008135905061307b81613055565b92915050565b61308a8161300d565b811461309557600080fd5b50565b6000813590506130a781613081565b92915050565b600080600080600060a086880312156130c9576130c8612ca2565b5b600086013567ffffffffffffffff8111156130e7576130e6612ca7565b5b6130f388828901612f55565b955050602086013567ffffffffffffffff81111561311457613113612ca7565b5b61312088828901612f55565b94505060406131318882890161306c565b935050606061314288828901613098565b925050608061315388828901613098565b9150509295509295909350565b60006020828403121561317657613175612ca2565b5b600061318484828501612ccd565b91505092915050565b600081519050919050565b600082825260208201905092915050565b6000819050602082019050919050565b6131c281612d42565b82525050565b6131d181612cac565b82525050565b600081519050919050565b600082825260208201905092915050565b6000819050602082019050919050565b600061320f83836131c8565b60208301905092915050565b6000602082019050919050565b6000613233826131d7565b61323d81856131e2565b9350613248836131f3565b8060005b838110156132795781516132608882613203565b975061326b8361321b565b92505060018101905061324c565b5085935050505092915050565b600060608301600083015161329e60008601826131b9565b5060208301516132b160208601826131c8565b50604083015184820360408601526132c98282613228565b9150508091505092915050565b60006132e28383613286565b905092915050565b6000602082019050919050565b60006133028261318d565b61330c8185613198565b93508360208202850161331e856131a9565b8060005b8581101561335a578484038952815161333b85826132d6565b9450613346836132ea565b925060208a01995050600181019050613322565b50829750879550505050505092915050565b6000602082019050818103600083015261338681846132f7565b905092915050565b60006040820190506133a36000830185612d54565b6133b06020830184612d63565b9392505050565b600067ffffffffffffffff8211156133d2576133d1612e58565b5b602082029050602081019050919050565b600080fd5b60006133fb6133f6846133b7565b612eb8565b9050808382526020820190506020840283018581111561341e5761341d6133e3565b5b835b8181101561344757806134338882612ccd565b845260208401935050602081019050613420565b5050509392505050565b600082601f83011261346657613465612e4e565b5b81356134768482602086016133e8565b91505092915050565b60008060006060848603121561349857613497612ca2565b5b60006134a686828701612ccd565b93505060206134b786828701612ccd565b925050604084013567ffffffffffffffff8111156134d8576134d7612ca7565b5b6134e486828701613451565b9150509250925092565b6000819050919050565b600061351361350e61350984612d22565b6134ee565b612d22565b9050919050565b6000613525826134f8565b9050919050565b60006135378261351a565b9050919050565b6135478161352c565b82525050565b6000602082019050613562600083018461353e565b92915050565b600081519050919050565b600082825260208201905092915050565b6000819050602082019050919050565b600082825260208201905092915050565b60006135b082612d72565b6135ba8185613594565b93506135ca818560208601612d8e565b6135d381612db8565b840191505092915050565b60006080830160008301516135f660008601826131b9565b50602083015161360960208601826131c8565b506040830151848203604086015261362182826135a5565b915050606083015161363660608601826131c8565b508091505092915050565b600061364d83836135de565b905092915050565b6000602082019050919050565b600061366d82613568565b6136778185613573565b93508360208202850161368985613584565b8060005b858110156136c557848403895281516136a68582613641565b94506136b183613655565b925060208a0199505060018101905061368d565b50829750879550505050505092915050565b600060208201905081810360008301526136f18184613662565b905092915050565b60006137048261351a565b9050919050565b613714816136f9565b82525050565b600060208201905061372f600083018461370b565b92915050565b61373e81613048565b82525050565b7f4e487b7100000000000000000000000000000000000000000000000000000000600052602160045260246000fd5b6004811061378457613783613744565b5b50565b600081905061379582613773565b919050565b60006137a582613787565b9050919050565b6137b58161379a565b82525050565b6000610140820190506137d1600083018d612d54565b6137de602083018c61301e565b6137eb604083018b61301e565b6137f8606083018a613735565b61380560808301896137ac565b61381260a0830188612d63565b61381f60c0830187612d63565b61382c60e0830186612d63565b81810361010083015261383f8185612dc9565b90508181036101208301526138548184612dc9565b90509b9a5050505050505050505050565b6000806040838503121561387c5761387b612ca2565b5b600061388a85828601613098565b925050602061389b85828601613098565b9150509250929050565b60006020820190506138ba6000830184612d54565b92915050565b600067ffffffffffffffff82169050919050565b6138dd816138c0565b82525050565b60006020820190506138f860008301846138d4565b92915050565b613907816138c0565b811461391257600080fd5b50565b600081359050613924816138fe565b92915050565b6000806040838503121561394157613940612ca2565b5b600061394f85828601613915565b925050602061396085828601613915565b9150509250929050565b60008060006060848603121561398357613982612ca2565b5b60006139918682870161306c565b93505060206139a286828701613098565b92505060406139b386828701613098565b9150509250925092565b60006060820190506139d26000830186612d63565b6139df6020830185612d63565b6139ec6040830184612d63565b949350505050565b600080600060608486031215613a0d57613a0c612ca2565b5b6000613a1b86828701612ccd565b9350506020613a2c86828701612ccd565b9250506040613a3d86828701612ccd565b9150509250925092565b613a5081612d42565b8114613a5b57600080fd5b50565b600081359050613a6d81613a47565b92915050565b600060208284031215613a8957613a88612ca2565b5b6000613a9784828501613a5e565b91505092915050565b7f4e487b7100000000000000000000000000000000000000000000000000000000600052602260045260246000fd5b60006002820490506001821680613ae757607f821691505b602082108103613afa57613af9613aa0565b5b50919050565b60008115159050919050565b613b1581613b00565b8114613b2057600080fd5b50565b600081519050613b3281613b0c565b92915050565b600060208284031215613b4e57613b4d612ca2565b5b6000613b5c84828501613b23565b91505092915050565b6000606082019050613b7a6000830186612d63565b613b8760208301856137ac565b613b9460408301846137ac565b949350505050565b7f4e487b7100000000000000000000000000000000000000000000000000000000600052603260045260246000fd5b6000604082019050613be06000830185612d63565b613bed6020830184612d54565b9392505050565b60008190508160005260206000209050919050565b60006020601f8301049050919050565b600082821b905092915050565b600060088302613c567fffffffffffffffffffffffffffffffffffffffffffffffffffffffffffffffff82613c19565b613c608683613c19565b95508019841693508086168417925050509392505050565b6000613c93613c8e613c8984612cac565b6134ee565b612cac565b9050919050565b6000819050919050565b613cad83613c78565b613cc1613cb982613c9a565b848454613c26565b825550505050565b600090565b613cd6613cc9565b613ce1818484613ca4565b505050565b5b81811015613d0557613cfa600082613cce565b600181019050613ce7565b5050565b601f821115613d4a57613d1b81613bf4565b613d2484613c09565b81016020851015613d33578190505b613d47613d3f85613c09565b830182613ce6565b50505b505050565b600082821c905092915050565b6000613d6d60001984600802613d4f565b1980831691505092915050565b6000613d868383613d5c565b9150826002028217905092915050565b613d9f82612d72565b67ffffffffffffffff811115613db857613db7612e58565b5b613dc28254613acf565b613dcd828285613d09565b600060209050601f831160018114613e005760008415613dee578287015190505b613df88582613d7a565b865550613e60565b601f198416613e0e86613bf4565b60005b82811015613e3657848901518255600182019150602085019450602081019050613e11565b86831015613e535784890151613e4f601f891682613d5c565b8355505b6001600288020188555050505b505050505050565b6000604082019050613e7d60008301856137ac565b613e8a60208301846137ac565b9392505050565b6000602082019050613ea66000830184613735565b92915050565b6000604082019050613ec16000830185612d54565b613ece6020830184612d54565b9392505050565b600081519050613ee481612cb6565b92915050565b600060208284031215613f0057613eff612ca2565b5b6000613f0e84828501613ed5565b91505092915050565b6000604082019050613f2c6000830185612d63565b613f396020830184612d63565b9392505050565b6000606082019050613f556000830186612d54565b613f626020830185612d54565b613f6f6040830184612d63565b949350505050565b7f4e487b7100000000000000000000000000000000000000000000000000000000600052601160045260246000fd5b6000613fb182612cac565b9150613fbc83612cac565b9250828202613fca81612cac565b91508282048414831517613fe157613fe0613f77565b5b5092915050565b6000613ff382612cac565b9150613ffe83612cac565b925082820190508082111561401657614015613f77565b5b92915050565b6000819050919050565b61403761403282612cac565b61401c565b82525050565b600081905092915050565b6000815461405581613acf565b61405f818661403d565b9450600182166000811461407a576001811461408f576140c2565b60ff19831686528115158202860193506140c2565b61409885613bf4565b60005b838110156140ba5781548189015260018201915060208101905061409b565b838801955050505b50505092915050565b60008160601b9050919050565b60006140e3826140cb565b9050919050565b60006140f5826140d8565b9050919050565b61410d61410882612d42565b6140ea565b82525050565b600061411f8288614026565b60208201915061412f8287614048565b915061413b82866140fc565b60148201915061414b82856140fc565b60148201915061415b8284614026565b6020820191508190509695505050505050565b600061417982612cac565b915061418483612cac565b925082820390508181111561419c5761419b613f77565b5b92915050565b60006141ad82612cac565b91507fffffffffffffffffffffffffffffffffffffffffffffffffffffffffffffffff82036141df576141de613f77565b5b600182019050919050565b7f4e487b7100000000000000000000000000000000000000000000000000000000600052601260045260246000fd5b600061422482612cac565b915061422f83612cac565b92508261423f5761423e6141ea565b5b82820490509291505056fea2646970667358221220ea2f4a250fdd4ab4010e1597d18375658fb63b24c884aad89baf94a40ef46c2e64736f6c63430008180033",
  "linkReferences": {},
  "deployedLinkReferences": {}
}