{
  "_format": "hh-sol-artifact-1",
  "contractName": "LLMOracleCoordinator",
  "sourceName": "contracts/llm/LLMOracleCoordinator.sol",
  "abi": [
    {
      "inputs": [],
      "stateMutability": "nonpayable",
      "type": "constructor"
    },
    {
      "inputs": [
        {
          "internalType": "address",
          "name": "target",
          "type": "address"
        }
      ],
      "name": "AddressEmptyCode",
      "type": "error"
    },
    {
      "inputs": [
        {
          "internalType": "uint256",
          "name": "taskId",
          "type": "uint256"
        },
        {
          "internalType": "address",
          "name": "oracle",
          "type": "address"
        }
      ],
      "name": "AlreadyResponded",
      "type": "error"
    },
    {
      "inputs": [
        {
          "internalType": "address",
          "name": "implementation",
          "type": "address"
        }
      ],
      "name": "ERC1967InvalidImplementation",
      "type": "error"
    },
    {
      "inputs": [],
      "name": "ERC1967NonPayable",
      "type": "error"
    },
    {
      "inputs": [],
      "name": "FailedInnerCall",
      "type": "error"
    },
    {
      "inputs": [
        {
          "internalType": "uint256",
          "name": "given",
          "type": "uint256"
        },
        {
          "internalType": "uint256",
          "name": "required",
          "type": "uint256"
        }
      ],
      "name": "InsufficientRewards",
      "type": "error"
    },
    {
      "inputs": [],
      "name": "InvalidInitialization",
      "type": "error"
    },
    {
      "inputs": [
        {
          "internalType": "uint256",
          "name": "taskId",
          "type": "uint256"
        },
        {
          "internalType": "uint256",
          "name": "nonce",
          "type": "uint256"
        }
      ],
      "name": "InvalidNonce",
      "type": "error"
    },
    {
      "inputs": [
        {
          "internalType": "uint256",
          "name": "have",
          "type": "uint256"
        },
        {
          "internalType": "uint256",
          "name": "min",
          "type": "uint256"
        },
        {
          "internalType": "uint256",
          "name": "max",
          "type": "uint256"
        }
      ],
      "name": "InvalidParameterRange",
      "type": "error"
    },
    {
      "inputs": [
        {
          "internalType": "uint256",
          "name": "taskId",
          "type": "uint256"
        },
        {
          "internalType": "enum LLMOracleTask.TaskStatus",
          "name": "have",
          "type": "uint8"
        },
        {
          "internalType": "enum LLMOracleTask.TaskStatus",
          "name": "want",
          "type": "uint8"
        }
      ],
      "name": "InvalidTaskStatus",
      "type": "error"
    },
    {
      "inputs": [
        {
          "internalType": "uint256",
          "name": "taskId",
          "type": "uint256"
        },
        {
          "internalType": "address",
          "name": "validator",
          "type": "address"
        }
      ],
      "name": "InvalidValidation",
      "type": "error"
    },
    {
      "inputs": [],
      "name": "NotInitializing",
      "type": "error"
    },
    {
      "inputs": [
        {
          "internalType": "address",
          "name": "oracle",
          "type": "address"
        }
      ],
      "name": "NotRegistered",
      "type": "error"
    },
    {
      "inputs": [
        {
          "internalType": "address",
          "name": "owner",
          "type": "address"
        }
      ],
      "name": "OwnableInvalidOwner",
      "type": "error"
    },
    {
      "inputs": [
        {
          "internalType": "address",
          "name": "account",
          "type": "address"
        }
      ],
      "name": "OwnableUnauthorizedAccount",
      "type": "error"
    },
    {
      "inputs": [],
      "name": "UUPSUnauthorizedCallContext",
      "type": "error"
    },
    {
      "inputs": [
        {
          "internalType": "bytes32",
          "name": "slot",
          "type": "bytes32"
        }
      ],
      "name": "UUPSUnsupportedProxiableUUID",
      "type": "error"
    },
    {
      "anonymous": false,
      "inputs": [
        {
          "indexed": false,
          "internalType": "uint64",
          "name": "version",
          "type": "uint64"
        }
      ],
      "name": "Initialized",
      "type": "event"
    },
    {
      "anonymous": false,
      "inputs": [
        {
          "indexed": true,
          "internalType": "address",
          "name": "previousOwner",
          "type": "address"
        },
        {
          "indexed": true,
          "internalType": "address",
          "name": "newOwner",
          "type": "address"
        }
      ],
      "name": "OwnershipTransferred",
      "type": "event"
    },
    {
      "anonymous": false,
      "inputs": [
        {
          "indexed": true,
          "internalType": "uint256",
          "name": "taskId",
          "type": "uint256"
        },
        {
          "indexed": true,
          "internalType": "address",
          "name": "requester",
          "type": "address"
        },
        {
          "indexed": true,
          "internalType": "bytes32",
          "name": "protocol",
          "type": "bytes32"
        }
      ],
      "name": "Request",
      "type": "event"
    },
    {
      "anonymous": false,
      "inputs": [
        {
          "indexed": true,
          "internalType": "uint256",
          "name": "taskId",
          "type": "uint256"
        },
        {
          "indexed": true,
          "internalType": "address",
          "name": "responder",
          "type": "address"
        }
      ],
      "name": "Response",
      "type": "event"
    },
    {
      "anonymous": false,
      "inputs": [
        {
          "indexed": true,
          "internalType": "uint256",
          "name": "taskId",
          "type": "uint256"
        },
        {
          "indexed": true,
          "internalType": "bytes32",
          "name": "protocol",
          "type": "bytes32"
        },
        {
          "indexed": false,
          "internalType": "enum LLMOracleTask.TaskStatus",
          "name": "statusBefore",
          "type": "uint8"
        },
        {
          "indexed": false,
          "internalType": "enum LLMOracleTask.TaskStatus",
          "name": "statusAfter",
          "type": "uint8"
        }
      ],
      "name": "StatusUpdate",
      "type": "event"
    },
    {
      "anonymous": false,
      "inputs": [
        {
          "indexed": true,
          "internalType": "address",
          "name": "implementation",
          "type": "address"
        }
      ],
      "name": "Upgraded",
      "type": "event"
    },
    {
      "anonymous": false,
      "inputs": [
        {
          "indexed": true,
          "internalType": "uint256",
          "name": "taskId",
          "type": "uint256"
        },
        {
          "indexed": true,
          "internalType": "address",
          "name": "validator",
          "type": "address"
        }
      ],
      "name": "Validation",
      "type": "event"
    },
    {
      "inputs": [],
      "name": "UPGRADE_INTERFACE_VERSION",
      "outputs": [
        {
          "internalType": "string",
          "name": "",
          "type": "string"
        }
      ],
      "stateMutability": "view",
      "type": "function"
    },
    {
      "inputs": [],
      "name": "feeToken",
      "outputs": [
        {
          "internalType": "contract ERC20",
          "name": "",
          "type": "address"
        }
      ],
      "stateMutability": "view",
      "type": "function"
    },
    {
      "inputs": [],
      "name": "generationDeviationFactor",
      "outputs": [
        {
          "internalType": "uint64",
          "name": "",
          "type": "uint64"
        }
      ],
      "stateMutability": "view",
      "type": "function"
    },
    {
      "inputs": [],
      "name": "generationFee",
      "outputs": [
        {
          "internalType": "uint256",
          "name": "",
          "type": "uint256"
        }
      ],
      "stateMutability": "view",
      "type": "function"
    },
    {
      "inputs": [
        {
          "internalType": "uint256",
          "name": "taskId",
          "type": "uint256"
        }
      ],
      "name": "getBestResponse",
      "outputs": [
        {
          "components": [
            {
              "internalType": "address",
              "name": "responder",
              "type": "address"
            },
            {
              "internalType": "uint256",
              "name": "nonce",
              "type": "uint256"
            },
            {
              "internalType": "uint256",
              "name": "score",
              "type": "uint256"
            },
            {
              "internalType": "bytes",
              "name": "output",
              "type": "bytes"
            },
            {
              "internalType": "bytes",
              "name": "metadata",
              "type": "bytes"
            }
          ],
          "internalType": "struct LLMOracleTask.TaskResponse",
          "name": "",
          "type": "tuple"
        }
      ],
      "stateMutability": "view",
      "type": "function"
    },
    {
      "inputs": [
        {
          "components": [
            {
              "internalType": "uint8",
              "name": "difficulty",
              "type": "uint8"
            },
            {
              "internalType": "uint40",
              "name": "numGenerations",
              "type": "uint40"
            },
            {
              "internalType": "uint40",
              "name": "numValidations",
              "type": "uint40"
            }
          ],
          "internalType": "struct LLMOracleTaskParameters",
          "name": "parameters",
          "type": "tuple"
        }
      ],
      "name": "getFee",
      "outputs": [
        {
          "internalType": "uint256",
          "name": "totalFee",
          "type": "uint256"
        },
        {
          "internalType": "uint256",
          "name": "generatorFee",
          "type": "uint256"
        },
        {
          "internalType": "uint256",
          "name": "validatorFee",
          "type": "uint256"
        }
      ],
      "stateMutability": "view",
      "type": "function"
    },
    {
      "inputs": [
        {
          "internalType": "uint256",
          "name": "taskId",
          "type": "uint256"
        }
      ],
      "name": "getResponses",
      "outputs": [
        {
          "components": [
            {
              "internalType": "address",
              "name": "responder",
              "type": "address"
            },
            {
              "internalType": "uint256",
              "name": "nonce",
              "type": "uint256"
            },
            {
              "internalType": "uint256",
              "name": "score",
              "type": "uint256"
            },
            {
              "internalType": "bytes",
              "name": "output",
              "type": "bytes"
            },
            {
              "internalType": "bytes",
              "name": "metadata",
              "type": "bytes"
            }
          ],
          "internalType": "struct LLMOracleTask.TaskResponse[]",
          "name": "",
          "type": "tuple[]"
        }
      ],
      "stateMutability": "view",
      "type": "function"
    },
    {
      "inputs": [
        {
          "internalType": "uint256",
          "name": "taskId",
          "type": "uint256"
        }
      ],
      "name": "getValidations",
      "outputs": [
        {
          "components": [
            {
              "internalType": "address",
              "name": "validator",
              "type": "address"
            },
            {
              "internalType": "uint256",
              "name": "nonce",
              "type": "uint256"
            },
            {
              "internalType": "uint256[]",
              "name": "scores",
              "type": "uint256[]"
            },
            {
              "internalType": "bytes",
              "name": "metadata",
              "type": "bytes"
            }
          ],
          "internalType": "struct LLMOracleTask.TaskValidation[]",
          "name": "",
          "type": "tuple[]"
        }
      ],
      "stateMutability": "view",
      "type": "function"
    },
    {
      "inputs": [
        {
          "internalType": "address",
          "name": "_oracleRegistry",
          "type": "address"
        },
        {
          "internalType": "address",
          "name": "_feeToken",
          "type": "address"
        },
        {
          "internalType": "uint256",
          "name": "_platformFee",
          "type": "uint256"
        },
        {
          "internalType": "uint256",
          "name": "_generationFee",
          "type": "uint256"
        },
        {
          "internalType": "uint256",
          "name": "_validationFee",
          "type": "uint256"
        }
      ],
      "name": "initialize",
      "outputs": [],
      "stateMutability": "nonpayable",
      "type": "function"
    },
    {
      "inputs": [],
      "name": "nextTaskId",
      "outputs": [
        {
          "internalType": "uint256",
          "name": "",
          "type": "uint256"
        }
      ],
      "stateMutability": "view",
      "type": "function"
    },
    {
      "inputs": [],
      "name": "owner",
      "outputs": [
        {
          "internalType": "address",
          "name": "",
          "type": "address"
        }
      ],
      "stateMutability": "view",
      "type": "function"
    },
    {
      "inputs": [],
      "name": "platformFee",
      "outputs": [
        {
          "internalType": "uint256",
          "name": "",
          "type": "uint256"
        }
      ],
      "stateMutability": "view",
      "type": "function"
    },
    {
      "inputs": [],
      "name": "proxiableUUID",
      "outputs": [
        {
          "internalType": "bytes32",
          "name": "",
          "type": "bytes32"
        }
      ],
      "stateMutability": "view",
      "type": "function"
    },
    {
      "inputs": [],
      "name": "registry",
      "outputs": [
        {
          "internalType": "contract LLMOracleRegistry",
          "name": "",
          "type": "address"
        }
      ],
      "stateMutability": "view",
      "type": "function"
    },
    {
      "inputs": [],
      "name": "renounceOwnership",
      "outputs": [],
      "stateMutability": "nonpayable",
      "type": "function"
    },
    {
      "inputs": [
        {
          "internalType": "bytes32",
          "name": "protocol",
          "type": "bytes32"
        },
        {
          "internalType": "bytes",
          "name": "input",
          "type": "bytes"
        },
        {
          "internalType": "bytes",
          "name": "models",
          "type": "bytes"
        },
        {
          "components": [
            {
              "internalType": "uint8",
              "name": "difficulty",
              "type": "uint8"
            },
            {
              "internalType": "uint40",
              "name": "numGenerations",
              "type": "uint40"
            },
            {
              "internalType": "uint40",
              "name": "numValidations",
              "type": "uint40"
            }
          ],
          "internalType": "struct LLMOracleTaskParameters",
          "name": "parameters",
          "type": "tuple"
        }
      ],
      "name": "request",
      "outputs": [
        {
          "internalType": "uint256",
          "name": "",
          "type": "uint256"
        }
      ],
      "stateMutability": "nonpayable",
      "type": "function"
    },
    {
      "inputs": [
        {
          "internalType": "uint256",
          "name": "taskId",
          "type": "uint256"
        }
      ],
      "name": "requests",
      "outputs": [
        {
          "internalType": "address",
          "name": "requester",
          "type": "address"
        },
        {
          "internalType": "bytes32",
          "name": "protocol",
          "type": "bytes32"
        },
        {
          "components": [
            {
              "internalType": "uint8",
              "name": "difficulty",
              "type": "uint8"
            },
            {
              "internalType": "uint40",
              "name": "numGenerations",
              "type": "uint40"
            },
            {
              "internalType": "uint40",
              "name": "numValidations",
              "type": "uint40"
            }
          ],
          "internalType": "struct LLMOracleTaskParameters",
          "name": "parameters",
          "type": "tuple"
        },
        {
          "internalType": "enum LLMOracleTask.TaskStatus",
          "name": "status",
          "type": "uint8"
        },
        {
          "internalType": "uint256",
          "name": "generatorFee",
          "type": "uint256"
        },
        {
          "internalType": "uint256",
          "name": "validatorFee",
          "type": "uint256"
        },
        {
          "internalType": "uint256",
          "name": "platformFee",
          "type": "uint256"
        },
        {
          "internalType": "bytes",
          "name": "input",
          "type": "bytes"
        },
        {
          "internalType": "bytes",
          "name": "models",
          "type": "bytes"
        }
      ],
      "stateMutability": "view",
      "type": "function"
    },
    {
      "inputs": [
        {
          "internalType": "uint256",
          "name": "taskId",
          "type": "uint256"
        },
        {
          "internalType": "uint256",
          "name": "nonce",
          "type": "uint256"
        },
        {
          "internalType": "bytes",
          "name": "output",
          "type": "bytes"
        },
        {
          "internalType": "bytes",
          "name": "metadata",
          "type": "bytes"
        }
      ],
      "name": "respond",
      "outputs": [],
      "stateMutability": "nonpayable",
      "type": "function"
    },
    {
      "inputs": [
        {
          "internalType": "uint256",
          "name": "taskId",
          "type": "uint256"
        },
        {
          "internalType": "uint256",
          "name": "",
          "type": "uint256"
        }
      ],
      "name": "responses",
      "outputs": [
        {
          "internalType": "address",
          "name": "responder",
          "type": "address"
        },
        {
          "internalType": "uint256",
          "name": "nonce",
          "type": "uint256"
        },
        {
          "internalType": "uint256",
          "name": "score",
          "type": "uint256"
        },
        {
          "internalType": "bytes",
          "name": "output",
          "type": "bytes"
        },
        {
          "internalType": "bytes",
          "name": "metadata",
          "type": "bytes"
        }
      ],
      "stateMutability": "view",
      "type": "function"
    },
    {
      "inputs": [
        {
          "internalType": "uint64",
          "name": "_generationDeviationFactor",
          "type": "uint64"
        },
        {
          "internalType": "uint64",
          "name": "_validationDeviationFactor",
          "type": "uint64"
        }
      ],
      "name": "setDeviationFactors",
      "outputs": [],
      "stateMutability": "nonpayable",
      "type": "function"
    },
    {
      "inputs": [
        {
          "internalType": "uint256",
          "name": "_platformFee",
          "type": "uint256"
        },
        {
          "internalType": "uint256",
          "name": "_generationFee",
          "type": "uint256"
        },
        {
          "internalType": "uint256",
          "name": "_validationFee",
          "type": "uint256"
        }
      ],
      "name": "setFees",
      "outputs": [],
      "stateMutability": "nonpayable",
      "type": "function"
    },
    {
      "inputs": [
        {
          "components": [
            {
              "internalType": "uint8",
              "name": "difficulty",
              "type": "uint8"
            },
            {
              "internalType": "uint40",
              "name": "numGenerations",
              "type": "uint40"
            },
            {
              "internalType": "uint40",
              "name": "numValidations",
              "type": "uint40"
            }
          ],
          "internalType": "struct LLMOracleTaskParameters",
          "name": "minimums",
          "type": "tuple"
        },
        {
          "components": [
            {
              "internalType": "uint8",
              "name": "difficulty",
              "type": "uint8"
            },
            {
              "internalType": "uint40",
              "name": "numGenerations",
              "type": "uint40"
            },
            {
              "internalType": "uint40",
              "name": "numValidations",
              "type": "uint40"
            }
          ],
          "internalType": "struct LLMOracleTaskParameters",
          "name": "maximums",
          "type": "tuple"
        }
      ],
      "name": "setParameters",
      "outputs": [],
      "stateMutability": "nonpayable",
      "type": "function"
    },
    {
      "inputs": [
        {
          "internalType": "address",
          "name": "newOwner",
          "type": "address"
        }
      ],
      "name": "transferOwnership",
      "outputs": [],
      "stateMutability": "nonpayable",
      "type": "function"
    },
    {
      "inputs": [
        {
          "internalType": "address",
          "name": "newImplementation",
          "type": "address"
        },
        {
          "internalType": "bytes",
          "name": "data",
          "type": "bytes"
        }
      ],
      "name": "upgradeToAndCall",
      "outputs": [],
      "stateMutability": "payable",
      "type": "function"
    },
    {
      "inputs": [
        {
          "internalType": "uint256",
          "name": "taskId",
          "type": "uint256"
        },
        {
          "internalType": "uint256",
          "name": "nonce",
          "type": "uint256"
        },
        {
          "internalType": "uint256[]",
          "name": "scores",
          "type": "uint256[]"
        },
        {
          "internalType": "bytes",
          "name": "metadata",
          "type": "bytes"
        }
      ],
      "name": "validate",
      "outputs": [],
      "stateMutability": "nonpayable",
      "type": "function"
    },
    {
      "inputs": [],
      "name": "validationDeviationFactor",
      "outputs": [
        {
          "internalType": "uint64",
          "name": "",
          "type": "uint64"
        }
      ],
      "stateMutability": "view",
      "type": "function"
    },
    {
      "inputs": [],
      "name": "validationFee",
      "outputs": [
        {
          "internalType": "uint256",
          "name": "",
          "type": "uint256"
        }
      ],
      "stateMutability": "view",
      "type": "function"
    },
    {
      "inputs": [
        {
          "internalType": "uint256",
          "name": "taskId",
          "type": "uint256"
        },
        {
          "internalType": "uint256",
          "name": "",
          "type": "uint256"
        }
      ],
      "name": "validations",
      "outputs": [
        {
          "internalType": "address",
          "name": "validator",
          "type": "address"
        },
        {
          "internalType": "uint256",
          "name": "nonce",
          "type": "uint256"
        },
        {
          "internalType": "bytes",
          "name": "metadata",
          "type": "bytes"
        }
      ],
      "stateMutability": "view",
      "type": "function"
    },
    {
      "inputs": [],
      "name": "withdrawPlatformFees",
      "outputs": [],
      "stateMutability": "nonpayable",
      "type": "function"
    }
  ],
  "bytecode": "0x60a0604052306080523480156200001557600080fd5b506200002062000026565b620000da565b7ff0c57e16840df040f15088dc2f81fe391c3923bec73e23a9662efc9c229c6a00805468010000000000000000900460ff1615620000775760405163f92ee8a960e01b815260040160405180910390fd5b80546001600160401b0390811614620000d75780546001600160401b0319166001600160401b0390811782556040519081527fc7f505b2f371ae2175ee4913f4499e1f2633a7b5936321eed1cdaeb6115181d29060200160405180910390a15b50565b608051613a1462000104600039600081816121150152818161213e01526122840152613a146000f3fe6080604052600436106101c15760003560e01c80638da5cb5b116100f7578063ca287c3511610095578063e76aec1111610064578063e76aec111461057e578063f2fde38b1461059e578063f8bbf27e146105be578063fdc3d8d7146105d457600080fd5b8063ca287c3514610502578063cec10c1114610529578063d0b7830b14610549578063d13f90b41461055e57600080fd5b8063b13fc8f4116100d1578063b13fc8f414610467578063b1b1d93c146104a2578063b584e617146104c2578063b84b8ac7146104e257600080fd5b80638da5cb5b146103dc57806393e0a29c146103f1578063ad3cb1cc1461042957600080fd5b806352d1902d11610164578063715018a61161013e578063715018a61461034557806371ee2ce11461035a5780637b1039991461038757806381d12c58146103a757600080fd5b806352d1902d146102d8578063647846a5146102ed5780636b4d5bfc1461032557600080fd5b806332f77659116101a057806332f776591461023a578063434dbaee146102675780634b5a82d1146102945780634f1ef286146102c357600080fd5b806257efc2146101c65780630566f18a1461020057806326232a2e14610224575b600080fd5b3480156101d257600080fd5b506101e66101e1366004612d42565b6105ea565b6040516101f7959493929190612db4565b60405180910390f35b34801561020c57600080fd5b5061021660015481565b6040519081526020016101f7565b34801561023057600080fd5b5061021660005481565b34801561024657600080fd5b5061025a610255366004612dff565b610754565b6040516101f79190612e6c565b34801561027357600080fd5b50610287610282366004612dff565b610a1c565b6040516101f79190612e7f565b3480156102a057600080fd5b506102b46102af366004612d42565b610b8c565b6040516101f793929190612f50565b6102d66102d136600461303e565b610c62565b005b3480156102e457600080fd5b50610216610c81565b3480156102f957600080fd5b5060075461030d906001600160a01b031681565b6040516001600160a01b0390911681526020016101f7565b34801561033157600080fd5b506102d66103403660046130d3565b610c9e565b34801561035157600080fd5b506102d66110c1565b34801561036657600080fd5b5061037a610375366004612dff565b6110d5565b6040516101f79190613186565b34801561039357600080fd5b5060065461030d906001600160a01b031681565b3480156103b357600080fd5b506103c76103c2366004612dff565b61128b565b6040516101f799989796959493929190613214565b3480156103e857600080fd5b5061030d611430565b3480156103fd57600080fd5b50600354610411906001600160401b031681565b6040516001600160401b0390911681526020016101f7565b34801561043557600080fd5b5061045a604051806040016040528060058152602001640352e302e360dc1b81525081565b6040516101f791906132af565b34801561047357600080fd5b506104876104823660046132d4565b61145e565b604080519384526020840192909252908201526060016101f7565b3480156104ae57600080fd5b506102d66104bd366004613307565b6114fd565b3480156104ce57600080fd5b506102d66104dd36600461333a565b611539565b3480156104ee57600080fd5b506102d66104fd36600461339d565b611921565b34801561050e57600080fd5b5060035461041190600160401b90046001600160401b031681565b34801561053557600080fd5b506102d66105443660046133c9565b61194c565b34801561055557600080fd5b506102d6611962565b34801561056a57600080fd5b506102d66105793660046133f5565b611a61565b34801561058a57600080fd5b50610216610599366004613442565b611bb3565b3480156105aa57600080fd5b506102d66105b93660046134c0565b6120cf565b3480156105ca57600080fd5b5061021660025481565b3480156105e057600080fd5b5061021660085481565b600a602052816000526040600020818154811061060657600080fd5b600091825260209091206005909102018054600182015460028301546003840180546001600160a01b0390941696509194509291610643906134db565b80601f016020809104026020016040519081016040528092919081815260200182805461066f906134db565b80156106bc5780601f10610691576101008083540402835291602001916106bc565b820191906000526020600020905b81548152906001019060200180831161069f57829003601f168201915b5050505050908060040180546106d1906134db565b80601f01602080910402602001604051908101604052809291908181526020018280546106fd906134db565b801561074a5780601f1061071f5761010080835404028352916020019161074a565b820191906000526020600020905b81548152906001019060200180831161072d57829003601f168201915b5050505050905085565b61078f6040518060a0016040528060006001600160a01b03168152602001600081526020016000815260200160608152602001606081525090565b6000828152600a60209081526040808320600990925290912060039081015460ff16818111156107c1576107c16131ea565b146108055760008381526009602052604090819020600390810154915163091e2f1760e31b81526107fc92869260ff9091169160040161350f565b60405180910390fd5b60008160008154811061081a5761081a613538565b60009182526020909120600590910201600281015490915060015b83548110156108ba578184828154811061085157610851613538565b90600052602060002090600502016002015411156108b25783818154811061087b5761087b613538565b90600052602060002090600502016002015491508381815481106108a1576108a1613538565b906000526020600020906005020192505b600101610835565b506040805160a08101825283546001600160a01b0316815260018401546020820152600284015491810191909152600383018054849160608401916108fe906134db565b80601f016020809104026020016040519081016040528092919081815260200182805461092a906134db565b80156109775780601f1061094c57610100808354040283529160200191610977565b820191906000526020600020905b81548152906001019060200180831161095a57829003601f168201915b50505050508152602001600482018054610990906134db565b80601f01602080910402602001604051908101604052809291908181526020018280546109bc906134db565b8015610a095780601f106109de57610100808354040283529160200191610a09565b820191906000526020600020905b8154815290600101906020018083116109ec57829003601f168201915b5050505050815250509350505050919050565b6060600b6000838152602001908152602001600020805480602002602001604051908101604052809291908181526020016000905b82821015610b81576000848152602090819020604080516080810182526004860290920180546001600160a01b031683526001810154838501526002810180548351818702810187018552818152949592949386019392830182828015610ad757602002820191906000526020600020905b815481526020019060010190808311610ac3575b50505050508152602001600382018054610af0906134db565b80601f0160208091040260200160405190810160405280929190818152602001828054610b1c906134db565b8015610b695780601f10610b3e57610100808354040283529160200191610b69565b820191906000526020600020905b815481529060010190602001808311610b4c57829003601f168201915b50505050508152505081526020019060010190610a51565b505050509050919050565b600b6020528160005260406000208181548110610ba857600080fd5b60009182526020909120600490910201805460018201546003830180546001600160a01b03909316955090935090610bdf906134db565b80601f0160208091040260200160405190810160405280929190818152602001828054610c0b906134db565b8015610c585780601f10610c2d57610100808354040283529160200191610c58565b820191906000526020600020905b815481529060010190602001808311610c3b57829003601f168201915b5050505050905083565b610c6a61210a565b610c73826121af565b610c7d82826121b7565b5050565b6000610c8b612279565b506000805160206139bf83398151915290565b600654604051635f5b248b60e01b81526001916001600160a01b031690635f5b248b90610cd1903390859060040161354e565b602060405180830381865afa158015610cee573d6000803e3d6000fd5b505050506040513d601f19601f82011682018060405250810190610d12919061357b565b610d315760405163bfc6c33760e01b81523360048201526024016107fc565b86600280600083815260096020526040902060039081015460ff1690811115610d5c57610d5c6131ea565b14610d97576000828152600960205260409081902060030154905163091e2f1760e31b81526107fc91849160ff90911690849060040161350f565b60008981526009602052604090206002810154610100900464ffffffffff168714610dde576040516355c56a4560e11b8152600481018b90523360248201526044016107fc565b60005b6002820154610100900464ffffffffff16811015610e655760008b8152600a60205260409020805433919083908110610e1c57610e1c613538565b60009182526020909120600590910201546001600160a01b031603610e5d576040516301011bf360e71b8152600481018c90523360248201526044016107fc565b600101610de1565b5060005b60008b8152600b6020526040902054811015610eeb5760008b8152600b60205260409020805433919083908110610ea257610ea2613538565b60009182526020909120600490910201546001600160a01b031603610ee3576040516301011bf360e71b8152600481018c90523360248201526044016107fc565b600101610e69565b50610ef78a828b6122c2565b600b60008b81526020019081526020016000206040518060800160405280336001600160a01b031681526020018b81526020018a8a80806020026020016040519081016040528093929190818152602001838360200280828437600092019190915250505090825250604080516020601f8b0181900481028201810190925289815291810191908a908a90819084018382808284376000920182905250939094525050835460018082018655948252602091829020845160049092020180546001600160a01b0319166001600160a01b03909216919091178155838201519481019490945560408301518051939493610ffa935060028501929190910190612ce2565b506060820151600382019061100f90826135e5565b50506040513391508b907fa1afe65d2285036595be8f15025c4421a593141666e15e5a980e742920646b1e90600090a3600281015460008b8152600b6020526040902054600160301b90910464ffffffffff161480156110b4576003828101805460ff1916600183021790555081600101548b60008051602061399f833981519152600260036040516110a39291906136a4565b60405180910390a36110b48b61233e565b5050505050505050505050565b6110c9612735565b6110d36000612767565b565b6060600a6000838152602001908152602001600020805480602002602001604051908101604052809291908181526020016000905b82821015610b815760008481526020908190206040805160a0810182526005860290920180546001600160a01b03168352600181015493830193909352600283015490820152600382018054919291606084019190611168906134db565b80601f0160208091040260200160405190810160405280929190818152602001828054611194906134db565b80156111e15780601f106111b6576101008083540402835291602001916111e1565b820191906000526020600020905b8154815290600101906020018083116111c457829003601f168201915b505050505081526020016004820180546111fa906134db565b80601f0160208091040260200160405190810160405280929190818152602001828054611226906134db565b80156112735780601f1061124857610100808354040283529160200191611273565b820191906000526020600020905b81548152906001019060200180831161125657829003601f168201915b5050505050815250508152602001906001019061110a565b600960209081526000918252604091829020805460018201548451606081018652600284015460ff808216835264ffffffffff6101008304811697840197909752600160301b9091049095169581019590955260038301546004840154600585015460068601546007870180546001600160a01b039097169995989597949095169592949193909290919061131f906134db565b80601f016020809104026020016040519081016040528092919081815260200182805461134b906134db565b80156113985780601f1061136d57610100808354040283529160200191611398565b820191906000526020600020905b81548152906001019060200180831161137b57829003601f168201915b5050505050908060080180546113ad906134db565b80601f01602080910402602001604051908101604052809291908181526020018280546113d9906134db565b80156114265780601f106113fb57610100808354040283529160200191611426565b820191906000526020600020905b81548152906001019060200180831161140957829003601f168201915b5050505050905089565b7f9016d09d72d40fdae2fd8ceac6b6234c7706214fd39c1cd1e609a0528c199300546001600160a01b031690565b600080808061147060208601866136ce565b60ff166002901b9050600154816114879190613701565b9250600254816114979190613701565b9150816114aa606087016040880161372b565b64ffffffffff166114bb9190613701565b6114c59084613748565b6114d5604087016020880161372b565b64ffffffffff166114e69190613701565b6000546114f39190613748565b9350509193909250565b611505612735565b600380546001600160801b031916600160401b6001600160401b039485160267ffffffffffffffff19161791909216179055565b600654604051635f5b248b60e01b81526000916001600160a01b031690635f5b248b9061156c903390859060040161354e565b602060405180830381865afa158015611589573d6000803e3d6000fd5b505050506040513d601f19601f820116820180604052508101906115ad919061357b565b6115cc5760405163bfc6c33760e01b81523360048201526024016107fc565b86600180600083815260096020526040902060039081015460ff16908111156115f7576115f76131ea565b14611632576000828152600960205260409081902060030154905163091e2f1760e31b81526107fc91849160ff90911690849060040161350f565b6000898152600960205260408120905b60008b8152600a60205260409020548110156116c45760008b8152600a6020526040902080543391908390811061167b5761167b613538565b60009182526020909120600590910201546001600160a01b0316036116bc576040516301011bf360e71b8152600481018c90523360248201526044016107fc565b600101611642565b506116d08a828b6122c2565b60006040518060a00160405280336001600160a01b031681526020018b8152602001600081526020018a8a8080601f016020809104026020016040519081016040528093929190818152602001838380828437600092019190915250505090825250604080516020601f8b0181900481028201810190925289815291810191908a908a908190840183828082843760009201829052509390945250508d8152600a6020908152604080832080546001808201835591855293839020865160059095020180546001600160a01b0319166001600160a01b03909516949094178455918501519183019190915583015160028201556060830151929350839290915060038201906117df90826135e5565b50608082015160048201906117f490826135e5565b50506040513391508c907f6c809136a3b8faf74ae9e955b7e7b758baa66bde976764a29fa74a4eb1e3702e90600090a36002820154600160301b900464ffffffffff1660000361184c5761184c3383600401546127d8565b600282015460008c8152600a602052604090205461010090910464ffffffffff16148015611913576002830154600160301b900464ffffffffff166000036118d1576003838101805460ff19168217905560018085015460405190928f9260008051602061399f833981519152926118c492906136a4565b60405180910390a3611913565b60038301805460ff1916600290811790915560018085015460405190928f9260008051602061399f8339815191529261190a92906136a4565b60405180910390a35b505050505050505050505050565b611929612735565b816004611936828261375b565b508190506005611946828261375b565b50505050565b611954612735565b600092909255600155600255565b61196a612735565b6007546001600160a01b031663a9059cbb611983611430565b6007546040516370a0823160e01b81523060048201526001600160a01b03909116906370a0823190602401602060405180830381865afa1580156119cb573d6000803e3d6000fd5b505050506040513d601f19601f820116820180604052508101906119ef91906137e0565b6040516001600160e01b031960e085901b1681526001600160a01b03909216600483015260248201526044016020604051808303816000875af1158015611a3a573d6000803e3d6000fd5b505050506040513d601f19601f82011682018060405250810190611a5e919061357b565b50565b7ff0c57e16840df040f15088dc2f81fe391c3923bec73e23a9662efc9c229c6a008054600160401b810460ff1615906001600160401b0316600081158015611aa65750825b90506000826001600160401b03166001148015611ac25750303b155b905081158015611ad0575080155b15611aee5760405163f92ee8a960e01b815260040160405180910390fd5b845467ffffffffffffffff191660011785558315611b1857845460ff60401b1916600160401b1785555b611b21336128d1565b611b2c8888886128e2565b600680546001600160a01b03808d166001600160a01b03199283161790925560078054928c169290911691909117905560016008558315611ba757845460ff60401b19168555604051600181527fc7f505b2f371ae2175ee4913f4499e1f2633a7b5936321eed1cdaeb6115181d29060200160405180910390a15b50505050505050505050565b600454600090829060ff16611bcb60208301836136ce565b60ff161080611bed575060055460ff16611be860208301836136ce565b60ff16115b15611c3857611bff60208201826136ce565b600480546005546040516371a6675960e11b815260ff9485169381019390935290831660248301529190911660448201526064016107fc565b600454610100900464ffffffffff16611c57604083016020840161372b565b64ffffffffff161080611c8d5750600554610100900464ffffffffff16611c84604083016020840161372b565b64ffffffffff16115b15611ce557611ca2604082016020830161372b565b600480546005546040516371a6675960e11b815264ffffffffff9485169381019390935261010091829004841660248401520490911660448201526064016107fc565b600454600160301b900464ffffffffff16611d06606083016040840161372b565b64ffffffffff161080611d3e5750600554600160301b900464ffffffffff16611d35606083016040840161372b565b64ffffffffff16115b15611d9857611d53606082016040830161372b565b600480546005546040516371a6675960e11b815264ffffffffff94851693810193909352600160301b91829004841660248401520490911660448201526064016107fc565b600754604051636eb1769f60e11b81523360048201523060248201526000916001600160a01b03169063dd62ed3e90604401602060405180830381865afa158015611de7573d6000803e3d6000fd5b505050506040513d601f19601f82011682018060405250810190611e0b91906137e0565b90506000806000611e1b8761145e565b92509250925082841015611e4c57604051631efc11e560e11b815260048101859052602481018490526044016107fc565b6007546040516323b872dd60e01b8152336004820152306024820152604481018590526001600160a01b03909116906323b872dd906064016020604051808303816000875af1158015611ea3573d6000803e3d6000fd5b505050506040513d601f19601f82011682018060405250810190611ec7919061357b565b5060088054600181019091556040518b90339083907f7f371482986a3450b759cc4a079353a8eaa36a650b5eba1fb9c00693026f254a90600090a46040805161012081018252338152602081018d9052908101611f29368b90038b018b6137f9565b81526020016001815260200184815260200183815260200160005481526020018b81526020018a8152506009600083815260200190815260200160002060008201518160000160006101000a8154816001600160a01b0302191690836001600160a01b031602179055506020820151816001015560408201518160020160008201518160000160006101000a81548160ff021916908360ff16021790555060208201518160000160016101000a81548164ffffffffff021916908364ffffffffff16021790555060408201518160000160066101000a81548164ffffffffff021916908364ffffffffff160217905550505060608201518160030160006101000a81548160ff02191690836003811115612045576120456131ea565b02179055506080820151600482015560a0820151600582015560c0820151600682015560e0820151600782019061207c90826135e5565b50610100820151600882019061209290826135e5565b509050508a8160008051602061399f833981519152600060016040516120b99291906136a4565b60405180910390a39a9950505050505050505050565b6120d7612735565b6001600160a01b03811661210157604051631e4fbdf760e01b8152600060048201526024016107fc565b611a5e81612767565b306001600160a01b037f000000000000000000000000000000000000000000000000000000000000000016148061219157507f00000000000000000000000000000000000000000000000000000000000000006001600160a01b03166121856000805160206139bf833981519152546001600160a01b031690565b6001600160a01b031614155b156110d35760405163703e46dd60e11b815260040160405180910390fd5b611a5e612735565b816001600160a01b03166352d1902d6040518163ffffffff1660e01b8152600401602060405180830381865afa925050508015612211575060408051601f3d908101601f1916820190925261220e918101906137e0565b60015b61223957604051634c9c8ce360e01b81526001600160a01b03831660048201526024016107fc565b6000805160206139bf833981519152811461226a57604051632a87526960e21b8152600481018290526024016107fc565b6122748383612974565b505050565b306001600160a01b037f000000000000000000000000000000000000000000000000000000000000000016146110d35760405163703e46dd60e11b815260040160405180910390fd5b81546040516000916122ed91869160078701916001600160a01b03909116903390879060200161386a565b60408051601f1981840301815291905260028401548151602083012091925060001960ff9091161c1015611946576040516306427aeb60e01b815260048101859052602481018390526044016107fc565b6000818152600960205260408120905b6002820154610100900464ffffffffff1681101561259c576002820154600090600160301b900464ffffffffff166001600160401b0381111561239357612393612f9c565b6040519080825280602002602001820160405280156123bc578160200160208202803683370190505b50905060005b6002840154600160301b900464ffffffffff1681101561244e576000858152600b602052604090208054829081106123fc576123fc613538565b9060005260206000209060040201600201838154811061241e5761241e613538565b906000526020600020015482828151811061243b5761243b613538565b60209081029190910101526001016123c2565b5060008061245b836129ca565b9150915060008060005b6002880154600160301b900464ffffffffff1681101561253657600086828151811061249357612493613538565b6020026020010151905085856124a99190613934565b81101580156124c157506124bd8686613748565b8111155b1561252d576124d08185613748565b9350826124dc81613947565b93505061252d600b60008c8152602001908152602001600020838154811061250657612506613538565b600091825260209091206004909102015460058b01546001600160a01b03909116906127d8565b50600101612465565b506000811561254e576125498284613960565b612551565b60005b60008a8152600a60205260409020805491925082918990811061257657612576613538565b600091825260209091206002600590920201015550506001909401935061234e92505050565b506002810154600090610100900464ffffffffff166001600160401b038111156125c8576125c8612f9c565b6040519080825280602002602001820160405280156125f1578160200160208202803683370190505b50905060005b6002830154610100900464ffffffffff16811015612666576000848152600a6020526040902080548290811061262f5761262f613538565b90600052602060002090600502016002015482828151811061265357612653613538565b60209081029190910101526001016125f7565b50600080612673836129ca565b9150915060005b6002850154610100900464ffffffffff1681101561272d576003546126b0908490600160401b90046001600160401b0316613701565b6126ba9083613934565b8482815181106126cc576126cc613538565b602002602001015110612725576000868152600a6020526040902080546127259190839081106126fe576126fe613538565b600091825260209091206005909102015460048701546001600160a01b03909116906127d8565b60010161267a565b505050505050565b3361273e611430565b6001600160a01b0316146110d35760405163118cdaa760e01b81523360048201526024016107fc565b7f9016d09d72d40fdae2fd8ceac6b6234c7706214fd39c1cd1e609a0528c19930080546001600160a01b031981166001600160a01b03848116918217845560405192169182907f8be0079c531659141344cd1fd0a4f28419497f9722a3daafe3b4186f6b6457e090600090a3505050565b600754604051636eb1769f60e11b81523060048201526001600160a01b0384811660248301529091169063095ea7b39084908490849063dd62ed3e90604401602060405180830381865afa158015612834573d6000803e3d6000fd5b505050506040513d601f19601f8201168201806040525081019061285891906137e0565b6128629190613748565b6040516001600160e01b031960e085901b1681526001600160a01b03909216600483015260248201526044016020604051808303816000875af11580156128ad573d6000803e3d6000fd5b505050506040513d601f19601f82011682018060405250810190612274919061357b565b6128d96129f2565b611a5e81612a3b565b6128ea6129f2565b60408051606080820183526001808352602080840191909152600092840192909252600480546101016affffffffffffffffffffff199182161790915583519182018452600a80835292820183905292015260058054909116660a000000000a0a179055600380546001600160801b0319166801000000000000000217905561227483838361194c565b61297d82612a43565b6040516001600160a01b038316907fbc7cd75a20ee27fd9adebab32041f755214dbc6bffa90cc0225b39da2e5c2d3b90600090a28051156129c2576122748282612aa8565b610c7d612b20565b6000806000806129d985612b3f565b915091508092506129e982612bb7565b93505050915091565b7ff0c57e16840df040f15088dc2f81fe391c3923bec73e23a9662efc9c229c6a0054600160401b900460ff166110d357604051631afcd79f60e31b815260040160405180910390fd5b6120d76129f2565b806001600160a01b03163b600003612a7957604051634c9c8ce360e01b81526001600160a01b03821660048201526024016107fc565b6000805160206139bf83398151915280546001600160a01b0319166001600160a01b0392909216919091179055565b6060600080846001600160a01b031684604051612ac59190613982565b600060405180830381855af49150503d8060008114612b00576040519150601f19603f3d011682016040523d82523d6000602084013e612b05565b606091505b5091509150612b15858383612c10565b925050505b92915050565b34156110d35760405163b398979f60e01b815260040160405180910390fd5b600080612b4b83612c6f565b90506000805b8451811015612ba257600083868381518110612b6f57612b6f613538565b6020026020010151612b819190613934565b9050612b8d8180613701565b612b979084613748565b925050600101612b51565b508351612baf9082613960565b925050915091565b6000806002612bc7846001613748565b612bd19190613960565b90508291505b81811015612c0a57905080600281612bef8186613960565b612bf99190613748565b612c039190613960565b9050612bd7565b50919050565b606082612c2557612c2082612cb9565b612c68565b8151158015612c3c57506001600160a01b0384163b155b15612c6557604051639996b31560e01b81526001600160a01b03851660048201526024016107fc565b50805b9392505050565b600080805b8351811015612cac57838181518110612c8f57612c8f613538565b602002602001015182612ca29190613748565b9150600101612c74565b508251612c689082613960565b805115612cc95780518082602001fd5b604051630a12f52160e11b815260040160405180910390fd5b828054828255906000526020600020908101928215612d1d579160200282015b82811115612d1d578251825591602001919060010190612d02565b50612d29929150612d2d565b5090565b5b80821115612d295760008155600101612d2e565b60008060408385031215612d5557600080fd5b50508035926020909101359150565b60005b83811015612d7f578181015183820152602001612d67565b50506000910152565b60008151808452612da0816020860160208601612d64565b601f01601f19169290920160200192915050565b60018060a01b038616815284602082015283604082015260a060608201526000612de160a0830185612d88565b8281036080840152612df38185612d88565b98975050505050505050565b600060208284031215612e1157600080fd5b5035919050565b60018060a01b03815116825260208101516020830152604081015160408301526000606082015160a06060850152612e5360a0850182612d88565b905060808301518482036080860152612b158282612d88565b602081526000612c686020830184612e18565b600060208083018184528085518083526040925060408601915060408160051b8701018488016000805b84811015612f4157898403603f19018652825180516001600160a01b031685528881015189860152878101516080898701819052815190870181905260a08701918b019085905b80821015612f105782518452928c0192918c019160019190910190612ef0565b50505060608083015192508682038188015250612f2d8183612d88565b978a01979550505091870191600101612ea9565b50919998505050505050505050565b60018060a01b0384168152826020820152606060408201526000612f776060830184612d88565b95945050505050565b80356001600160a01b0381168114612f9757600080fd5b919050565b634e487b7160e01b600052604160045260246000fd5b600082601f830112612fc357600080fd5b81356001600160401b0380821115612fdd57612fdd612f9c565b604051601f8301601f19908116603f0116810190828211818310171561300557613005612f9c565b8160405283815286602085880101111561301e57600080fd5b836020870160208301376000602085830101528094505050505092915050565b6000806040838503121561305157600080fd5b61305a83612f80565b915060208301356001600160401b0381111561307557600080fd5b61308185828601612fb2565b9150509250929050565b60008083601f84011261309d57600080fd5b5081356001600160401b038111156130b457600080fd5b6020830191508360208285010111156130cc57600080fd5b9250929050565b600080600080600080608087890312156130ec57600080fd5b863595506020870135945060408701356001600160401b038082111561311157600080fd5b818901915089601f83011261312557600080fd5b81358181111561313457600080fd5b8a60208260051b850101111561314957600080fd5b60208301965080955050606089013591508082111561316757600080fd5b5061317489828a0161308b565b979a9699509497509295939492505050565b600060208083016020845280855180835260408601915060408160051b87010192506020870160005b828110156131dd57603f198886030184526131cb858351612e18565b945092850192908501906001016131af565b5092979650505050505050565b634e487b7160e01b600052602160045260246000fd5b60048110613210576132106131ea565b9052565b6001600160a01b038a16815260208082018a9052885160ff166040808401919091529089015164ffffffffff908116606084015290890151166080820152600061016061326460a084018a613200565b8760c08401528660e0840152856101008401528061012084015261328a81840186612d88565b905082810361014084015261329f8185612d88565b9c9b505050505050505050505050565b602081526000612c686020830184612d88565b600060608284031215612c0a57600080fd5b6000606082840312156132e657600080fd5b612c6883836132c2565b80356001600160401b0381168114612f9757600080fd5b6000806040838503121561331a57600080fd5b613323836132f0565b9150613331602084016132f0565b90509250929050565b6000806000806000806080878903121561335357600080fd5b863595506020870135945060408701356001600160401b038082111561337857600080fd5b6133848a838b0161308b565b9096509450606089013591508082111561316757600080fd5b60008060c083850312156133b057600080fd5b6133ba84846132c2565b915061333184606085016132c2565b6000806000606084860312156133de57600080fd5b505081359360208301359350604090920135919050565b600080600080600060a0868803121561340d57600080fd5b61341686612f80565b945061342460208701612f80565b94979496505050506040830135926060810135926080909101359150565b60008060008060c0858703121561345857600080fd5b8435935060208501356001600160401b038082111561347657600080fd5b61348288838901612fb2565b9450604087013591508082111561349857600080fd5b506134a587828801612fb2565b9250506134b586606087016132c2565b905092959194509250565b6000602082840312156134d257600080fd5b612c6882612f80565b600181811c908216806134ef57607f821691505b602082108103612c0a57634e487b7160e01b600052602260045260246000fd5b838152606081016135236020830185613200565b6135306040830184613200565b949350505050565b634e487b7160e01b600052603260045260246000fd5b6001600160a01b0383168152604081016002831061356e5761356e6131ea565b8260208301529392505050565b60006020828403121561358d57600080fd5b81518015158114612c6857600080fd5b601f821115612274576000816000526020600020601f850160051c810160208610156135c65750805b601f850160051c820191505b8181101561272d578281556001016135d2565b81516001600160401b038111156135fe576135fe612f9c565b6136128161360c84546134db565b8461359d565b602080601f831160018114613647576000841561362f5750858301515b600019600386901b1c1916600185901b17855561272d565b600085815260208120601f198616915b8281101561367657888601518255948401946001909101908401613657565b50858210156136945787850151600019600388901b60f8161c191681555b5050505050600190811b01905550565b604081016136b28285613200565b612c686020830184613200565b60ff81168114611a5e57600080fd5b6000602082840312156136e057600080fd5b8135612c68816136bf565b634e487b7160e01b600052601160045260246000fd5b8082028115828204841417612b1a57612b1a6136eb565b64ffffffffff81168114611a5e57600080fd5b60006020828403121561373d57600080fd5b8135612c6881613718565b80820180821115612b1a57612b1a6136eb565b8135613766816136bf565b60ff8116905081548160ff198216178355602084013561378581613718565b65ffffffffff008160081b169050808365ffffffffffff1984161717845560408501356137b181613718565b6affffffffff0000000000008160301b16846affffffffffffffffffffff198516178317178555505050505050565b6000602082840312156137f257600080fd5b5051919050565b60006060828403121561380b57600080fd5b604051606081018181106001600160401b038211171561382d5761382d612f9c565b604052823561383b816136bf565b8152602083013561384b81613718565b6020820152604083013561385e81613718565b60408201529392505050565b858152600060206000875461387e816134db565b6001828116801561389657600181146138af576138df565b60ff1984168887015282151583028801860194506138df565b8b6000528560002060005b848110156138d55781548a82018901529083019087016138ba565b5050858389010194505b505050506138fe818860601b6bffffffffffffffffffffffff19169052565b61391c601482018760601b6bffffffffffffffffffffffff19169052565b84602882015260488101925050509695505050505050565b81810381811115612b1a57612b1a6136eb565b600060018201613959576139596136eb565b5060010190565b60008261397d57634e487b7160e01b600052601260045260246000fd5b500490565b60008251613994818460208701612d64565b919091019291505056fe1c0a5e4b371d60717068c91e93b5e94c91d4c6d6c3fab36082a78f987e5a69f5360894a13ba1a3210667c828492db98dca3e2076cc3735a920a3ca505d382bbca2646970667358221220e506012bfa1c220f24666920052bcb69f69fbe1bbc89195b2621d585a63c763e64736f6c63430008180033",
  "linkReferences": {},
  "deployedLinkReferences": {}
}