{
  "_format": "hh-sol-artifact-1",
  "contractName": "LLMOracleCoordinator",
  "sourceName": "contracts/llm/LLMOracleCoordinator.sol",
  "abi": [
    {
      "inputs": [
        {
          "internalType": "address",
          "name": "_oracleRegistry",
          "type": "address"
        },
        {
          "internalType": "address",
          "name": "_feeToken",
          "type": "address"
        }
      ],
      "stateMutability": "nonpayable",
      "type": "constructor"
    },
    {
      "inputs": [
        {
          "internalType": "uint256",
          "name": "taskId",
          "type": "uint256"
        },
        {
          "internalType": "address",
          "name": "responder",
          "type": "address"
        }
      ],
      "name": "AlreadyResponded",
      "type": "error"
    },
    {
      "inputs": [
        {
          "internalType": "uint256",
          "name": "given",
          "type": "uint256"
        },
        {
          "internalType": "uint256",
          "name": "required",
          "type": "uint256"
        }
      ],
      "name": "InsufficientRewards",
      "type": "error"
    },
    {
      "inputs": [
        {
          "internalType": "uint8",
          "name": "difficulty",
          "type": "uint8"
        }
      ],
      "name": "InvalidDifficulty",
      "type": "error"
    },
    {
      "inputs": [],
      "name": "InvalidNonce",
      "type": "error"
    },
    {
      "inputs": [
        {
          "internalType": "uint256",
          "name": "taskId",
          "type": "uint256"
        },
        {
          "internalType": "enum TaskStatus",
          "name": "status",
          "type": "uint8"
        }
      ],
      "name": "InvalidTaskId",
      "type": "error"
    },
    {
      "inputs": [],
      "name": "InvalidValidation",
      "type": "error"
    },
    {
      "inputs": [
        {
          "internalType": "address",
          "name": "responder",
          "type": "address"
        }
      ],
      "name": "NotRegistered",
      "type": "error"
    },
    {
      "inputs": [
        {
          "internalType": "address",
          "name": "owner",
          "type": "address"
        }
      ],
      "name": "OwnableInvalidOwner",
      "type": "error"
    },
    {
      "inputs": [
        {
          "internalType": "address",
          "name": "account",
          "type": "address"
        }
      ],
      "name": "OwnableUnauthorizedAccount",
      "type": "error"
    },
    {
      "anonymous": false,
      "inputs": [
        {
          "indexed": true,
          "internalType": "uint256",
          "name": "taskId",
          "type": "uint256"
        },
        {
          "indexed": true,
          "internalType": "address",
          "name": "requester",
          "type": "address"
        }
      ],
      "name": "LLMRequest",
      "type": "event"
    },
    {
      "anonymous": false,
      "inputs": [
        {
          "indexed": true,
          "internalType": "uint256",
          "name": "taskId",
          "type": "uint256"
        },
        {
          "indexed": true,
          "internalType": "address",
          "name": "responder",
          "type": "address"
        }
      ],
      "name": "LLMResponse",
      "type": "event"
    },
    {
      "anonymous": false,
      "inputs": [
        {
          "indexed": true,
          "internalType": "uint256",
          "name": "taskId",
          "type": "uint256"
        }
      ],
      "name": "LLMResponseComplete",
      "type": "event"
    },
    {
      "anonymous": false,
      "inputs": [
        {
          "indexed": true,
          "internalType": "uint256",
          "name": "taskId",
          "type": "uint256"
        },
        {
          "indexed": true,
          "internalType": "address",
          "name": "validator",
          "type": "address"
        }
      ],
      "name": "LLMValidation",
      "type": "event"
    },
    {
      "anonymous": false,
      "inputs": [
        {
          "indexed": true,
          "internalType": "address",
          "name": "previousOwner",
          "type": "address"
        },
        {
          "indexed": true,
          "internalType": "address",
          "name": "newOwner",
          "type": "address"
        }
      ],
      "name": "OwnershipTransferred",
      "type": "event"
    },
    {
      "inputs": [],
      "name": "feeToken",
      "outputs": [
        {
          "internalType": "contract ERC20",
          "name": "",
          "type": "address"
        }
      ],
      "stateMutability": "view",
      "type": "function"
    },
    {
      "inputs": [],
      "name": "generationDeviationFactor",
      "outputs": [
        {
          "internalType": "uint64",
          "name": "",
          "type": "uint64"
        }
      ],
      "stateMutability": "view",
      "type": "function"
    },
    {
      "inputs": [],
      "name": "generationFee",
      "outputs": [
        {
          "internalType": "uint256",
          "name": "",
          "type": "uint256"
        }
      ],
      "stateMutability": "view",
      "type": "function"
    },
    {
      "inputs": [
        {
          "internalType": "uint8",
          "name": "difficulty",
          "type": "uint8"
        },
        {
          "internalType": "uint40",
          "name": "numGenerations",
          "type": "uint40"
        },
        {
          "internalType": "uint40",
          "name": "numValidations",
          "type": "uint40"
        }
      ],
      "name": "getFee",
      "outputs": [
        {
          "internalType": "uint256",
          "name": "totalFee",
          "type": "uint256"
        },
        {
          "internalType": "uint256",
          "name": "generatorFee",
          "type": "uint256"
        },
        {
          "internalType": "uint256",
          "name": "validatorFee",
          "type": "uint256"
        }
      ],
      "stateMutability": "view",
      "type": "function"
    },
    {
      "inputs": [],
      "name": "maxDifficulty",
      "outputs": [
        {
          "internalType": "uint64",
          "name": "",
          "type": "uint64"
        }
      ],
      "stateMutability": "view",
      "type": "function"
    },
    {
      "inputs": [],
      "name": "minDifficulty",
      "outputs": [
        {
          "internalType": "uint64",
          "name": "",
          "type": "uint64"
        }
      ],
      "stateMutability": "view",
      "type": "function"
    },
    {
      "inputs": [],
      "name": "nextTaskId",
      "outputs": [
        {
          "internalType": "uint256",
          "name": "",
          "type": "uint256"
        }
      ],
      "stateMutability": "view",
      "type": "function"
    },
    {
      "inputs": [],
      "name": "owner",
      "outputs": [
        {
          "internalType": "address",
          "name": "",
          "type": "address"
        }
      ],
      "stateMutability": "view",
      "type": "function"
    },
    {
      "inputs": [],
      "name": "platformFee",
      "outputs": [
        {
          "internalType": "uint256",
          "name": "",
          "type": "uint256"
        }
      ],
      "stateMutability": "view",
      "type": "function"
    },
    {
      "inputs": [],
      "name": "registry",
      "outputs": [
        {
          "internalType": "contract LLMOracleRegistry",
          "name": "",
          "type": "address"
        }
      ],
      "stateMutability": "view",
      "type": "function"
    },
    {
      "inputs": [],
      "name": "renounceOwnership",
      "outputs": [],
      "stateMutability": "nonpayable",
      "type": "function"
    },
    {
      "inputs": [
        {
          "internalType": "bytes",
          "name": "input",
          "type": "bytes"
        },
        {
          "internalType": "uint8",
          "name": "difficulty",
          "type": "uint8"
        },
        {
          "internalType": "uint40",
          "name": "numGenerations",
          "type": "uint40"
        },
        {
          "internalType": "uint40",
          "name": "numValidations",
          "type": "uint40"
        }
      ],
      "name": "request",
      "outputs": [],
      "stateMutability": "nonpayable",
      "type": "function"
    },
    {
      "inputs": [
        {
          "internalType": "uint256",
          "name": "taskId",
          "type": "uint256"
        }
      ],
      "name": "requests",
      "outputs": [
        {
          "internalType": "address",
          "name": "requester",
          "type": "address"
        },
        {
          "internalType": "uint40",
          "name": "numGenerations",
          "type": "uint40"
        },
        {
          "internalType": "uint40",
          "name": "numValidations",
          "type": "uint40"
        },
        {
          "internalType": "uint8",
          "name": "difficulty",
          "type": "uint8"
        },
        {
          "internalType": "enum TaskStatus",
          "name": "status",
          "type": "uint8"
        },
        {
          "internalType": "uint256",
          "name": "generatorFee",
          "type": "uint256"
        },
        {
          "internalType": "uint256",
          "name": "validatorFee",
          "type": "uint256"
        },
        {
          "internalType": "bytes",
          "name": "input",
          "type": "bytes"
        }
      ],
      "stateMutability": "view",
      "type": "function"
    },
    {
      "inputs": [
        {
          "internalType": "uint256",
          "name": "taskId",
          "type": "uint256"
        },
        {
          "internalType": "uint256",
          "name": "nonce",
          "type": "uint256"
        },
        {
          "internalType": "bytes",
          "name": "output",
          "type": "bytes"
        }
      ],
      "name": "respond",
      "outputs": [],
      "stateMutability": "nonpayable",
      "type": "function"
    },
    {
      "inputs": [
        {
          "internalType": "uint256",
          "name": "taskId",
          "type": "uint256"
        },
        {
          "internalType": "uint256",
          "name": "",
          "type": "uint256"
        }
      ],
      "name": "responses",
      "outputs": [
        {
          "internalType": "address",
          "name": "responder",
          "type": "address"
        },
        {
          "internalType": "uint256",
          "name": "nonce",
          "type": "uint256"
        },
        {
          "internalType": "bytes",
          "name": "output",
          "type": "bytes"
        },
        {
          "internalType": "uint256",
          "name": "score",
          "type": "uint256"
        }
      ],
      "stateMutability": "view",
      "type": "function"
    },
    {
      "inputs": [
        {
          "internalType": "uint64",
          "name": "_generationDeviationFactor",
          "type": "uint64"
        },
        {
          "internalType": "uint64",
          "name": "_validationDeviationFactor",
          "type": "uint64"
        }
      ],
      "name": "setDeviationFactors",
      "outputs": [],
      "stateMutability": "nonpayable",
      "type": "function"
    },
    {
      "inputs": [
        {
          "internalType": "uint64",
          "name": "_minDifficulty",
          "type": "uint64"
        },
        {
          "internalType": "uint64",
          "name": "_maxDifficulty",
          "type": "uint64"
        }
      ],
      "name": "setDifficulty",
      "outputs": [],
      "stateMutability": "nonpayable",
      "type": "function"
    },
    {
      "inputs": [
        {
          "internalType": "uint256",
          "name": "_generationFee",
          "type": "uint256"
        },
        {
          "internalType": "uint256",
          "name": "_platformFee",
          "type": "uint256"
        },
        {
          "internalType": "uint256",
          "name": "_validationFee",
          "type": "uint256"
        }
      ],
      "name": "setFees",
      "outputs": [],
      "stateMutability": "nonpayable",
      "type": "function"
    },
    {
      "inputs": [
        {
          "internalType": "address",
          "name": "newOwner",
          "type": "address"
        }
      ],
      "name": "transferOwnership",
      "outputs": [],
      "stateMutability": "nonpayable",
      "type": "function"
    },
    {
      "inputs": [
        {
          "internalType": "uint256",
          "name": "taskId",
          "type": "uint256"
        },
        {
          "internalType": "uint256",
          "name": "nonce",
          "type": "uint256"
        },
        {
          "internalType": "uint256[]",
          "name": "scores",
          "type": "uint256[]"
        }
      ],
      "name": "validate",
      "outputs": [],
      "stateMutability": "nonpayable",
      "type": "function"
    },
    {
      "inputs": [],
      "name": "validationDeviationFactor",
      "outputs": [
        {
          "internalType": "uint64",
          "name": "",
          "type": "uint64"
        }
      ],
      "stateMutability": "view",
      "type": "function"
    },
    {
      "inputs": [],
      "name": "validationFee",
      "outputs": [
        {
          "internalType": "uint256",
          "name": "",
          "type": "uint256"
        }
      ],
      "stateMutability": "view",
      "type": "function"
    },
    {
      "inputs": [
        {
          "internalType": "uint256",
          "name": "taskId",
          "type": "uint256"
        },
        {
          "internalType": "uint256",
          "name": "",
          "type": "uint256"
        }
      ],
      "name": "validations",
      "outputs": [
        {
          "internalType": "address",
          "name": "validator",
          "type": "address"
        },
        {
          "internalType": "uint256",
          "name": "nonce",
          "type": "uint256"
        }
      ],
      "stateMutability": "view",
      "type": "function"
    },
    {
      "inputs": [],
      "name": "withdrawPlatformFees",
      "outputs": [],
      "stateMutability": "nonpayable",
      "type": "function"
    }
  ],
  "bytecode": "0x60c060405266038d7ea4c6800060015566470de4df820000600255662386f26fc10000600355600160045560088060006101000a81548167ffffffffffffffff021916908367ffffffffffffffff16021790555060016008806101000a81548167ffffffffffffffff021916908367ffffffffffffffff1602179055506002600860106101000a81548167ffffffffffffffff021916908367ffffffffffffffff1602179055506001600860186101000a81548167ffffffffffffffff021916908367ffffffffffffffff160217905550348015620000dd57600080fd5b5060405162003a6f38038062003a6f833981810160405281019062000103919062000329565b33600073ffffffffffffffffffffffffffffffffffffffff168173ffffffffffffffffffffffffffffffffffffffff1603620001795760006040517f1e4fbdf700000000000000000000000000000000000000000000000000000000815260040162000170919062000381565b60405180910390fd5b6200018a81620001fb60201b60201c565b508173ffffffffffffffffffffffffffffffffffffffff1660808173ffffffffffffffffffffffffffffffffffffffff16815250508073ffffffffffffffffffffffffffffffffffffffff1660a08173ffffffffffffffffffffffffffffffffffffffff168152505050506200039e565b60008060009054906101000a900473ffffffffffffffffffffffffffffffffffffffff169050816000806101000a81548173ffffffffffffffffffffffffffffffffffffffff021916908373ffffffffffffffffffffffffffffffffffffffff1602179055508173ffffffffffffffffffffffffffffffffffffffff168173ffffffffffffffffffffffffffffffffffffffff167f8be0079c531659141344cd1fd0a4f28419497f9722a3daafe3b4186f6b6457e060405160405180910390a35050565b600080fd5b600073ffffffffffffffffffffffffffffffffffffffff82169050919050565b6000620002f182620002c4565b9050919050565b6200030381620002e4565b81146200030f57600080fd5b50565b6000815190506200032381620002f8565b92915050565b60008060408385031215620003435762000342620002bf565b5b6000620003538582860162000312565b9250506020620003668582860162000312565b9150509250929050565b6200037b81620002e4565b82525050565b600060208201905062000398600083018462000370565b92915050565b60805160a05161366c620004036000396000818161093d01528181611110015281816115110152818161160c015281816118d70152818161191b01528181611d9b015261209101526000818161054201528181610b490152611148015261366c6000f3fe608060405234801561001057600080fd5b50600436106101575760003560e01c80639a997453116100c3578063ce10fc271161007c578063ce10fc27146103b1578063cec10c11146103cd578063d0b7830b146103e9578063f2fde38b146103f3578063f8bbf27e1461040f578063fdc3d8d71461042d57610157565b80639a997453146102ed578063b1b1d93c1461030b578063b2cf442814610327578063b4a9328314610359578063c4c1c24714610377578063ca287c351461039357610157565b8063647846a511610115578063647846a514610234578063715018a6146102525780637b1039991461025c57806381d12c581461027a5780638da5cb5b146102b157806393e0a29c146102cf57610157565b806257efc21461015c578063036e9f3c1461018f5780630566f18a146101ab57806326232a2e146101c95780634b5a82d1146101e75780635cb5055b14610218575b600080fd5b6101766004803603810190610171919061250a565b61044b565b604051610186949392919061262a565b60405180910390f35b6101a960048036038101906101a491906127ab565b610540565b005b6101b3610ada565b6040516101c0919061281a565b60405180910390f35b6101d1610ae0565b6040516101de919061281a565b60405180910390f35b61020160048036038101906101fc919061250a565b610ae6565b60405161020f929190612835565b60405180910390f35b610232600480360381019061022d9190612926565b610b47565b005b61023c61110e565b60405161024991906129f4565b60405180910390f35b61025a611132565b005b610264611146565b6040516102719190612a30565b60405180910390f35b610294600480360381019061028f9190612a4b565b61116a565b6040516102a8989796959493929190612b2b565b60405180910390f35b6102b9611296565b6040516102c69190612bb0565b60405180910390f35b6102d76112bf565b6040516102e49190612bee565b60405180910390f35b6102f56112d9565b6040516103029190612bee565b60405180910390f35b61032560048036038101906103209190612c35565b6112f3565b005b610341600480360381019061033c9190612ccd565b611351565b60405161035093929190612d20565b60405180910390f35b6103616113d7565b60405161036e9190612bee565b60405180910390f35b610391600480360381019061038c9190612c35565b6113ef565b005b61039b61144c565b6040516103a89190612bee565b60405180910390f35b6103cb60048036038101906103c69190612d57565b611466565b005b6103e760048036038101906103e29190612dda565b6118ab565b005b6103f16118cd565b005b61040d60048036038101906104089190612e59565b611a16565b005b610417611a9c565b604051610424919061281a565b60405180910390f35b610435611aa2565b604051610442919061281a565b60405180910390f35b6006602052816000526040600020818154811061046757600080fd5b9060005260206000209060040201600091509150508060000160009054906101000a900473ffffffffffffffffffffffffffffffffffffffff16908060010154908060020180546104b790612eb5565b80601f01602080910402602001604051908101604052809291908181526020018280546104e390612eb5565b80156105305780601f1061050557610100808354040283529160200191610530565b820191906000526020600020905b81548152906001019060200180831161051357829003601f168201915b5050505050908060030154905084565b7f000000000000000000000000000000000000000000000000000000000000000073ffffffffffffffffffffffffffffffffffffffff1663c3c5a547336040518263ffffffff1660e01b81526004016105999190612bb0565b602060405180830381865afa1580156105b6573d6000803e3d6000fd5b505050506040513d601f19601f820116820180604052508101906105da9190612f1e565b61061b57336040517fbfc6c3370000000000000000000000000000000000000000000000000000000081526004016106129190612bb0565b60405180910390fd5b82600180600381111561063157610630612ab4565b5b60056000848152602001908152602001600020600001601f9054906101000a900460ff16600381111561066757610666612ab4565b5b146106ce578160056000848152602001908152602001600020600001601f9054906101000a900460ff166040517f6c22dcfd0000000000000000000000000000000000000000000000000000000081526004016106c5929190612f4b565b60405180910390fd5b600060056000878152602001908152602001600020905060005b60066000888152602001908152602001600020805490508110156107db573373ffffffffffffffffffffffffffffffffffffffff1660066000898152602001908152602001600020828154811061074257610741612f74565b5b906000526020600020906004020160000160009054906101000a900473ffffffffffffffffffffffffffffffffffffffff1673ffffffffffffffffffffffffffffffffffffffff16036107ce5786336040517f808df9800000000000000000000000000000000000000000000000000000000081526004016107c5929190612fa3565b60405180910390fd5b80806001019150506106e8565b506107e7868287611aa8565b600060405180608001604052803373ffffffffffffffffffffffffffffffffffffffff168152602001878152602001868152602001600081525090506006600088815260200190815260200160002081908060018154018082558091505060019003906000526020600020906004020160009091909190915060008201518160000160006101000a81548173ffffffffffffffffffffffffffffffffffffffff021916908373ffffffffffffffffffffffffffffffffffffffff1602179055506020820151816001015560408201518160020190816108c6919061316e565b506060820151816003015550503373ffffffffffffffffffffffffffffffffffffffff16877f928b4efb6376d050e44d6795482a24a8e411b73caae6f61956466b0d69ff48cd60405160405180910390a360008260000160199054906101000a900464ffffffffff1664ffffffffff16036109df577f000000000000000000000000000000000000000000000000000000000000000073ffffffffffffffffffffffffffffffffffffffff1663095ea7b33384600101546040518363ffffffff1660e01b815260040161099a929190612835565b6020604051808303816000875af11580156109b9573d6000803e3d6000fd5b505050506040513d601f19601f820116820180604052508101906109dd9190612f1e565b505b60008260000160149054906101000a900464ffffffffff1664ffffffffff16600660008a8152602001908152602001600020805490501490508015610ad05760008360000160199054906101000a900464ffffffffff1664ffffffffff1603610aa157600383600001601f6101000a81548160ff02191690836003811115610a6a57610a69612ab4565b5b0217905550877fe0e8fbcd167f40d60c8edfef46f23469d7cd29b5a4ea3ae1bf3f9aafe6ad71f260405160405180910390a2610acf565b600283600001601f6101000a81548160ff02191690836003811115610ac957610ac8612ab4565b5b02179055505b5b5050505050505050565b60025481565b60015481565b60076020528160005260406000208181548110610b0257600080fd5b9060005260206000209060030201600091509150508060000160009054906101000a900473ffffffffffffffffffffffffffffffffffffffff16908060010154905082565b7f000000000000000000000000000000000000000000000000000000000000000073ffffffffffffffffffffffffffffffffffffffff1663c3c5a547336040518263ffffffff1660e01b8152600401610ba09190612bb0565b602060405180830381865afa158015610bbd573d6000803e3d6000fd5b505050506040513d601f19601f82011682018060405250810190610be19190612f1e565b610c2257336040517fbfc6c337000000000000000000000000000000000000000000000000000000008152600401610c199190612bb0565b60405180910390fd5b826002806003811115610c3857610c37612ab4565b5b60056000848152602001908152602001600020600001601f9054906101000a900460ff166003811115610c6e57610c6d612ab4565b5b14610cd5578160056000848152602001908152602001600020600001601f9054906101000a900460ff166040517f6c22dcfd000000000000000000000000000000000000000000000000000000008152600401610ccc929190612f4b565b60405180910390fd5b60006005600087815260200190815260200160002090508060000160149054906101000a900464ffffffffff1664ffffffffff16845114610d42576040517f4af2691500000000000000000000000000000000000000000000000000000000815260040160405180910390fd5b60005b8160000160149054906101000a900464ffffffffff1664ffffffffff16811015610e3e573373ffffffffffffffffffffffffffffffffffffffff16600660008981526020019081526020016000208281548110610da557610da4612f74565b5b906000526020600020906004020160000160009054906101000a900473ffffffffffffffffffffffffffffffffffffffff1673ffffffffffffffffffffffffffffffffffffffff1603610e315786336040517f808df980000000000000000000000000000000000000000000000000000000008152600401610e28929190612fa3565b60405180910390fd5b8080600101915050610d45565b5060005b6007600088815260200190815260200160002080549050811015610f35573373ffffffffffffffffffffffffffffffffffffffff16600760008981526020019081526020016000208281548110610e9c57610e9b612f74565b5b906000526020600020906003020160000160009054906101000a900473ffffffffffffffffffffffffffffffffffffffff1673ffffffffffffffffffffffffffffffffffffffff1603610f285786336040517f808df980000000000000000000000000000000000000000000000000000000008152600401610f1f929190612fa3565b60405180910390fd5b8080600101915050610e42565b50610f41868287611aa8565b6007600087815260200190815260200160002060405180606001604052803373ffffffffffffffffffffffffffffffffffffffff16815260200187815260200186815250908060018154018082558091505060019003906000526020600020906003020160009091909190915060008201518160000160006101000a81548173ffffffffffffffffffffffffffffffffffffffff021916908373ffffffffffffffffffffffffffffffffffffffff16021790555060208201518160010155604082015181600201908051906020019061101b929190612456565b5050503373ffffffffffffffffffffffffffffffffffffffff16867ff738d6c476458e77b1d824063618c52f1135ac7185a727bf6cb6bdc4d7eedfd460405160405180910390a360008160000160199054906101000a900464ffffffffff1664ffffffffff166007600089815260200190815260200160002080549050149050801561110557600382600001601f6101000a81548160ff021916908360038111156110c9576110c8612ab4565b5b0217905550867fe0e8fbcd167f40d60c8edfef46f23469d7cd29b5a4ea3ae1bf3f9aafe6ad71f260405160405180910390a261110487611b7c565b5b50505050505050565b7f000000000000000000000000000000000000000000000000000000000000000081565b61113a61219e565b6111446000612225565b565b7f000000000000000000000000000000000000000000000000000000000000000081565b60056020528060005260406000206000915090508060000160009054906101000a900473ffffffffffffffffffffffffffffffffffffffff16908060000160149054906101000a900464ffffffffff16908060000160199054906101000a900464ffffffffff169080600001601e9054906101000a900460ff169080600001601f9054906101000a900460ff169080600101549080600201549080600301805461121390612eb5565b80601f016020809104026020016040519081016040528092919081815260200182805461123f90612eb5565b801561128c5780601f106112615761010080835404028352916020019161128c565b820191906000526020600020905b81548152906001019060200180831161126f57829003601f168201915b5050505050905088565b60008060009054906101000a900473ffffffffffffffffffffffffffffffffffffffff16905090565b600860109054906101000a900467ffffffffffffffff1681565b600860009054906101000a900467ffffffffffffffff1681565b6112fb61219e565b81600860186101000a81548167ffffffffffffffff021916908367ffffffffffffffff16021790555080600860106101000a81548167ffffffffffffffff021916908367ffffffffffffffff1602179055505050565b60008060006002548564ffffffffff1661136b919061326f565b8660ff166002901b61137d919061326f565b9150600354848661138e91906132b1565b64ffffffffff1661139f919061326f565b8660ff166002901b6113b1919061326f565b905080826001546113c291906132ee565b6113cc91906132ee565b925093509350939050565b60088054906101000a900467ffffffffffffffff1681565b6113f761219e565b816008806101000a81548167ffffffffffffffff021916908367ffffffffffffffff16021790555080600860006101000a81548167ffffffffffffffff021916908367ffffffffffffffff1602179055505050565b600860189054906101000a900467ffffffffffffffff1681565b60008264ffffffffff160361147a57600080fd5b60088054906101000a900467ffffffffffffffff1667ffffffffffffffff168360ff1610806114cb5750600860009054906101000a900467ffffffffffffffff1667ffffffffffffffff168360ff16115b1561150d57826040517f976b01220000000000000000000000000000000000000000000000000000000081526004016115049190613322565b60405180910390fd5b60007f000000000000000000000000000000000000000000000000000000000000000073ffffffffffffffffffffffffffffffffffffffff1663dd62ed3e33306040518363ffffffff1660e01b815260040161156a92919061333d565b602060405180830381865afa158015611587573d6000803e3d6000fd5b505050506040513d601f19601f820116820180604052508101906115ab919061337b565b905060008060006115bd878787611351565b9250925092508284101561160a5783836040517f3df823ca0000000000000000000000000000000000000000000000000000000081526004016116019291906133a8565b60405180910390fd5b7f000000000000000000000000000000000000000000000000000000000000000073ffffffffffffffffffffffffffffffffffffffff166323b872dd3330866040518463ffffffff1660e01b8152600401611667939291906133d1565b6020604051808303816000875af1158015611686573d6000803e3d6000fd5b505050506040513d601f19601f820116820180604052508101906116aa9190612f1e565b506040518061010001604052803373ffffffffffffffffffffffffffffffffffffffff1681526020018764ffffffffff1681526020018664ffffffffff1681526020018860ff1681526020016001600381111561170a57611709612ab4565b5b81526020018381526020018281526020018981525060056000600454815260200190815260200160002060008201518160000160006101000a81548173ffffffffffffffffffffffffffffffffffffffff021916908373ffffffffffffffffffffffffffffffffffffffff16021790555060208201518160000160146101000a81548164ffffffffff021916908364ffffffffff16021790555060408201518160000160196101000a81548164ffffffffff021916908364ffffffffff160217905550606082015181600001601e6101000a81548160ff021916908360ff160217905550608082015181600001601f6101000a81548160ff0219169083600381111561181957611818612ab4565b5b021790555060a0820151816001015560c0820151816002015560e0820151816003019081611847919061316e565b509050503373ffffffffffffffffffffffffffffffffffffffff166004547f5a545dd9d7bb71e4ab06bd1712aae61e1edb831eac4dc36fd95ecac6aa54785060405160405180910390a3600460008154600101919050819055505050505050505050565b6118b361219e565b826002819055508160018190555080600381905550505050565b6118d561219e565b7f000000000000000000000000000000000000000000000000000000000000000073ffffffffffffffffffffffffffffffffffffffff1663a9059cbb611919611296565b7f000000000000000000000000000000000000000000000000000000000000000073ffffffffffffffffffffffffffffffffffffffff166370a08231306040518263ffffffff1660e01b81526004016119729190612bb0565b602060405180830381865afa15801561198f573d6000803e3d6000fd5b505050506040513d601f19601f820116820180604052508101906119b3919061337b565b6040518363ffffffff1660e01b81526004016119d0929190612835565b6020604051808303816000875af11580156119ef573d6000803e3d6000fd5b505050506040513d601f19601f82011682018060405250810190611a139190612f1e565b50565b611a1e61219e565b600073ffffffffffffffffffffffffffffffffffffffff168173ffffffffffffffffffffffffffffffffffffffff1603611a905760006040517f1e4fbdf7000000000000000000000000000000000000000000000000000000008152600401611a879190612bb0565b60405180910390fd5b611a9981612225565b50565b60035481565b60045481565b600083836003018460000160009054906101000a900473ffffffffffffffffffffffffffffffffffffffff163385604051602001611aea9594939291906134ff565b604051602081830303815290604052905082600001601e9054906101000a900460ff1660ff167fffffffffffffffffffffffffffffffffffffffffffffffffffffffffffffffff901c818051906020012060001c1115611b76576040517f756688fe00000000000000000000000000000000000000000000000000000000815260040160405180910390fd5b50505050565b600060056000838152602001908152602001600020905060005b8160000160149054906101000a900464ffffffffff1664ffffffffff16811015611f0c5760008260000160199054906101000a900464ffffffffff1664ffffffffff1667ffffffffffffffff811115611bf257611bf1612680565b5b604051908082528060200260200182016040528015611c205781602001602082028036833780820191505090505b50905060005b8360000160199054906101000a900464ffffffffff1664ffffffffff16811015611cc957600760008681526020019081526020016000208181548110611c6f57611c6e612f74565b5b90600052602060002090600302016002018381548110611c9257611c91612f74565b5b9060005260206000200154828281518110611cb057611caf612f74565b5b6020026020010181815250508080600101915050611c26565b50600080611cd6836122e9565b9150915060008060005b8760000160199054906101000a900464ffffffffff1664ffffffffff16811015611e9e578484611d10919061355a565b868281518110611d2357611d22612f74565b5b602002602001015110158015611d5e57508484611d4091906132ee565b868281518110611d5357611d52612f74565b5b602002602001015111155b15611e9357858181518110611d7657611d75612f74565b5b602002602001015183611d8991906132ee565b92508180611d969061358e565b9250507f000000000000000000000000000000000000000000000000000000000000000073ffffffffffffffffffffffffffffffffffffffff1663095ea7b3600760008c81526020019081526020016000208381548110611dfa57611df9612f74565b5b906000526020600020906003020160000160009054906101000a900473ffffffffffffffffffffffffffffffffffffffff168a600201546040518363ffffffff1660e01b8152600401611e4e929190612835565b6020604051808303816000875af1158015611e6d573d6000803e3d6000fd5b505050506040513d601f19601f82011682018060405250810190611e919190612f1e565b505b806001019050611ce0565b506000808214611eb9578183611eb49190613605565b611ebc565b60005b905080600660008b81526020019081526020016000208881548110611ee457611ee3612f74565b5b9060005260206000209060040201600301819055505050505050508080600101915050611b96565b5060008160000160149054906101000a900464ffffffffff1664ffffffffff1667ffffffffffffffff811115611f4557611f44612680565b5b604051908082528060200260200182016040528015611f735781602001602082028036833780820191505090505b50905060005b8260000160149054906101000a900464ffffffffff1664ffffffffff1681101561200057600660008581526020019081526020016000208181548110611fc257611fc1612f74565b5b906000526020600020906004020160030154828281518110611fe757611fe6612f74565b5b6020026020010181815250508080600101915050611f79565b5060008061200d836122e9565b9150915060005b8460000160149054906101000a900464ffffffffff1664ffffffffff168110156121965782600860189054906101000a900467ffffffffffffffff1667ffffffffffffffff16612064919061326f565b8261206f919061355a565b84828151811061208257612081612f74565b5b602002602001015110612189577f000000000000000000000000000000000000000000000000000000000000000073ffffffffffffffffffffffffffffffffffffffff1663095ea7b36006600089815260200190815260200160002083815481106120f0576120ef612f74565b5b906000526020600020906004020160000160009054906101000a900473ffffffffffffffffffffffffffffffffffffffff1687600101546040518363ffffffff1660e01b8152600401612144929190612835565b6020604051808303816000875af1158015612163573d6000803e3d6000fd5b505050506040513d601f19601f820116820180604052508101906121879190612f1e565b505b8080600101915050612014565b505050505050565b6121a6612311565b73ffffffffffffffffffffffffffffffffffffffff166121c4611296565b73ffffffffffffffffffffffffffffffffffffffff1614612223576121e7612311565b6040517f118cdaa700000000000000000000000000000000000000000000000000000000815260040161221a9190612bb0565b60405180910390fd5b565b60008060009054906101000a900473ffffffffffffffffffffffffffffffffffffffff169050816000806101000a81548173ffffffffffffffffffffffffffffffffffffffff021916908373ffffffffffffffffffffffffffffffffffffffff1602179055508173ffffffffffffffffffffffffffffffffffffffff168173ffffffffffffffffffffffffffffffffffffffff167f8be0079c531659141344cd1fd0a4f28419497f9722a3daafe3b4186f6b6457e060405160405180910390a35050565b6000806000806122f885612319565b915091508092506123088261239b565b93505050915091565b600033905090565b600080612325836123f8565b90506000805b84518110156123855760008386838151811061234a57612349612f74565b5b602002602001015161235c919061355a565b9050808161236a919061326f565b8361237591906132ee565b925050808060010191505061232b565b508351816123939190613605565b925050915091565b60008060026001846123ad91906132ee565b6123b79190613605565b90508291505b818110156123f25780915060028182856123d79190613605565b6123e191906132ee565b6123eb9190613605565b90506123bd565b50919050565b6000806000905060005b83518110156124405783818151811061241e5761241d612f74565b5b60200260200101518261243191906132ee565b91508080600101915050612402565b5082518161244e9190613605565b915050919050565b828054828255906000526020600020908101928215612492579160200282015b82811115612491578251825591602001919060010190612476565b5b50905061249f91906124a3565b5090565b5b808211156124bc5760008160009055506001016124a4565b5090565b6000604051905090565b600080fd5b600080fd5b6000819050919050565b6124e7816124d4565b81146124f257600080fd5b50565b600081359050612504816124de565b92915050565b60008060408385031215612521576125206124ca565b5b600061252f858286016124f5565b9250506020612540858286016124f5565b9150509250929050565b600073ffffffffffffffffffffffffffffffffffffffff82169050919050565b60006125758261254a565b9050919050565b6125858161256a565b82525050565b612594816124d4565b82525050565b600081519050919050565b600082825260208201905092915050565b60005b838110156125d45780820151818401526020810190506125b9565b60008484015250505050565b6000601f19601f8301169050919050565b60006125fc8261259a565b61260681856125a5565b93506126168185602086016125b6565b61261f816125e0565b840191505092915050565b600060808201905061263f600083018761257c565b61264c602083018661258b565b818103604083015261265e81856125f1565b905061266d606083018461258b565b95945050505050565b600080fd5b600080fd5b7f4e487b7100000000000000000000000000000000000000000000000000000000600052604160045260246000fd5b6126b8826125e0565b810181811067ffffffffffffffff821117156126d7576126d6612680565b5b80604052505050565b60006126ea6124c0565b90506126f682826126af565b919050565b600067ffffffffffffffff82111561271657612715612680565b5b61271f826125e0565b9050602081019050919050565b82818337600083830152505050565b600061274e612749846126fb565b6126e0565b90508281526020810184848401111561276a5761276961267b565b5b61277584828561272c565b509392505050565b600082601f83011261279257612791612676565b5b81356127a284826020860161273b565b91505092915050565b6000806000606084860312156127c4576127c36124ca565b5b60006127d2868287016124f5565b93505060206127e3868287016124f5565b925050604084013567ffffffffffffffff811115612804576128036124cf565b5b6128108682870161277d565b9150509250925092565b600060208201905061282f600083018461258b565b92915050565b600060408201905061284a600083018561257c565b612857602083018461258b565b9392505050565b600067ffffffffffffffff82111561287957612878612680565b5b602082029050602081019050919050565b600080fd5b60006128a261289d8461285e565b6126e0565b905080838252602082019050602084028301858111156128c5576128c461288a565b5b835b818110156128ee57806128da88826124f5565b8452602084019350506020810190506128c7565b5050509392505050565b600082601f83011261290d5761290c612676565b5b813561291d84826020860161288f565b91505092915050565b60008060006060848603121561293f5761293e6124ca565b5b600061294d868287016124f5565b935050602061295e868287016124f5565b925050604084013567ffffffffffffffff81111561297f5761297e6124cf565b5b61298b868287016128f8565b9150509250925092565b6000819050919050565b60006129ba6129b56129b08461254a565b612995565b61254a565b9050919050565b60006129cc8261299f565b9050919050565b60006129de826129c1565b9050919050565b6129ee816129d3565b82525050565b6000602082019050612a0960008301846129e5565b92915050565b6000612a1a826129c1565b9050919050565b612a2a81612a0f565b82525050565b6000602082019050612a456000830184612a21565b92915050565b600060208284031215612a6157612a606124ca565b5b6000612a6f848285016124f5565b91505092915050565b600064ffffffffff82169050919050565b612a9281612a78565b82525050565b600060ff82169050919050565b612aae81612a98565b82525050565b7f4e487b7100000000000000000000000000000000000000000000000000000000600052602160045260246000fd5b60048110612af457612af3612ab4565b5b50565b6000819050612b0582612ae3565b919050565b6000612b1582612af7565b9050919050565b612b2581612b0a565b82525050565b600061010082019050612b41600083018b61257c565b612b4e602083018a612a89565b612b5b6040830189612a89565b612b686060830188612aa5565b612b756080830187612b1c565b612b8260a083018661258b565b612b8f60c083018561258b565b81810360e0830152612ba181846125f1565b90509998505050505050505050565b6000602082019050612bc5600083018461257c565b92915050565b600067ffffffffffffffff82169050919050565b612be881612bcb565b82525050565b6000602082019050612c036000830184612bdf565b92915050565b612c1281612bcb565b8114612c1d57600080fd5b50565b600081359050612c2f81612c09565b92915050565b60008060408385031215612c4c57612c4b6124ca565b5b6000612c5a85828601612c20565b9250506020612c6b85828601612c20565b9150509250929050565b612c7e81612a98565b8114612c8957600080fd5b50565b600081359050612c9b81612c75565b92915050565b612caa81612a78565b8114612cb557600080fd5b50565b600081359050612cc781612ca1565b92915050565b600080600060608486031215612ce657612ce56124ca565b5b6000612cf486828701612c8c565b9350506020612d0586828701612cb8565b9250506040612d1686828701612cb8565b9150509250925092565b6000606082019050612d35600083018661258b565b612d42602083018561258b565b612d4f604083018461258b565b949350505050565b60008060008060808587031215612d7157612d706124ca565b5b600085013567ffffffffffffffff811115612d8f57612d8e6124cf565b5b612d9b8782880161277d565b9450506020612dac87828801612c8c565b9350506040612dbd87828801612cb8565b9250506060612dce87828801612cb8565b91505092959194509250565b600080600060608486031215612df357612df26124ca565b5b6000612e01868287016124f5565b9350506020612e12868287016124f5565b9250506040612e23868287016124f5565b9150509250925092565b612e368161256a565b8114612e4157600080fd5b50565b600081359050612e5381612e2d565b92915050565b600060208284031215612e6f57612e6e6124ca565b5b6000612e7d84828501612e44565b91505092915050565b7f4e487b7100000000000000000000000000000000000000000000000000000000600052602260045260246000fd5b60006002820490506001821680612ecd57607f821691505b602082108103612ee057612edf612e86565b5b50919050565b60008115159050919050565b612efb81612ee6565b8114612f0657600080fd5b50565b600081519050612f1881612ef2565b92915050565b600060208284031215612f3457612f336124ca565b5b6000612f4284828501612f09565b91505092915050565b6000604082019050612f60600083018561258b565b612f6d6020830184612b1c565b9392505050565b7f4e487b7100000000000000000000000000000000000000000000000000000000600052603260045260246000fd5b6000604082019050612fb8600083018561258b565b612fc5602083018461257c565b9392505050565b60008190508160005260206000209050919050565b60006020601f8301049050919050565b600082821b905092915050565b60006008830261302e7fffffffffffffffffffffffffffffffffffffffffffffffffffffffffffffffff82612ff1565b6130388683612ff1565b95508019841693508086168417925050509392505050565b600061306b613066613061846124d4565b612995565b6124d4565b9050919050565b6000819050919050565b61308583613050565b61309961309182613072565b848454612ffe565b825550505050565b600090565b6130ae6130a1565b6130b981848461307c565b505050565b5b818110156130dd576130d26000826130a6565b6001810190506130bf565b5050565b601f821115613122576130f381612fcc565b6130fc84612fe1565b8101602085101561310b578190505b61311f61311785612fe1565b8301826130be565b50505b505050565b600082821c905092915050565b600061314560001984600802613127565b1980831691505092915050565b600061315e8383613134565b9150826002028217905092915050565b6131778261259a565b67ffffffffffffffff8111156131905761318f612680565b5b61319a8254612eb5565b6131a58282856130e1565b600060209050601f8311600181146131d857600084156131c6578287015190505b6131d08582613152565b865550613238565b601f1984166131e686612fcc565b60005b8281101561320e578489015182556001820191506020850194506020810190506131e9565b8683101561322b5784890151613227601f891682613134565b8355505b6001600288020188555050505b505050505050565b7f4e487b7100000000000000000000000000000000000000000000000000000000600052601160045260246000fd5b600061327a826124d4565b9150613285836124d4565b9250828202613293816124d4565b915082820484148315176132aa576132a9613240565b5b5092915050565b60006132bc82612a78565b91506132c783612a78565b92508282026132d581612a78565b91508082146132e7576132e6613240565b5b5092915050565b60006132f9826124d4565b9150613304836124d4565b925082820190508082111561331c5761331b613240565b5b92915050565b60006020820190506133376000830184612aa5565b92915050565b6000604082019050613352600083018561257c565b61335f602083018461257c565b9392505050565b600081519050613375816124de565b92915050565b600060208284031215613391576133906124ca565b5b600061339f84828501613366565b91505092915050565b60006040820190506133bd600083018561258b565b6133ca602083018461258b565b9392505050565b60006060820190506133e6600083018661257c565b6133f3602083018561257c565b613400604083018461258b565b949350505050565b6000819050919050565b61342361341e826124d4565b613408565b82525050565b600081905092915050565b6000815461344181612eb5565b61344b8186613429565b94506001821660008114613466576001811461347b576134ae565b60ff19831686528115158202860193506134ae565b61348485612fcc565b60005b838110156134a657815481890152600182019150602081019050613487565b838801955050505b50505092915050565b60008160601b9050919050565b60006134cf826134b7565b9050919050565b60006134e1826134c4565b9050919050565b6134f96134f48261256a565b6134d6565b82525050565b600061350b8288613412565b60208201915061351b8287613434565b915061352782866134e8565b60148201915061353782856134e8565b6014820191506135478284613412565b6020820191508190509695505050505050565b6000613565826124d4565b9150613570836124d4565b925082820390508181111561358857613587613240565b5b92915050565b6000613599826124d4565b91507fffffffffffffffffffffffffffffffffffffffffffffffffffffffffffffffff82036135cb576135ca613240565b5b600182019050919050565b7f4e487b7100000000000000000000000000000000000000000000000000000000600052601260045260246000fd5b6000613610826124d4565b915061361b836124d4565b92508261362b5761362a6135d6565b5b82820490509291505056fea2646970667358221220322dfea6d01aca2240cebf5d0d97a2a41a9ada4ef537b85edfbcdbd2f6ebf1f564736f6c63430008180033",
  "linkReferences": {},
  "deployedLinkReferences": {}
}