{
  "_format": "hh-sol-artifact-1",
  "contractName": "LLMOracleCoordinator",
  "sourceName": "contracts/llm/LLMOracleCoordinator.sol",
  "abi": [
    {
      "inputs": [
        {
          "internalType": "address",
          "name": "_oracleRegistry",
          "type": "address"
        },
        {
          "internalType": "address",
          "name": "_feeToken",
          "type": "address"
        },
        {
          "internalType": "uint256",
          "name": "_platformFee",
          "type": "uint256"
        },
        {
          "internalType": "uint256",
          "name": "_generationFee",
          "type": "uint256"
        },
        {
          "internalType": "uint256",
          "name": "_validationFee",
          "type": "uint256"
        }
      ],
      "stateMutability": "nonpayable",
      "type": "constructor"
    },
    {
      "inputs": [
        {
          "internalType": "uint256",
          "name": "taskId",
          "type": "uint256"
        },
        {
          "internalType": "address",
          "name": "oracle",
          "type": "address"
        }
      ],
      "name": "AlreadyResponded",
      "type": "error"
    },
    {
      "inputs": [
        {
          "internalType": "uint256",
          "name": "given",
          "type": "uint256"
        },
        {
          "internalType": "uint256",
          "name": "required",
          "type": "uint256"
        }
      ],
      "name": "InsufficientRewards",
      "type": "error"
    },
    {
      "inputs": [
        {
          "internalType": "uint8",
          "name": "difficulty",
          "type": "uint8"
        }
      ],
      "name": "InvalidDifficulty",
      "type": "error"
    },
    {
      "inputs": [
        {
          "internalType": "uint256",
          "name": "taskId",
          "type": "uint256"
        },
        {
          "internalType": "uint256",
          "name": "nonce",
          "type": "uint256"
        }
      ],
      "name": "InvalidNonce",
      "type": "error"
    },
    {
      "inputs": [
        {
          "internalType": "uint40",
          "name": "numGenerations",
          "type": "uint40"
        }
      ],
      "name": "InvalidNumGenerations",
      "type": "error"
    },
    {
      "inputs": [
        {
          "internalType": "uint40",
          "name": "numValidations",
          "type": "uint40"
        }
      ],
      "name": "InvalidNumValidations",
      "type": "error"
    },
    {
      "inputs": [
        {
          "internalType": "uint256",
          "name": "taskId",
          "type": "uint256"
        },
        {
          "internalType": "enum LLMOracleTask.TaskStatus",
          "name": "have",
          "type": "uint8"
        },
        {
          "internalType": "enum LLMOracleTask.TaskStatus",
          "name": "want",
          "type": "uint8"
        }
      ],
      "name": "InvalidTaskStatus",
      "type": "error"
    },
    {
      "inputs": [
        {
          "internalType": "uint256",
          "name": "taskId",
          "type": "uint256"
        },
        {
          "internalType": "address",
          "name": "validator",
          "type": "address"
        }
      ],
      "name": "InvalidValidation",
      "type": "error"
    },
    {
      "inputs": [
        {
          "internalType": "address",
          "name": "oracle",
          "type": "address"
        }
      ],
      "name": "NotRegistered",
      "type": "error"
    },
    {
      "inputs": [
        {
          "internalType": "address",
          "name": "owner",
          "type": "address"
        }
      ],
      "name": "OwnableInvalidOwner",
      "type": "error"
    },
    {
      "inputs": [
        {
          "internalType": "address",
          "name": "account",
          "type": "address"
        }
      ],
      "name": "OwnableUnauthorizedAccount",
      "type": "error"
    },
    {
      "anonymous": false,
      "inputs": [
        {
          "indexed": true,
          "internalType": "address",
          "name": "previousOwner",
          "type": "address"
        },
        {
          "indexed": true,
          "internalType": "address",
          "name": "newOwner",
          "type": "address"
        }
      ],
      "name": "OwnershipTransferred",
      "type": "event"
    },
    {
      "anonymous": false,
      "inputs": [
        {
          "indexed": true,
          "internalType": "uint256",
          "name": "taskId",
          "type": "uint256"
        },
        {
          "indexed": true,
          "internalType": "address",
          "name": "requester",
          "type": "address"
        }
      ],
      "name": "Request",
      "type": "event"
    },
    {
      "anonymous": false,
      "inputs": [
        {
          "indexed": true,
          "internalType": "uint256",
          "name": "taskId",
          "type": "uint256"
        },
        {
          "indexed": true,
          "internalType": "address",
          "name": "responder",
          "type": "address"
        }
      ],
      "name": "Response",
      "type": "event"
    },
    {
      "anonymous": false,
      "inputs": [
        {
          "indexed": true,
          "internalType": "uint256",
          "name": "taskId",
          "type": "uint256"
        },
        {
          "indexed": false,
          "internalType": "enum LLMOracleTask.TaskStatus",
          "name": "statusBefore",
          "type": "uint8"
        },
        {
          "indexed": false,
          "internalType": "enum LLMOracleTask.TaskStatus",
          "name": "statusAfter",
          "type": "uint8"
        }
      ],
      "name": "StatusUpdate",
      "type": "event"
    },
    {
      "anonymous": false,
      "inputs": [
        {
          "indexed": true,
          "internalType": "uint256",
          "name": "taskId",
          "type": "uint256"
        },
        {
          "indexed": true,
          "internalType": "address",
          "name": "validator",
          "type": "address"
        }
      ],
      "name": "Validation",
      "type": "event"
    },
    {
      "inputs": [],
      "name": "feeToken",
      "outputs": [
        {
          "internalType": "contract ERC20",
          "name": "",
          "type": "address"
        }
      ],
      "stateMutability": "view",
      "type": "function"
    },
    {
      "inputs": [],
      "name": "generationDeviationFactor",
      "outputs": [
        {
          "internalType": "uint64",
          "name": "",
          "type": "uint64"
        }
      ],
      "stateMutability": "view",
      "type": "function"
    },
    {
      "inputs": [],
      "name": "generationFee",
      "outputs": [
        {
          "internalType": "uint256",
          "name": "",
          "type": "uint256"
        }
      ],
      "stateMutability": "view",
      "type": "function"
    },
    {
      "inputs": [
        {
          "internalType": "uint8",
          "name": "difficulty",
          "type": "uint8"
        },
        {
          "internalType": "uint40",
          "name": "numGenerations",
          "type": "uint40"
        },
        {
          "internalType": "uint40",
          "name": "numValidations",
          "type": "uint40"
        }
      ],
      "name": "getFee",
      "outputs": [
        {
          "internalType": "uint256",
          "name": "totalFee",
          "type": "uint256"
        },
        {
          "internalType": "uint256",
          "name": "generatorFee",
          "type": "uint256"
        },
        {
          "internalType": "uint256",
          "name": "validatorFee",
          "type": "uint256"
        }
      ],
      "stateMutability": "view",
      "type": "function"
    },
    {
      "inputs": [
        {
          "internalType": "uint256",
          "name": "taskId",
          "type": "uint256"
        }
      ],
      "name": "getResponses",
      "outputs": [
        {
          "components": [
            {
              "internalType": "address",
              "name": "responder",
              "type": "address"
            },
            {
              "internalType": "uint256",
              "name": "nonce",
              "type": "uint256"
            },
            {
              "internalType": "uint256",
              "name": "score",
              "type": "uint256"
            },
            {
              "internalType": "bytes",
              "name": "output",
              "type": "bytes"
            },
            {
              "internalType": "bytes",
              "name": "metadata",
              "type": "bytes"
            }
          ],
          "internalType": "struct LLMOracleTask.TaskResponse[]",
          "name": "",
          "type": "tuple[]"
        }
      ],
      "stateMutability": "view",
      "type": "function"
    },
    {
      "inputs": [
        {
          "internalType": "uint256",
          "name": "taskId",
          "type": "uint256"
        }
      ],
      "name": "getValidations",
      "outputs": [
        {
          "components": [
            {
              "internalType": "address",
              "name": "validator",
              "type": "address"
            },
            {
              "internalType": "uint256",
              "name": "nonce",
              "type": "uint256"
            },
            {
              "internalType": "uint256[]",
              "name": "scores",
              "type": "uint256[]"
            },
            {
              "internalType": "bytes",
              "name": "metadata",
              "type": "bytes"
            }
          ],
          "internalType": "struct LLMOracleTask.TaskValidation[]",
          "name": "",
          "type": "tuple[]"
        }
      ],
      "stateMutability": "view",
      "type": "function"
    },
    {
      "inputs": [],
      "name": "maxDifficulty",
      "outputs": [
        {
          "internalType": "uint64",
          "name": "",
          "type": "uint64"
        }
      ],
      "stateMutability": "view",
      "type": "function"
    },
    {
      "inputs": [],
      "name": "maxNumGenerations",
      "outputs": [
        {
          "internalType": "uint40",
          "name": "",
          "type": "uint40"
        }
      ],
      "stateMutability": "view",
      "type": "function"
    },
    {
      "inputs": [],
      "name": "maxNumValidations",
      "outputs": [
        {
          "internalType": "uint40",
          "name": "",
          "type": "uint40"
        }
      ],
      "stateMutability": "view",
      "type": "function"
    },
    {
      "inputs": [],
      "name": "minDifficulty",
      "outputs": [
        {
          "internalType": "uint64",
          "name": "",
          "type": "uint64"
        }
      ],
      "stateMutability": "view",
      "type": "function"
    },
    {
      "inputs": [],
      "name": "minNumGenerations",
      "outputs": [
        {
          "internalType": "uint40",
          "name": "",
          "type": "uint40"
        }
      ],
      "stateMutability": "view",
      "type": "function"
    },
    {
      "inputs": [],
      "name": "minNumValidations",
      "outputs": [
        {
          "internalType": "uint40",
          "name": "",
          "type": "uint40"
        }
      ],
      "stateMutability": "view",
      "type": "function"
    },
    {
      "inputs": [],
      "name": "nextTaskId",
      "outputs": [
        {
          "internalType": "uint256",
          "name": "",
          "type": "uint256"
        }
      ],
      "stateMutability": "view",
      "type": "function"
    },
    {
      "inputs": [],
      "name": "owner",
      "outputs": [
        {
          "internalType": "address",
          "name": "",
          "type": "address"
        }
      ],
      "stateMutability": "view",
      "type": "function"
    },
    {
      "inputs": [],
      "name": "platformFee",
      "outputs": [
        {
          "internalType": "uint256",
          "name": "",
          "type": "uint256"
        }
      ],
      "stateMutability": "view",
      "type": "function"
    },
    {
      "inputs": [],
      "name": "registry",
      "outputs": [
        {
          "internalType": "contract LLMOracleRegistry",
          "name": "",
          "type": "address"
        }
      ],
      "stateMutability": "view",
      "type": "function"
    },
    {
      "inputs": [],
      "name": "renounceOwnership",
      "outputs": [],
      "stateMutability": "nonpayable",
      "type": "function"
    },
    {
      "inputs": [
        {
          "internalType": "bytes",
          "name": "input",
          "type": "bytes"
        },
        {
          "internalType": "bytes",
          "name": "models",
          "type": "bytes"
        },
        {
          "internalType": "uint8",
          "name": "difficulty",
          "type": "uint8"
        },
        {
          "internalType": "uint40",
          "name": "numGenerations",
          "type": "uint40"
        },
        {
          "internalType": "uint40",
          "name": "numValidations",
          "type": "uint40"
        }
      ],
      "name": "request",
      "outputs": [],
      "stateMutability": "nonpayable",
      "type": "function"
    },
    {
      "inputs": [
        {
          "internalType": "uint256",
          "name": "taskId",
          "type": "uint256"
        }
      ],
      "name": "requests",
      "outputs": [
        {
          "internalType": "address",
          "name": "requester",
          "type": "address"
        },
        {
          "internalType": "uint40",
          "name": "numGenerations",
          "type": "uint40"
        },
        {
          "internalType": "uint40",
          "name": "numValidations",
          "type": "uint40"
        },
        {
          "internalType": "uint8",
          "name": "difficulty",
          "type": "uint8"
        },
        {
          "internalType": "enum LLMOracleTask.TaskStatus",
          "name": "status",
          "type": "uint8"
        },
        {
          "internalType": "uint256",
          "name": "generatorFee",
          "type": "uint256"
        },
        {
          "internalType": "uint256",
          "name": "validatorFee",
          "type": "uint256"
        },
        {
          "internalType": "uint256",
          "name": "platformFee",
          "type": "uint256"
        },
        {
          "internalType": "bytes",
          "name": "input",
          "type": "bytes"
        },
        {
          "internalType": "bytes",
          "name": "models",
          "type": "bytes"
        }
      ],
      "stateMutability": "view",
      "type": "function"
    },
    {
      "inputs": [
        {
          "internalType": "uint256",
          "name": "taskId",
          "type": "uint256"
        },
        {
          "internalType": "uint256",
          "name": "nonce",
          "type": "uint256"
        },
        {
          "internalType": "bytes",
          "name": "output",
          "type": "bytes"
        },
        {
          "internalType": "bytes",
          "name": "metadata",
          "type": "bytes"
        }
      ],
      "name": "respond",
      "outputs": [],
      "stateMutability": "nonpayable",
      "type": "function"
    },
    {
      "inputs": [
        {
          "internalType": "uint256",
          "name": "taskId",
          "type": "uint256"
        },
        {
          "internalType": "uint256",
          "name": "",
          "type": "uint256"
        }
      ],
      "name": "responses",
      "outputs": [
        {
          "internalType": "address",
          "name": "responder",
          "type": "address"
        },
        {
          "internalType": "uint256",
          "name": "nonce",
          "type": "uint256"
        },
        {
          "internalType": "uint256",
          "name": "score",
          "type": "uint256"
        },
        {
          "internalType": "bytes",
          "name": "output",
          "type": "bytes"
        },
        {
          "internalType": "bytes",
          "name": "metadata",
          "type": "bytes"
        }
      ],
      "stateMutability": "view",
      "type": "function"
    },
    {
      "inputs": [
        {
          "internalType": "uint64",
          "name": "_generationDeviationFactor",
          "type": "uint64"
        },
        {
          "internalType": "uint64",
          "name": "_validationDeviationFactor",
          "type": "uint64"
        }
      ],
      "name": "setDeviationFactors",
      "outputs": [],
      "stateMutability": "nonpayable",
      "type": "function"
    },
    {
      "inputs": [
        {
          "internalType": "uint64",
          "name": "_minDifficulty",
          "type": "uint64"
        },
        {
          "internalType": "uint64",
          "name": "_maxDifficulty",
          "type": "uint64"
        }
      ],
      "name": "setDifficulty",
      "outputs": [],
      "stateMutability": "nonpayable",
      "type": "function"
    },
    {
      "inputs": [
        {
          "internalType": "uint256",
          "name": "_platformFee",
          "type": "uint256"
        },
        {
          "internalType": "uint256",
          "name": "_generationFee",
          "type": "uint256"
        },
        {
          "internalType": "uint256",
          "name": "_validationFee",
          "type": "uint256"
        }
      ],
      "name": "setFees",
      "outputs": [],
      "stateMutability": "nonpayable",
      "type": "function"
    },
    {
      "inputs": [
        {
          "internalType": "uint40",
          "name": "_minNumGenerations",
          "type": "uint40"
        },
        {
          "internalType": "uint40",
          "name": "_maxNumGenerations",
          "type": "uint40"
        }
      ],
      "name": "setNumGenerations",
      "outputs": [],
      "stateMutability": "nonpayable",
      "type": "function"
    },
    {
      "inputs": [
        {
          "internalType": "uint40",
          "name": "_minNumValidations",
          "type": "uint40"
        },
        {
          "internalType": "uint40",
          "name": "_maxNumValidations",
          "type": "uint40"
        }
      ],
      "name": "setNumValidations",
      "outputs": [],
      "stateMutability": "nonpayable",
      "type": "function"
    },
    {
      "inputs": [
        {
          "internalType": "address",
          "name": "newOwner",
          "type": "address"
        }
      ],
      "name": "transferOwnership",
      "outputs": [],
      "stateMutability": "nonpayable",
      "type": "function"
    },
    {
      "inputs": [
        {
          "internalType": "uint256",
          "name": "taskId",
          "type": "uint256"
        },
        {
          "internalType": "uint256",
          "name": "nonce",
          "type": "uint256"
        },
        {
          "internalType": "uint256[]",
          "name": "scores",
          "type": "uint256[]"
        },
        {
          "internalType": "bytes",
          "name": "metadata",
          "type": "bytes"
        }
      ],
      "name": "validate",
      "outputs": [],
      "stateMutability": "nonpayable",
      "type": "function"
    },
    {
      "inputs": [],
      "name": "validationDeviationFactor",
      "outputs": [
        {
          "internalType": "uint64",
          "name": "",
          "type": "uint64"
        }
      ],
      "stateMutability": "view",
      "type": "function"
    },
    {
      "inputs": [],
      "name": "validationFee",
      "outputs": [
        {
          "internalType": "uint256",
          "name": "",
          "type": "uint256"
        }
      ],
      "stateMutability": "view",
      "type": "function"
    },
    {
      "inputs": [
        {
          "internalType": "uint256",
          "name": "taskId",
          "type": "uint256"
        },
        {
          "internalType": "uint256",
          "name": "",
          "type": "uint256"
        }
      ],
      "name": "validations",
      "outputs": [
        {
          "internalType": "address",
          "name": "validator",
          "type": "address"
        },
        {
          "internalType": "uint256",
          "name": "nonce",
          "type": "uint256"
        },
        {
          "internalType": "bytes",
          "name": "metadata",
          "type": "bytes"
        }
      ],
      "stateMutability": "view",
      "type": "function"
    },
    {
      "inputs": [],
      "name": "withdrawPlatformFees",
      "outputs": [],
      "stateMutability": "nonpayable",
      "type": "function"
    }
  ],
  "bytecode": "0x60c06040526008600460006101000a81548167ffffffffffffffff021916908367ffffffffffffffff1602179055506001600460086101000a81548167ffffffffffffffff021916908367ffffffffffffffff1602179055506002600460106101000a81548167ffffffffffffffff021916908367ffffffffffffffff1602179055506001600460186101000a81548167ffffffffffffffff021916908367ffffffffffffffff160217905550600a600560006101000a81548164ffffffffff021916908364ffffffffff16021790555060016005806101000a81548164ffffffffff021916908364ffffffffff160217905550600a6005600a6101000a81548164ffffffffff021916908364ffffffffff16021790555060006005600f6101000a81548164ffffffffff021916908364ffffffffff16021790555060016006553480156200014d57600080fd5b5060405162004cba38038062004cba8339818101604052810190620001739190620004ed565b82828233600073ffffffffffffffffffffffffffffffffffffffff168173ffffffffffffffffffffffffffffffffffffffff1603620001ec5760006040517f1e4fbdf7000000000000000000000000000000000000000000000000000000008152600401620001e3919062000586565b60405180910390fd5b620001fd816200028760201b60201c565b50620002118383836200034b60201b60201c565b5050508473ffffffffffffffffffffffffffffffffffffffff1660808173ffffffffffffffffffffffffffffffffffffffff16815250508373ffffffffffffffffffffffffffffffffffffffff1660a08173ffffffffffffffffffffffffffffffffffffffff16815250505050505050620005a3565b60008060009054906101000a900473ffffffffffffffffffffffffffffffffffffffff169050816000806101000a81548173ffffffffffffffffffffffffffffffffffffffff021916908373ffffffffffffffffffffffffffffffffffffffff1602179055508173ffffffffffffffffffffffffffffffffffffffff168173ffffffffffffffffffffffffffffffffffffffff167f8be0079c531659141344cd1fd0a4f28419497f9722a3daafe3b4186f6b6457e060405160405180910390a35050565b6200035b6200037560201b60201c565b826001819055508160028190555080600381905550505050565b620003856200041760201b60201c565b73ffffffffffffffffffffffffffffffffffffffff16620003ab6200041f60201b60201c565b73ffffffffffffffffffffffffffffffffffffffff16146200041557620003d76200041760201b60201c565b6040517f118cdaa70000000000000000000000000000000000000000000000000000000081526004016200040c919062000586565b60405180910390fd5b565b600033905090565b60008060009054906101000a900473ffffffffffffffffffffffffffffffffffffffff16905090565b600080fd5b600073ffffffffffffffffffffffffffffffffffffffff82169050919050565b60006200047a826200044d565b9050919050565b6200048c816200046d565b81146200049857600080fd5b50565b600081519050620004ac8162000481565b92915050565b6000819050919050565b620004c781620004b2565b8114620004d357600080fd5b50565b600081519050620004e781620004bc565b92915050565b600080600080600060a086880312156200050c576200050b62000448565b5b60006200051c888289016200049b565b95505060206200052f888289016200049b565b94505060406200054288828901620004d6565b93505060606200055588828901620004d6565b92505060806200056888828901620004d6565b9150509295509295909350565b62000580816200046d565b82525050565b60006020820190506200059d600083018462000575565b92915050565b60805160a0516146b9620006016000396000818161095301528181610a4e015281816110140152818161232e0152818161237201528181612c5d0152612c9b01526000818161103a015281816118dc0152611c7901526146b96000f3fe608060405234801561001057600080fd5b50600436106101ef5760003560e01c80639a9974531161010f578063ca287c35116100a2578063eecf381511610071578063eecf381514610583578063f2fde38b1461059f578063f8bbf27e146105bb578063fdc3d8d7146105d9576101ef565b8063ca287c3514610521578063cec10c111461053f578063d0b7830b1461055b578063e671b67414610565576101ef565b8063b4a93283116100de578063b4a93283146104ad578063b584e617146104cb578063c4186ec9146104e7578063c4c1c24714610505576101ef565b80639a99745314610423578063b0b2419b14610441578063b1b1d93c1461045f578063b2cf44281461047b576101ef565b80636b4d5bfc1161018757806381d12c581161015657806381d12c581461039257806385ddbfeb146103cb5780638da5cb5b146103e757806393e0a29c14610405576101ef565b80636b4d5bfc1461031e578063715018a61461033a57806371ee2ce1146103445780637b10399914610374576101ef565b806326232a2e116101c357806326232a2e14610280578063434dbaee1461029e5780634b5a82d1146102ce578063647846a514610300576101ef565b806257efc2146101f45780630566f18a146102285780630954daac1461024657806325082d7014610264575b600080fd5b61020e60048036038101906102099190612fc5565b6105f7565b60405161021f9594939291906130e5565b60405180910390f35b61023061077a565b60405161023d9190613146565b60405180910390f35b61024e610780565b60405161025b9190613181565b60405180910390f35b61027e60048036038101906102799190613336565b610797565b005b610288610d61565b6040516102959190613146565b60405180910390f35b6102b860048036038101906102b391906133e9565b610d67565b6040516102c59190613659565b60405180910390f35b6102e860048036038101906102e39190612fc5565b610f23565b6040516102f79392919061367b565b60405180910390f35b610308611012565b6040516103159190613718565b60405180910390f35b610338600480360381019061033391906137e9565b611036565b005b6103426116c6565b005b61035e600480360381019061035991906133e9565b6116da565b60405161036b91906139cf565b60405180910390f35b61037c6118da565b6040516103899190613a12565b60405180910390f35b6103ac60048036038101906103a791906133e9565b6118fe565b6040516103c29a99989796959493929190613ab3565b60405180910390f35b6103e560048036038101906103e09190613b5d565b611abe565b005b6103ef611b10565b6040516103fc9190613b9d565b60405180910390f35b61040d611b39565b60405161041a9190613bdb565b60405180910390f35b61042b611b53565b6040516104389190613bdb565b60405180910390f35b610449611b6d565b6040516104569190613181565b60405180910390f35b61047960048036038101906104749190613c22565b611b84565b005b61049560048036038101906104909190613c62565b611be2565b6040516104a493929190613cb5565b60405180910390f35b6104b5611c5b565b6040516104c29190613bdb565b60405180910390f35b6104e560048036038101906104e09190613cec565b611c75565b005b6104ef612273565b6040516104fc9190613181565b60405180910390f35b61051f600480360381019061051a9190613c22565b61228a565b005b6105296122e8565b6040516105369190613bdb565b60405180910390f35b61055960048036038101906105549190613d93565b612302565b005b610563612324565b005b61056d61246d565b60405161057a9190613181565b60405180910390f35b61059d60048036038101906105989190613b5d565b612482565b005b6105b960048036038101906105b49190613e12565b6124d3565b005b6105c3612559565b6040516105d09190613146565b60405180910390f35b6105e161255f565b6040516105ee9190613146565b60405180910390f35b6008602052816000526040600020818154811061061357600080fd5b9060005260206000209060050201600091509150508060000160009054906101000a900473ffffffffffffffffffffffffffffffffffffffff169080600101549080600201549080600301805461066990613e6e565b80601f016020809104026020016040519081016040528092919081815260200182805461069590613e6e565b80156106e25780601f106106b7576101008083540402835291602001916106e2565b820191906000526020600020905b8154815290600101906020018083116106c557829003601f168201915b5050505050908060040180546106f790613e6e565b80601f016020809104026020016040519081016040528092919081815260200182805461072390613e6e565b80156107705780601f1061074557610100808354040283529160200191610770565b820191906000526020600020905b81548152906001019060200180831161075357829003601f168201915b5050505050905085565b60025481565b6005600a9054906101000a900464ffffffffff1681565b82600460089054906101000a900467ffffffffffffffff1667ffffffffffffffff168160ff1610806107eb5750600460009054906101000a900467ffffffffffffffff1667ffffffffffffffff168160ff16115b1561082d57806040517f976b01220000000000000000000000000000000000000000000000000000000081526004016108249190613e9f565b60405180910390fd5b8260058054906101000a900464ffffffffff1664ffffffffff168164ffffffffff16108061087b5750600560009054906101000a900464ffffffffff1664ffffffffff168164ffffffffff16115b156108bd57806040517ffffdd00f0000000000000000000000000000000000000000000000000000000081526004016108b49190613181565b60405180910390fd5b826005600f9054906101000a900464ffffffffff1664ffffffffff168164ffffffffff16108061090d57506005600a9054906101000a900464ffffffffff1664ffffffffff168164ffffffffff16115b1561094f57806040517f088dd0460000000000000000000000000000000000000000000000000000000081526004016109469190613181565b60405180910390fd5b60007f000000000000000000000000000000000000000000000000000000000000000073ffffffffffffffffffffffffffffffffffffffff1663dd62ed3e33306040518363ffffffff1660e01b81526004016109ac929190613eba565b602060405180830381865afa1580156109c9573d6000803e3d6000fd5b505050506040513d601f19601f820116820180604052508101906109ed9190613ef8565b905060008060006109ff8a8a8a611be2565b92509250925082841015610a4c5783836040517f3df823ca000000000000000000000000000000000000000000000000000000008152600401610a43929190613f25565b60405180910390fd5b7f000000000000000000000000000000000000000000000000000000000000000073ffffffffffffffffffffffffffffffffffffffff166323b872dd3330866040518463ffffffff1660e01b8152600401610aa993929190613f4e565b6020604051808303816000875af1158015610ac8573d6000803e3d6000fd5b505050506040513d601f19601f82011682018060405250810190610aec9190613fbd565b5060006006549050600660008154600101919050819055503373ffffffffffffffffffffffffffffffffffffffff16817f68726a5a65240ea02ab9a0ad65d3c451719ba47c00546e1e5c0b4b3743b808db60405160405180910390a36040518061014001604052803373ffffffffffffffffffffffffffffffffffffffff1681526020018b64ffffffffff1681526020018a64ffffffffff1681526020018c60ff16815260200160016003811115610ba757610ba6613a3c565b5b815260200184815260200183815260200160015481526020018e81526020018d8152506007600083815260200190815260200160002060008201518160000160006101000a81548173ffffffffffffffffffffffffffffffffffffffff021916908373ffffffffffffffffffffffffffffffffffffffff16021790555060208201518160000160146101000a81548164ffffffffff021916908364ffffffffff16021790555060408201518160000160196101000a81548164ffffffffff021916908364ffffffffff160217905550606082015181600001601e6101000a81548160ff021916908360ff160217905550608082015181600001601f6101000a81548160ff02191690836003811115610cc257610cc1613a3c565b5b021790555060a0820151816001015560c0820151816002015560e08201518160030155610100820151816004019081610cfb919061418c565b50610120820151816005019081610d12919061418c565b50905050807fac0af0707ea9c32cee33737da59bdf6e773158cde23127c18dd99e74af03fd5d60006001604051610d4a92919061425e565b60405180910390a250505050505050505050505050565b60015481565b606060096000838152602001908152602001600020805480602002602001604051908101604052809291908181526020016000905b82821015610f1857838290600052602060002090600402016040518060800160405290816000820160009054906101000a900473ffffffffffffffffffffffffffffffffffffffff1673ffffffffffffffffffffffffffffffffffffffff1673ffffffffffffffffffffffffffffffffffffffff1681526020016001820154815260200160028201805480602002602001604051908101604052809291908181526020018280548015610e6e57602002820191906000526020600020905b815481526020019060010190808311610e5a575b50505050508152602001600382018054610e8790613e6e565b80601f0160208091040260200160405190810160405280929190818152602001828054610eb390613e6e565b8015610f005780601f10610ed557610100808354040283529160200191610f00565b820191906000526020600020905b815481529060010190602001808311610ee357829003601f168201915b50505050508152505081526020019060010190610d9c565b505050509050919050565b60096020528160005260406000208181548110610f3f57600080fd5b9060005260206000209060040201600091509150508060000160009054906101000a900473ffffffffffffffffffffffffffffffffffffffff1690806001015490806003018054610f8f90613e6e565b80601f0160208091040260200160405190810160405280929190818152602001828054610fbb90613e6e565b80156110085780601f10610fdd57610100808354040283529160200191611008565b820191906000526020600020905b815481529060010190602001808311610feb57829003601f168201915b5050505050905083565b7f000000000000000000000000000000000000000000000000000000000000000081565b60017f000000000000000000000000000000000000000000000000000000000000000073ffffffffffffffffffffffffffffffffffffffff16635f5b248b33836040518363ffffffff1660e01b81526004016110939291906142cf565b602060405180830381865afa1580156110b0573d6000803e3d6000fd5b505050506040513d601f19601f820116820180604052508101906110d49190613fbd565b61111557336040517fbfc6c33700000000000000000000000000000000000000000000000000000000815260040161110c9190613b9d565b60405180910390fd5b86600280600381111561112b5761112a613a3c565b5b60076000848152602001908152602001600020600001601f9054906101000a900460ff16600381111561116157611160613a3c565b5b146111ca578160076000848152602001908152602001600020600001601f9054906101000a900460ff16826040517f48f178b80000000000000000000000000000000000000000000000000000000081526004016111c1939291906142f8565b60405180910390fd5b6000600760008b815260200190815260200160002090508060000160149054906101000a900464ffffffffff1664ffffffffff1688889050146112465789336040517fab8ad48a00000000000000000000000000000000000000000000000000000000815260040161123d92919061432f565b60405180910390fd5b60005b8160000160149054906101000a900464ffffffffff1664ffffffffff16811015611342573373ffffffffffffffffffffffffffffffffffffffff16600860008d815260200190815260200160002082815481106112a9576112a8614358565b5b906000526020600020906005020160000160009054906101000a900473ffffffffffffffffffffffffffffffffffffffff1673ffffffffffffffffffffffffffffffffffffffff1603611335578a336040517f808df98000000000000000000000000000000000000000000000000000000000815260040161132c92919061432f565b60405180910390fd5b8080600101915050611249565b5060005b600960008c815260200190815260200160002080549050811015611439573373ffffffffffffffffffffffffffffffffffffffff16600960008d815260200190815260200160002082815481106113a05761139f614358565b5b906000526020600020906004020160000160009054906101000a900473ffffffffffffffffffffffffffffffffffffffff1673ffffffffffffffffffffffffffffffffffffffff160361142c578a336040517f808df98000000000000000000000000000000000000000000000000000000000815260040161142392919061432f565b60405180910390fd5b8080600101915050611346565b506114458a828b612565565b600960008b815260200190815260200160002060405180608001604052803373ffffffffffffffffffffffffffffffffffffffff1681526020018b81526020018a8a80806020026020016040519081016040528093929190818152602001838360200280828437600081840152601f19601f82011690508083019250505050505050815260200188888080601f016020809104026020016040519081016040528093929190818152602001838380828437600081840152601f19601f82011690508083019250505050505050815250908060018154018082558091505060019003906000526020600020906004020160009091909190915060008201518160000160006101000a81548173ffffffffffffffffffffffffffffffffffffffff021916908373ffffffffffffffffffffffffffffffffffffffff1602179055506020820151816001015560408201518160020190805190602001906115aa929190612f11565b5060608201518160030190816115c0919061418c565b5050503373ffffffffffffffffffffffffffffffffffffffff168a7fa1afe65d2285036595be8f15025c4421a593141666e15e5a980e742920646b1e60405160405180910390a360008160000160199054906101000a900464ffffffffff1664ffffffffff16600960008d81526020019081526020016000208054905014905080156116b957600382600001601f6101000a81548160ff0219169083600381111561166e5761166d613a3c565b5b02179055508a7fac0af0707ea9c32cee33737da59bdf6e773158cde23127c18dd99e74af03fd5d600260036040516116a792919061425e565b60405180910390a26116b88b612646565b5b5050505050505050505050565b6116ce612b10565b6116d86000612b97565b565b606060086000838152602001908152602001600020805480602002602001604051908101604052809291908181526020016000905b828210156118cf57838290600052602060002090600502016040518060a00160405290816000820160009054906101000a900473ffffffffffffffffffffffffffffffffffffffff1673ffffffffffffffffffffffffffffffffffffffff1673ffffffffffffffffffffffffffffffffffffffff16815260200160018201548152602001600282015481526020016003820180546117ac90613e6e565b80601f01602080910402602001604051908101604052809291908181526020018280546117d890613e6e565b80156118255780601f106117fa57610100808354040283529160200191611825565b820191906000526020600020905b81548152906001019060200180831161180857829003601f168201915b5050505050815260200160048201805461183e90613e6e565b80601f016020809104026020016040519081016040528092919081815260200182805461186a90613e6e565b80156118b75780601f1061188c576101008083540402835291602001916118b7565b820191906000526020600020905b81548152906001019060200180831161189a57829003601f168201915b5050505050815250508152602001906001019061170f565b505050509050919050565b7f000000000000000000000000000000000000000000000000000000000000000081565b60076020528060005260406000206000915090508060000160009054906101000a900473ffffffffffffffffffffffffffffffffffffffff16908060000160149054906101000a900464ffffffffff16908060000160199054906101000a900464ffffffffff169080600001601e9054906101000a900460ff169080600001601f9054906101000a900460ff16908060010154908060020154908060030154908060040180546119ad90613e6e565b80601f01602080910402602001604051908101604052809291908181526020018280546119d990613e6e565b8015611a265780601f106119fb57610100808354040283529160200191611a26565b820191906000526020600020905b815481529060010190602001808311611a0957829003601f168201915b505050505090806005018054611a3b90613e6e565b80601f0160208091040260200160405190810160405280929190818152602001828054611a6790613e6e565b8015611ab45780601f10611a8957610100808354040283529160200191611ab4565b820191906000526020600020905b815481529060010190602001808311611a9757829003601f168201915b505050505090508a565b611ac6612b10565b816005600f6101000a81548164ffffffffff021916908364ffffffffff160217905550806005600a6101000a81548164ffffffffff021916908364ffffffffff1602179055505050565b60008060009054906101000a900473ffffffffffffffffffffffffffffffffffffffff16905090565b600460109054906101000a900467ffffffffffffffff1681565b600460009054906101000a900467ffffffffffffffff1681565b6005600f9054906101000a900464ffffffffff1681565b611b8c612b10565b81600460186101000a81548167ffffffffffffffff021916908367ffffffffffffffff16021790555080600460106101000a81548167ffffffffffffffff021916908367ffffffffffffffff1602179055505050565b6000806000808660ff166002901b905060025481611c0091906143b6565b925060035481611c1091906143b6565b9150818564ffffffffff16611c2591906143b6565b83611c3091906143f8565b8664ffffffffff16611c4291906143b6565b600154611c4f91906143f8565b93505093509350939050565b600460089054906101000a900467ffffffffffffffff1681565b60007f000000000000000000000000000000000000000000000000000000000000000073ffffffffffffffffffffffffffffffffffffffff16635f5b248b33836040518363ffffffff1660e01b8152600401611cd29291906142cf565b602060405180830381865afa158015611cef573d6000803e3d6000fd5b505050506040513d601f19601f82011682018060405250810190611d139190613fbd565b611d5457336040517fbfc6c337000000000000000000000000000000000000000000000000000000008152600401611d4b9190613b9d565b60405180910390fd5b866001806003811115611d6a57611d69613a3c565b5b60076000848152602001908152602001600020600001601f9054906101000a900460ff166003811115611da057611d9f613a3c565b5b14611e09578160076000848152602001908152602001600020600001601f9054906101000a900460ff16826040517f48f178b8000000000000000000000000000000000000000000000000000000008152600401611e00939291906142f8565b60405180910390fd5b6000600760008b8152602001908152602001600020905060005b600860008c815260200190815260200160002080549050811015611f16573373ffffffffffffffffffffffffffffffffffffffff16600860008d81526020019081526020016000208281548110611e7d57611e7c614358565b5b906000526020600020906005020160000160009054906101000a900473ffffffffffffffffffffffffffffffffffffffff1673ffffffffffffffffffffffffffffffffffffffff1603611f09578a336040517f808df980000000000000000000000000000000000000000000000000000000008152600401611f0092919061432f565b60405180910390fd5b8080600101915050611e23565b50611f228a828b612565565b60006040518060a001604052803373ffffffffffffffffffffffffffffffffffffffff1681526020018b8152602001600081526020018a8a8080601f016020809104026020016040519081016040528093929190818152602001838380828437600081840152601f19601f82011690508083019250505050505050815260200188888080601f016020809104026020016040519081016040528093929190818152602001838380828437600081840152601f19601f820116905080830192505050505050508152509050600860008c815260200190815260200160002081908060018154018082558091505060019003906000526020600020906005020160009091909190915060008201518160000160006101000a81548173ffffffffffffffffffffffffffffffffffffffff021916908373ffffffffffffffffffffffffffffffffffffffff16021790555060208201518160010155604082015181600201556060820151816003019081612099919061418c565b5060808201518160040190816120af919061418c565b5050503373ffffffffffffffffffffffffffffffffffffffff168b7f6c809136a3b8faf74ae9e955b7e7b758baa66bde976764a29fa74a4eb1e3702e60405160405180910390a360008260000160199054906101000a900464ffffffffff1664ffffffffff160361212957612128338360010154612c5b565b5b60008260000160149054906101000a900464ffffffffff1664ffffffffff16600860008e81526020019081526020016000208054905014905080156122655760008360000160199054906101000a900464ffffffffff1664ffffffffff16036121fa57600383600001601f6101000a81548160ff021916908360038111156121b4576121b3613a3c565b5b02179055508b7fac0af0707ea9c32cee33737da59bdf6e773158cde23127c18dd99e74af03fd5d600160036040516121ed92919061425e565b60405180910390a2612264565b600283600001601f6101000a81548160ff0219169083600381111561222257612221613a3c565b5b02179055508b7fac0af0707ea9c32cee33737da59bdf6e773158cde23127c18dd99e74af03fd5d6001600260405161225b92919061425e565b60405180910390a25b5b505050505050505050505050565b600560009054906101000a900464ffffffffff1681565b612292612b10565b81600460086101000a81548167ffffffffffffffff021916908367ffffffffffffffff16021790555080600460006101000a81548167ffffffffffffffff021916908367ffffffffffffffff1602179055505050565b600460189054906101000a900467ffffffffffffffff1681565b61230a612b10565b826001819055508160028190555080600381905550505050565b61232c612b10565b7f000000000000000000000000000000000000000000000000000000000000000073ffffffffffffffffffffffffffffffffffffffff1663a9059cbb612370611b10565b7f000000000000000000000000000000000000000000000000000000000000000073ffffffffffffffffffffffffffffffffffffffff166370a08231306040518263ffffffff1660e01b81526004016123c99190613b9d565b602060405180830381865afa1580156123e6573d6000803e3d6000fd5b505050506040513d601f19601f8201168201806040525081019061240a9190613ef8565b6040518363ffffffff1660e01b815260040161242792919061442c565b6020604051808303816000875af1158015612446573d6000803e3d6000fd5b505050506040513d601f19601f8201168201806040525081019061246a9190613fbd565b50565b60058054906101000a900464ffffffffff1681565b61248a612b10565b816005806101000a81548164ffffffffff021916908364ffffffffff16021790555080600560006101000a81548164ffffffffff021916908364ffffffffff1602179055505050565b6124db612b10565b600073ffffffffffffffffffffffffffffffffffffffff168173ffffffffffffffffffffffffffffffffffffffff160361254d5760006040517f1e4fbdf70000000000000000000000000000000000000000000000000000000081526004016125449190613b9d565b60405180910390fd5b61255681612b97565b50565b60035481565b60065481565b600083836004018460000160009054906101000a900473ffffffffffffffffffffffffffffffffffffffff1633856040516020016125a795949392919061454c565b604051602081830303815290604052905082600001601e9054906101000a900460ff1660ff167fffffffffffffffffffffffffffffffffffffffffffffffffffffffffffffffff901c818051906020012060001c11156126405783826040517f06427aeb000000000000000000000000000000000000000000000000000000008152600401612637929190613f25565b60405180910390fd5b50505050565b600060076000838152602001908152602001600020905060005b8160000160149054906101000a900464ffffffffff1664ffffffffff168110156129135760008260000160199054906101000a900464ffffffffff1664ffffffffff1667ffffffffffffffff8111156126bc576126bb6131a6565b5b6040519080825280602002602001820160405280156126ea5781602001602082028036833780820191505090505b50905060005b8360000160199054906101000a900464ffffffffff1664ffffffffff168110156127935760096000868152602001908152602001600020818154811061273957612738614358565b5b9060005260206000209060040201600201838154811061275c5761275b614358565b5b906000526020600020015482828151811061277a57612779614358565b5b60200260200101818152505080806001019150506126f0565b506000806127a083612da4565b9150915060008060005b8760000160199054906101000a900464ffffffffff1664ffffffffff168110156128a55760008682815181106127e3576127e2614358565b5b6020026020010151905085856127f991906145a7565b81101580156128135750858561280f91906143f8565b8111155b1561289957808461282491906143f8565b93508280612831906145db565b935050612898600960008c8152602001908152602001600020838154811061285c5761285b614358565b5b906000526020600020906004020160000160009054906101000a900473ffffffffffffffffffffffffffffffffffffffff168a60020154612c5b565b5b508060010190506127aa565b5060008082146128c05781836128bb9190614652565b6128c3565b60005b905080600860008b815260200190815260200160002088815481106128eb576128ea614358565b5b9060005260206000209060050201600201819055505050505050508080600101915050612660565b5060008160000160149054906101000a900464ffffffffff1664ffffffffff1667ffffffffffffffff81111561294c5761294b6131a6565b5b60405190808252806020026020018201604052801561297a5781602001602082028036833780820191505090505b50905060005b8260000160149054906101000a900464ffffffffff1664ffffffffff16811015612a07576008600085815260200190815260200160002081815481106129c9576129c8614358565b5b9060005260206000209060050201600201548282815181106129ee576129ed614358565b5b6020026020010181815250508080600101915050612980565b50600080612a1483612da4565b9150915060005b8460000160149054906101000a900464ffffffffff1664ffffffffff16811015612b085782600460189054906101000a900467ffffffffffffffff1667ffffffffffffffff16612a6b91906143b6565b82612a7691906145a7565b848281518110612a8957612a88614358565b5b602002602001015110612afb57612afa600860008881526020019081526020016000208281548110612abe57612abd614358565b5b906000526020600020906005020160000160009054906101000a900473ffffffffffffffffffffffffffffffffffffffff168660010154612c5b565b5b8080600101915050612a1b565b505050505050565b612b18612dcc565b73ffffffffffffffffffffffffffffffffffffffff16612b36611b10565b73ffffffffffffffffffffffffffffffffffffffff1614612b9557612b59612dcc565b6040517f118cdaa7000000000000000000000000000000000000000000000000000000008152600401612b8c9190613b9d565b60405180910390fd5b565b60008060009054906101000a900473ffffffffffffffffffffffffffffffffffffffff169050816000806101000a81548173ffffffffffffffffffffffffffffffffffffffff021916908373ffffffffffffffffffffffffffffffffffffffff1602179055508173ffffffffffffffffffffffffffffffffffffffff168173ffffffffffffffffffffffffffffffffffffffff167f8be0079c531659141344cd1fd0a4f28419497f9722a3daafe3b4186f6b6457e060405160405180910390a35050565b7f000000000000000000000000000000000000000000000000000000000000000073ffffffffffffffffffffffffffffffffffffffff1663095ea7b383837f000000000000000000000000000000000000000000000000000000000000000073ffffffffffffffffffffffffffffffffffffffff1663dd62ed3e30886040518363ffffffff1660e01b8152600401612cf4929190613eba565b602060405180830381865afa158015612d11573d6000803e3d6000fd5b505050506040513d601f19601f82011682018060405250810190612d359190613ef8565b612d3f91906143f8565b6040518363ffffffff1660e01b8152600401612d5c92919061442c565b6020604051808303816000875af1158015612d7b573d6000803e3d6000fd5b505050506040513d601f19601f82011682018060405250810190612d9f9190613fbd565b505050565b600080600080612db385612dd4565b91509150809250612dc382612e56565b93505050915091565b600033905090565b600080612de083612eb3565b90506000805b8451811015612e4057600083868381518110612e0557612e04614358565b5b6020026020010151612e1791906145a7565b90508081612e2591906143b6565b83612e3091906143f8565b9250508080600101915050612de6565b50835181612e4e9190614652565b925050915091565b6000806002600184612e6891906143f8565b612e729190614652565b90508291505b81811015612ead578091506002818285612e929190614652565b612e9c91906143f8565b612ea69190614652565b9050612e78565b50919050565b6000806000905060005b8351811015612efb57838181518110612ed957612ed8614358565b5b602002602001015182612eec91906143f8565b91508080600101915050612ebd565b50825181612f099190614652565b915050919050565b828054828255906000526020600020908101928215612f4d579160200282015b82811115612f4c578251825591602001919060010190612f31565b5b509050612f5a9190612f5e565b5090565b5b80821115612f77576000816000905550600101612f5f565b5090565b6000604051905090565b600080fd5b600080fd5b6000819050919050565b612fa281612f8f565b8114612fad57600080fd5b50565b600081359050612fbf81612f99565b92915050565b60008060408385031215612fdc57612fdb612f85565b5b6000612fea85828601612fb0565b9250506020612ffb85828601612fb0565b9150509250929050565b600073ffffffffffffffffffffffffffffffffffffffff82169050919050565b600061303082613005565b9050919050565b61304081613025565b82525050565b61304f81612f8f565b82525050565b600081519050919050565b600082825260208201905092915050565b60005b8381101561308f578082015181840152602081019050613074565b60008484015250505050565b6000601f19601f8301169050919050565b60006130b782613055565b6130c18185613060565b93506130d1818560208601613071565b6130da8161309b565b840191505092915050565b600060a0820190506130fa6000830188613037565b6131076020830187613046565b6131146040830186613046565b818103606083015261312681856130ac565b9050818103608083015261313a81846130ac565b90509695505050505050565b600060208201905061315b6000830184613046565b92915050565b600064ffffffffff82169050919050565b61317b81613161565b82525050565b60006020820190506131966000830184613172565b92915050565b600080fd5b600080fd5b7f4e487b7100000000000000000000000000000000000000000000000000000000600052604160045260246000fd5b6131de8261309b565b810181811067ffffffffffffffff821117156131fd576131fc6131a6565b5b80604052505050565b6000613210612f7b565b905061321c82826131d5565b919050565b600067ffffffffffffffff82111561323c5761323b6131a6565b5b6132458261309b565b9050602081019050919050565b82818337600083830152505050565b600061327461326f84613221565b613206565b9050828152602081018484840111156132905761328f6131a1565b5b61329b848285613252565b509392505050565b600082601f8301126132b8576132b761319c565b5b81356132c8848260208601613261565b91505092915050565b600060ff82169050919050565b6132e7816132d1565b81146132f257600080fd5b50565b600081359050613304816132de565b92915050565b61331381613161565b811461331e57600080fd5b50565b6000813590506133308161330a565b92915050565b600080600080600060a0868803121561335257613351612f85565b5b600086013567ffffffffffffffff8111156133705761336f612f8a565b5b61337c888289016132a3565b955050602086013567ffffffffffffffff81111561339d5761339c612f8a565b5b6133a9888289016132a3565b94505060406133ba888289016132f5565b93505060606133cb88828901613321565b92505060806133dc88828901613321565b9150509295509295909350565b6000602082840312156133ff576133fe612f85565b5b600061340d84828501612fb0565b91505092915050565b600081519050919050565b600082825260208201905092915050565b6000819050602082019050919050565b61344b81613025565b82525050565b61345a81612f8f565b82525050565b600081519050919050565b600082825260208201905092915050565b6000819050602082019050919050565b60006134988383613451565b60208301905092915050565b6000602082019050919050565b60006134bc82613460565b6134c6818561346b565b93506134d18361347c565b8060005b838110156135025781516134e9888261348c565b97506134f4836134a4565b9250506001810190506134d5565b5085935050505092915050565b600082825260208201905092915050565b600061352b82613055565b613535818561350f565b9350613545818560208601613071565b61354e8161309b565b840191505092915050565b60006080830160008301516135716000860182613442565b5060208301516135846020860182613451565b506040830151848203604086015261359c82826134b1565b915050606083015184820360608601526135b68282613520565b9150508091505092915050565b60006135cf8383613559565b905092915050565b6000602082019050919050565b60006135ef82613416565b6135f98185613421565b93508360208202850161360b85613432565b8060005b85811015613647578484038952815161362885826135c3565b9450613633836135d7565b925060208a0199505060018101905061360f565b50829750879550505050505092915050565b6000602082019050818103600083015261367381846135e4565b905092915050565b60006060820190506136906000830186613037565b61369d6020830185613046565b81810360408301526136af81846130ac565b9050949350505050565b6000819050919050565b60006136de6136d96136d484613005565b6136b9565b613005565b9050919050565b60006136f0826136c3565b9050919050565b6000613702826136e5565b9050919050565b613712816136f7565b82525050565b600060208201905061372d6000830184613709565b92915050565b600080fd5b600080fd5b60008083601f8401126137535761375261319c565b5b8235905067ffffffffffffffff8111156137705761376f613733565b5b60208301915083602082028301111561378c5761378b613738565b5b9250929050565b60008083601f8401126137a9576137a861319c565b5b8235905067ffffffffffffffff8111156137c6576137c5613733565b5b6020830191508360018202830111156137e2576137e1613738565b5b9250929050565b6000806000806000806080878903121561380657613805612f85565b5b600061381489828a01612fb0565b965050602061382589828a01612fb0565b955050604087013567ffffffffffffffff81111561384657613845612f8a565b5b61385289828a0161373d565b9450945050606087013567ffffffffffffffff81111561387557613874612f8a565b5b61388189828a01613793565b92509250509295509295509295565b600081519050919050565b600082825260208201905092915050565b6000819050602082019050919050565b600060a0830160008301516138d46000860182613442565b5060208301516138e76020860182613451565b5060408301516138fa6040860182613451565b50606083015184820360608601526139128282613520565b9150506080830151848203608086015261392c8282613520565b9150508091505092915050565b600061394583836138bc565b905092915050565b6000602082019050919050565b600061396582613890565b61396f818561389b565b935083602082028501613981856138ac565b8060005b858110156139bd578484038952815161399e8582613939565b94506139a98361394d565b925060208a01995050600181019050613985565b50829750879550505050505092915050565b600060208201905081810360008301526139e9818461395a565b905092915050565b60006139fc826136e5565b9050919050565b613a0c816139f1565b82525050565b6000602082019050613a276000830184613a03565b92915050565b613a36816132d1565b82525050565b7f4e487b7100000000000000000000000000000000000000000000000000000000600052602160045260246000fd5b60048110613a7c57613a7b613a3c565b5b50565b6000819050613a8d82613a6b565b919050565b6000613a9d82613a7f565b9050919050565b613aad81613a92565b82525050565b600061014082019050613ac9600083018d613037565b613ad6602083018c613172565b613ae3604083018b613172565b613af0606083018a613a2d565b613afd6080830189613aa4565b613b0a60a0830188613046565b613b1760c0830187613046565b613b2460e0830186613046565b818103610100830152613b3781856130ac565b9050818103610120830152613b4c81846130ac565b90509b9a5050505050505050505050565b60008060408385031215613b7457613b73612f85565b5b6000613b8285828601613321565b9250506020613b9385828601613321565b9150509250929050565b6000602082019050613bb26000830184613037565b92915050565b600067ffffffffffffffff82169050919050565b613bd581613bb8565b82525050565b6000602082019050613bf06000830184613bcc565b92915050565b613bff81613bb8565b8114613c0a57600080fd5b50565b600081359050613c1c81613bf6565b92915050565b60008060408385031215613c3957613c38612f85565b5b6000613c4785828601613c0d565b9250506020613c5885828601613c0d565b9150509250929050565b600080600060608486031215613c7b57613c7a612f85565b5b6000613c89868287016132f5565b9350506020613c9a86828701613321565b9250506040613cab86828701613321565b9150509250925092565b6000606082019050613cca6000830186613046565b613cd76020830185613046565b613ce46040830184613046565b949350505050565b60008060008060008060808789031215613d0957613d08612f85565b5b6000613d1789828a01612fb0565b9650506020613d2889828a01612fb0565b955050604087013567ffffffffffffffff811115613d4957613d48612f8a565b5b613d5589828a01613793565b9450945050606087013567ffffffffffffffff811115613d7857613d77612f8a565b5b613d8489828a01613793565b92509250509295509295509295565b600080600060608486031215613dac57613dab612f85565b5b6000613dba86828701612fb0565b9350506020613dcb86828701612fb0565b9250506040613ddc86828701612fb0565b9150509250925092565b613def81613025565b8114613dfa57600080fd5b50565b600081359050613e0c81613de6565b92915050565b600060208284031215613e2857613e27612f85565b5b6000613e3684828501613dfd565b91505092915050565b7f4e487b7100000000000000000000000000000000000000000000000000000000600052602260045260246000fd5b60006002820490506001821680613e8657607f821691505b602082108103613e9957613e98613e3f565b5b50919050565b6000602082019050613eb46000830184613a2d565b92915050565b6000604082019050613ecf6000830185613037565b613edc6020830184613037565b9392505050565b600081519050613ef281612f99565b92915050565b600060208284031215613f0e57613f0d612f85565b5b6000613f1c84828501613ee3565b91505092915050565b6000604082019050613f3a6000830185613046565b613f476020830184613046565b9392505050565b6000606082019050613f636000830186613037565b613f706020830185613037565b613f7d6040830184613046565b949350505050565b60008115159050919050565b613f9a81613f85565b8114613fa557600080fd5b50565b600081519050613fb781613f91565b92915050565b600060208284031215613fd357613fd2612f85565b5b6000613fe184828501613fa8565b91505092915050565b60008190508160005260206000209050919050565b60006020601f8301049050919050565b600082821b905092915050565b60006008830261404c7fffffffffffffffffffffffffffffffffffffffffffffffffffffffffffffffff8261400f565b614056868361400f565b95508019841693508086168417925050509392505050565b600061408961408461407f84612f8f565b6136b9565b612f8f565b9050919050565b6000819050919050565b6140a38361406e565b6140b76140af82614090565b84845461401c565b825550505050565b600090565b6140cc6140bf565b6140d781848461409a565b505050565b5b818110156140fb576140f06000826140c4565b6001810190506140dd565b5050565b601f8211156141405761411181613fea565b61411a84613fff565b81016020851015614129578190505b61413d61413585613fff565b8301826140dc565b50505b505050565b600082821c905092915050565b600061416360001984600802614145565b1980831691505092915050565b600061417c8383614152565b9150826002028217905092915050565b61419582613055565b67ffffffffffffffff8111156141ae576141ad6131a6565b5b6141b88254613e6e565b6141c38282856140ff565b600060209050601f8311600181146141f657600084156141e4578287015190505b6141ee8582614170565b865550614256565b601f19841661420486613fea565b60005b8281101561422c57848901518255600182019150602085019450602081019050614207565b868310156142495784890151614245601f891682614152565b8355505b6001600288020188555050505b505050505050565b60006040820190506142736000830185613aa4565b6142806020830184613aa4565b9392505050565b6002811061429857614297613a3c565b5b50565b60008190506142a982614287565b919050565b60006142b98261429b565b9050919050565b6142c9816142ae565b82525050565b60006040820190506142e46000830185613037565b6142f160208301846142c0565b9392505050565b600060608201905061430d6000830186613046565b61431a6020830185613aa4565b6143276040830184613aa4565b949350505050565b60006040820190506143446000830185613046565b6143516020830184613037565b9392505050565b7f4e487b7100000000000000000000000000000000000000000000000000000000600052603260045260246000fd5b7f4e487b7100000000000000000000000000000000000000000000000000000000600052601160045260246000fd5b60006143c182612f8f565b91506143cc83612f8f565b92508282026143da81612f8f565b915082820484148315176143f1576143f0614387565b5b5092915050565b600061440382612f8f565b915061440e83612f8f565b925082820190508082111561442657614425614387565b5b92915050565b60006040820190506144416000830185613037565b61444e6020830184613046565b9392505050565b6000819050919050565b61447061446b82612f8f565b614455565b82525050565b600081905092915050565b6000815461448e81613e6e565b6144988186614476565b945060018216600081146144b357600181146144c8576144fb565b60ff19831686528115158202860193506144fb565b6144d185613fea565b60005b838110156144f3578154818901526001820191506020810190506144d4565b838801955050505b50505092915050565b60008160601b9050919050565b600061451c82614504565b9050919050565b600061452e82614511565b9050919050565b61454661454182613025565b614523565b82525050565b6000614558828861445f565b6020820191506145688287614481565b91506145748286614535565b6014820191506145848285614535565b601482019150614594828461445f565b6020820191508190509695505050505050565b60006145b282612f8f565b91506145bd83612f8f565b92508282039050818111156145d5576145d4614387565b5b92915050565b60006145e682612f8f565b91507fffffffffffffffffffffffffffffffffffffffffffffffffffffffffffffffff820361461857614617614387565b5b600182019050919050565b7f4e487b7100000000000000000000000000000000000000000000000000000000600052601260045260246000fd5b600061465d82612f8f565b915061466883612f8f565b92508261467857614677614623565b5b82820490509291505056fea2646970667358221220bc0456c2c48f9cc8063b3238fada53c9be58437f8aea2918ec9b57b4fb4cfdc864736f6c63430008180033",
  "linkReferences": {},
  "deployedLinkReferences": {}
}